:020000040800F2
:10000000801800209D010008CD170008E7140008A3
:10001000C917000881020008A51B000800000000A5
:1000200000000000000000000000000005010008C2
:10003000850200080000000049010008811800083E
:10004000B7010008B7010008B7010008B7010008B0
:10005000B7010008B7010008B7010008B7010008A0
:10006000B7010008B7010008B7010008B701000890
:10007000B7010008B7010008B7010008B701000880
:10008000B7010008B7010008B7010008B701000870
:10009000B7010008B7010008B7010008AB0200086B
:1000A000B70100081D190008B7010008B7010008D2
:1000B000B7010008B7010008B7010008B701000840
:1000C000B7010008B7010008B7010008B701000830
:1000D000B7010008B7010008B7010008B701000820
:1000E00087020008B7010008B7010008DFF810D048
:1000F00000F0A0F800480047A11D0008AFF3008001
:1001000080180020224B19680868B0E8F00F80F3CF
:100110000988BFF36F8F4FF0000080F311884EF015
:100120000D0E70470000000006480068006880F36C
:10013000088862B661B6BFF34F8FBFF36F8F00DFE1
:1001400000BF00BF08ED00E0EFF30980BFF36F8F41
:100150000F4B1A6820E9F00F106008B54FF05000FF
:1001600080F31188BFF34F8FBFF36F8F02F094FDC0
:100170004FF0000080F31188BDE808401968086856
:10018000B0E8F00F80F30988BFF36F8F704700BFAE
:1001900040000020EFF305807047000006488047CC
:1001A00006480047FEE7FEE7FEE7FEE7FEE7FEE75C
:1001B000FEE7FEE7FEE7FEE71B190008ED0000087A
:1001C00040EA01039B0703D009E008C9121F08C0D9
:1001D000042AFAD203E011F8013B00F8013B521E59
:1001E000F9D27047D2B201E000F8012B491EFBD2D0
:1001F00070470022F6E710B513460A460446194632
:10020000FFF7F0FF204610BD30B50B460146002039
:100210002022012409E021FA02F59D4205D303FAC8
:1002200002F5491B04FA02F52844151EA2F1010249
:10023000F1DC30BD064C074D06E0E06840F00103FC
:1002400094E8070098471034AC42F6D3FFF752FF0A
:10025000EC3C00080C3D000810B50446012C05D10B
:1002600001224103054800F0A1FA06E02CB9002262
:100270004FF40051014800F099FA10BD0010014000
:1002800000BFFEE7704710B54FF4805000F0F0F863
:100290004FF4005000F0ECF84FF4804000F0E8F824
:1002A0004FF4004000F0E4F810BD10B5202000F03D
:1002B000DFF84FF4807000F0DBF810BD72B600BFBD
:1002C000FEE7000000BF1248007802281CD1002081
:1002D0000F490870411E0F48006801F011FE0446E6
:1002E0004CB90C48006801F0DCFD054629460AA01F
:1002F00001F05AFC08E00748006801F0D2FD05460D
:10030000294605A001F050FC012001F06CFDDAE760
:100310000000002028000020E8BDA6E4BD8DE69581
:10032000B0E9878FE4B8BA3A25640A0010B50446EC
:100330002E4800682E490968401AC82800D210BD0E
:100340002A4800682A490860B4F5005F0AD10121F3
:10035000084601F0CBF801202649087026A001F0DC
:1003600023FC41E0B4F5804F0AD10021012001F0C7
:10037000BDF802201F49087024A001F015FC33E0ED
:10038000202C0AD10121022001F0B0F803201949E4
:10039000087023A001F008FC26E0B4F5004F0AD154
:1003A0000021022001F0A2F804201249087021A0C7
:1003B00001F0FAFB18E0B4F5805F09D10120FFF7E6
:1003C0004BFF05200B4908701FA001F0EDFB0BE06F
:1003D000B4F5807F08D10020FFF73EFF06200549D5
:1003E00008701EA001F0E0FB00BFA8E7300000206D
:1003F0002C000020000000204B6579205570202043
:1004000020507265737365640A0000004B657920A3
:10041000446F776E20507265737365640A00000044
:100420004B6579204C656674205072657373656402
:100430000A0000004B657920526967687420507289
:1004400065737365640A00004B6579204F4B20206B
:100450002020507265737365640A00004B65792033
:10046000455343202020507265737365640A000071
:1004700010B5044604480068204020B102480460DA
:100480002046FFF753FF10BD140401402DE9F84743
:100490000346002294466EE14FF0010808FA02F488
:1004A000D1F8008008EA0400A0427DD1DFF8DCA288
:1004B000D1F80480A8EB0A09D0453AD014DCB8F191
:1004C000030F50D009DCB8F1000F31D0B8F1010FA3
:1004D0001CD0B8F1020F49D120E0B8F1110F18D0AB
:1004E000B8F1120F42D11EE0B9F5881F25D006DC05
:1004F000B9F5803F20D0B9F5801F37D11AE0B9F5A2
:10050000001F18D0B9F5041F30D117E0D1F80CC086
:100510002DE0D1F80C8008F1040C28E0D1F80C8013
:1005200008F1080C23E0D1F80C8008F10C0C1EE057
:1005300000BF00BF00BF00BF00BF00BFD1F80880F0
:10054000B8F1000F02D14FF0040C0BE0D1F8088095
:10055000B8F1010F03D14FF0080C1C6102E04FF01D
:10056000080C5C6103E04FF0000C00E000BF00BF2E
:10057000FF2801D8984601E003F104084646FF2809
:1005800002D84FEA820803E0A2F108084FEA88087F
:100590004746D6F800804FF00F0909FA07F928EA14
:1005A00009080CFA07F900E088E048EA0908C6F8EB
:1005B0000080D1F8048008F08058B8F1805F7DD1C8
:1005C00000BFDFF8CC81D8F8188048F00108DFF8C8
:1005D000C091C9F81880C846D8F8188008F00108FA
:1005E000CDF8008000BF00BF4FEAB9384FEA92094A
:1005F00058F829504FEA82784FEA18794FF00F08DF
:1006000008FA09F825EA0805DFF88881434502D190
:100610004FF0000816E0DFF88081434502D14FF02B
:1006200001080FE0DFF87481434502D14FF0020862
:1006300008E0DFF86C81434502D14FF0030801E088
:100640004FF004084FEA82794FEA197908FA09F85D
:1006500048EA0505DFF84C814FEA920948F829502D
:10066000D1F8048008F48018B8F5801F0AD1DFF8AB
:100670003881D8F8008048EA0008DFF82C91C9F8E2
:10068000008009E0DFF82081D8F8008028EA00081F
:10069000DFF81491C9F80080D1F8048008F400183C
:1006A000B8F5001F10D1DFF8008108F10408D8F870
:1006B000008048EA0008DFF8F09000E05AE009F115
:1006C0000409C9F800800DE0DFF8DC8008F10408B7
:1006D000D8F8008028EA0008DFF8CC9009F1040976
:1006E000C9F80080D1F8048008F40038B8F5003F5C
:1006F0000ED1DFF8B480A8F10408D8F8008048EAE9
:100700000008DFF8A490A9F10409C9F800800DE001
:10071000DFF89480A8F10408D8F8008028EA0008DF
:10072000DFF88490A9F10409C9F80080D1F80480A9
:1007300008F48038B8F5803F0ED1DFF86C80A8F15E
:100740000808D8F8008048EA0008DFF85C90A9F1B2
:100750000809C9F800800DE0DFF84C80A8F108080E
:10076000D8F8008028EA0008DFF83C90A9F10809D1
:10077000C9F80080521CD1F8008028FA02F8B8F1BC
:10078000000F7FF489AEBDE8F8870000000011106B
:100790000010024000080140000C01400010014020
:1007A0000014014008000140080401400AB1016141
:1007B00001E00B04036170470148006870470000C6
:1007C00030000020034800680349097808440149C3
:1007D00008607047300000203800002010B508483D
:1007E000006840F0100006490860032000F0D8F8C7
:1007F0000F2000F007F800F055F8002010BD0000B1
:1008000000200240F0B587B00446002600270025EE
:1008100000BF1F48806940F400601D498861084698
:10082000806900F40060009000BF00BF01A902A829
:1008300000F090F900F0C6F906461648B6FBF0F055
:10084000471E15481549086040F2E7311348C1605A
:100850004760002101618160816100F02FFC054645
:1008600095B90E4800F05EFC05466DB9192000F000
:1008700049F8102C07D200222146192000F052F826
:100880000748046000E00125284607B0F0BD0000DD
:100890000010024040420F00002C0140480300209D
:1008A0003400002008B500BF1448806940F0010002
:1008B000124988610846806900F00100009000BF7D
:1008C00000BF00BF0846C06940F08050C8610846BC
:1008D000C06900F08050009000BF00BF00220F21CF
:1008E000901E00F01FF800BF0549486820F0E06046
:1008F00040F00070486000BF08BD000000100240DA
:100900000000014001460846002809DB00F01F03F3
:1009100001229A4043099B0003F1E023C3F8002120
:1009200000BF70472DE9F05F80460D461646002750
:1009300001F04AF9074639462A46334601F00700D6
:10094000C0F1070ABAF1040F02D94FF0040A01E01E
:10095000C0F1070AD14600F1040ABAF1070F02D22A
:100960004FF0000A01E0A0F1030AD4464FF0010A5B
:100970000AFA09FAAAF1010A0AEA020A0AFA0CFAC0
:100980004FF0010B0BFA0CFBABF1010B0BEA030B65
:100990004AEA0B042146404601F01EF9BDE8F09FEB
:1009A00000BF00F00702064B19684FF6FF0319401D
:1009B000044B0B4343EA0221014B196000BF70470F
:1009C0000CED00E00000FA0570B504460D460CB9C8
:1009D000012070BD5A48006800F00700A8420ED2FE
:1009E0005748006820F0070028435549086008462A
:1009F000006800F00700A84201D00120E9E7207854
:100A000000F0020002281DD1207800F00400042824
:100A100005D14C48406840F4E0604A49486020787D
:100A200000F00800082805D14648406840F46050AE
:100A3000444948604348406820F0F000A1680843FA
:100A400040494860207800F0010078B360680128D0
:100A500006D13C48006800F4003090B90120B8E7A6
:100A60006068022806D13748006800F0007040B97D
:100A70000120AEE73348006800F0020008B9012009
:100A8000A7E73048406820F00300616808432D491B
:100A90004860FFF791FE064609E0FFF78DFE801BD8
:100AA00041F28831884202D9032092E707E02548C5
:100AB000406800F00C006168B0EB810FEDD1204878
:100AC000006800F00700A8420ED91D48006820F019
:100AD000070028431A4908600846006800F007002C
:100AE000A84201D0012074E7207800F00400042817
:100AF00007D11448406820F4E060E16808431149D8
:100B00004860207800F00800082808D10D484068A7
:100B100020F46050216940EAC1000A49486000F0B1
:100B200061F808494968C1F30311074A515CC8409C
:100B30000649086006480068FFF764FE002048E7A1
:100B40000020024000100240BE3C00083C00002093
:100B5000340000200F2202600D4A526802F00302A6
:100B600042600B4A526802F0F0028260084A526802
:100B700002F4E062C260064A526802F46052D2088F
:100B80000261044A126802F007020A60704700001E
:100B90000010024000200240014800687047000039
:100BA0003C00002000B5FFF7F7FF04494968C1F396
:100BB0000221034A515CC84000BD00000010024001
:100BC000CE3C000800B5FFF7E7FF04494968C1F3D0
:100BD000C221034A515CC84000BD00000010024021
:100BE000CE3C000870B50021002200240023002024
:100BF000134D696801F00C05F5B1042D02D0082DE4
:100C000019D101E00F4819E00F4DC1F38346AB5DE8
:100C100001F4803555B10A4D6D68C5F340450B4E62
:100C2000725D084D5D43B5FBF2F402E0084D03FB35
:100C300005F4204602E000BF024800BF00BF70BDBF
:100C40000010024000127A00AC3C0008BC3C0008D6
:100C500000093D00F8B504460CB90120F8BD207824
:100C600000F00100002878D0F848406800F00C003F
:100C700004280CD0F548406800F00C00082811D179
:100C8000F248406800F48030B0F5803F0AD1EF4868
:100C9000006800F4003000285FD0606800285CD154
:100CA0000120DBE700BF6068B0F5803F06D1E74870
:100CB000006840F48030E549086028E0606858B971
:100CC000E248006820F48030E04908600846006887
:100CD00020F4802008601AE06068B0F5A02F0BD1E6
:100CE000DA48006840F48020D84908600846006867
:100CF00040F4803008600AE0D448006820F4803076
:100D0000D24908600846006820F48020086000BFCF
:100D1000606888B1FFF750FD054606E0FFF74CFD1F
:100D2000401B642801D9032098E7C848006800F4F4
:100D300000300028F2D010E0FFF73EFD054606E047
:100D4000FFF73AFD401B642801D9032086E7BF481E
:100D5000006800F400300028F2D1207800F0020092
:100D6000022857D1B948406800F00C0050B1B7488C
:100D7000406800F00C00082818D1B448406800F41E
:100D8000803098B9B148006800F0020020B12069B5
:100D9000012801D0012061E7AC48006820F0F8008C
:100DA000616940EAC100A949086033E02069E8B1FF
:100DB0000120A7490860FFF7FFFC054606E0FFF7A2
:100DC000FBFC401B022801D9032047E79F4800682D
:100DD00000F002000028F2D09C48006820F0F800E3
:100DE000616940EAC1009949086013E00020984910
:100DF0000860FFF7E1FC054606E0FFF7DDFC401B5D
:100E0000022801D9032029E79048006800F0020079
:100E10000028F2D1207800F0080008282DD1A06920
:100E2000B8B101208B490860FFF7C6FC054606E013
:100E3000FFF7C2FC401B022801D903200EE78348BC
:100E4000406A00F002000028F2D0012000F0FEFC11
:100E500013E000207F490860FFF7AEFC054606E07E
:100E6000FFF7AAFC401B022801D90320F6E67748C9
:100E7000406A00F002000028F2D1207800F004005F
:100E8000042873D100277148C06900F0805070B900
:100E900000BF6E48C06940F080506C49C861084688
:100EA000C06900F08050009000BF00BF01276A4871
:100EB000006800F48070B0B96748006840F4807042
:100EC00065490860FFF778FC054606E0FFF774FC0B
:100ED000401B642801D90320C0E65F48006800F485
:100EE00080700028F2D000BFE068012806D1574882
:100EF000006A40F001005549086227E0E06858B9EF
:100F00005248006A20F00100504908620846006A11
:100F100020F00400086219E0E06805280BD14B4876
:100F2000006A40F00400494908620846006A40F03F
:100F3000010008620AE04548006A20F001004349C8
:100F400008620846006A20F00400086200BFE068FA
:100F5000A0B1FFF731FC054609E0FFF72DFC401B6F
:100F600041F28831884202D9032077E622E03748EF
:100F7000006A00F002000028EFD012E0FFF71CFC2E
:100F8000054608E0FFF718FC401B41F28831884213
:100F900001D9032062E62D48006A00F00200002813
:100FA000F0D1012F05D12948C06920F08050274990
:100FB000C86100BFE069C8B32448406800F00C0075
:100FC000082860D0E069022848D10020204908663E
:100FD000FFF7F2FB054606E0FFF7EEFB401B022899
:100FE00001D903203AE61948006800F00070002893
:100FF000F2D1206AB0F5803F07D11448406820F450
:101000000030A168084311494860D4E90801084349
:101010000E49496821F4741108430C4948600120C5
:101020000B490866FFF7C8FB054607E03DE0FFF700
:10103000C3FB401B022801D903200FE603480068C8
:1010400000F000700028F2D02FE0000000100240F5
:1010500000004242800442420070004000201449D7
:101060000866FFF7A9FB054606E0FFF7A5FB401B56
:10107000022801D90320F1E50E48006800F0007055
:101080000028F2D111E0E069012800D1E6E5094825
:10109000466806F48031206A814204D106F470115A
:1010A000606A814201D00120D8E50020D6E5000029
:1010B00000004242001002407047704710B50446DD
:1010C0000CB9012010BD94F83D0028B9002084F827
:1010D0003C00204600F025F8022084F83D00211D48
:1010E000206800F023FC012084F8460000BF84F84B
:1010F0003E0001213F20015540200155412001556E
:1011000000BF00BF012084F8420043200155442065
:1011100001554520015500BF012084F83D00002005
:10112000D0E77047014691F83D00012801D0012029
:101130007047022081F83D000868C06840F0010057
:101140000B68D860124B086898420BD00868B0F161
:10115000804F07D00F4B0868984203D00E4B0868A9
:1011600098420CD10868806800F00702062A0CD06B
:101170000868006840F001000B68186005E0086826
:10118000006840F001000B6818600020D0E7000004
:10119000002C01400004004000080040704770B57A
:1011A00004462068C5682068066906F00200022827
:1011B00019D105F00200022815D1401F21680861ED
:1011C000012020772068806900F0030018B12046D4
:1011D000FFF7E4FF05E0204600F097F8204600F016
:1011E00095F80020207706F00400042819D105F0B6
:1011F0000400042815D1C04321680861022020772B
:101200002068806900F4407018B12046FFF7C6FFDF
:1012100005E0204600F079F8204600F077F800203D
:10122000207706F00800082819D105F008000828E2
:1012300015D1C04321680861042020772068C06967
:1012400000F0030018B12046FFF7A8FF05E0204694
:1012500000F05BF8204600F059F80020207706F0F7
:101260001000102819D105F01000102815D1C04326
:1012700021680861082020772068C06900F4407068
:1012800018B12046FFF78AFF05E0204600F03DF840
:10129000204600F03BF80020207706F0010048B11E
:1012A00005F0010030B16FF00100216808612046AF
:1012B00000F02EF806F08000802809D105F08000AB
:1012C000802805D1C043216808612046FFF7F4FE5D
:1012D00006F04000402809D105F04000402805D123
:1012E000C04321680861204600F01EF806F0200087
:1012F000202809D105F02000202805D1C04321680D
:1013000008612046FFF7D9FE70BD704770470000A6
:1013100010B5044603492068884201D1FFF752FA0C
:1013200010BD0000002C0140704710B504460CB9F8
:10133000012010BDA06900B100E000BF94F8410099
:1013400028B9002084F84000204600F029F8242025
:1013500084F841002068C06820F400502168C8600B
:10136000204600F05BFB2068006920F49040216873
:1013700008612068406920F02A00216848612068DF
:10138000C06840F400502168C860002060642020DC
:1013900084F8410084F842000020606300BFC8E781
:1013A00010B586B00446002002900390049005908A
:1013B0001A49206888422ED100BF1948806940F43C
:1013C0008040174988610846806900F48040019098
:1013D00000BF00BF00BF0846806940F0040088617C
:1013E0000846806900F00400019000BF00BF481566
:1013F0000290022003900320059002A90948FFF7FC
:1014000045F84FF48060029000200390049002A9F8
:101410000448FFF73BF806B010BD0000003801405B
:1014200000100240000801402DE9F84F04460E4626
:10143000174699464FF0000A94F84100202850D1F1
:1014400006B117B90120BDE8F88F002060642120A3
:1014500084F84100FFF7B0F98246A784E784A068CA
:10146000B0F5805F04D1206910B90025B04602E0D4
:1014700035464FF000081EE05346002280212046EA
:10148000CDF8009000F048FB20B1202084F8410006
:101490000320D8E745B9B8F80000C0F30800216878
:1014A000486008F1020803E02878216848606D1C54
:1014B000E08C401EE084E08C0028DDD15346002201
:1014C00040212046CDF8009000F026FB20B12020DE
:1014D00084F841000320B6E7202084F84100002072
:1014E000B1E70220AFE700BFFEE7000070B5054698
:1014F0000C46012D0ED1012C05D1002241020E48CF
:10150000FFF754F916E0ACB9012251020A48FFF77F
:101510004DF90FE0022D0DD1012C05D10022210241
:101520000548FFF743F905E024B9012211020248FA
:10153000FFF73CF970BD0000000C014000B5A7B0FA
:1015400000202590269025A800F072FC38490860FC
:10155000002023902490012123A800F076FC354937
:101560000860002021902290012121A800F06DFC4C
:101570003149086000201F90209001211FA800F031
:1015800064FC2E49086000201D901E900A211DA8B1
:1015900000F05BFC2A4908604FF0FF3126480068E4
:1015A00000F0AEFC4FF0FF312448006800F0A8FCCA
:1015B000244B0FCBCDE91B23CDE91901002119A83C
:1015C00000F022FC204908601E4B10330FCBCDE900
:1015D0001723CDE91501002115A800F015FC1B49C2
:1015E00008601C22174920310EA8FEF7E9FD0021F2
:1015F0000EA800F0B9FC164908601C2211493C31C4
:1016000007A8FEF7DDFD002107A800F0ADFC114999
:1016100008601C220B4958316846FEF7D1FD0021B5
:10162000684600F0A1FC0C49086027B000BD00002E
:10163000180000201C0000202000002024000020B2
:1016400028000020383C0008100000201400002072
:1016500004000020080000200C00002000B585B028
:101660000020019002900390049000BF43488069DD
:1016700040F01000414988610846806900F0100080
:10168000009000BF00BF00BF0846806940F0200006
:1016900088610846806900F02000009000BF00BF0C
:1016A00000BF0846806940F00800886108468069EC
:1016B00000F00800009000BF00BF00BF084680692E
:1016C00040F0040088610846806900F00400009042
:1016D00000BF00BF00224FF400512948FFF766F811
:1016E000002202212748FFF761F801224FF44071E0
:1016F0002448FFF75BF84FF400500190012002905E
:10170000002003900220049001A91D48FEF7BEFEB0
:1017100040F202300190012002900020039002204C
:10172000049001A91748FEF7B1FE4FF22000019086
:10173000154802900120039001A91248FEF7A6FE69
:101740004FF480700190104802900120039001A98D
:101750000E48FEF79BFE002205211720FFF7E2F856
:101760001720FFF7CFF8002205212820FFF7DAF82D
:101770002820FFF7C7F805B000BD000000100240A8
:1017800000100140000C0140000021100008014041
:1017900010B50B480B4908604FF4E1304860002158
:1017A00008488160C16001610C21416100218161B3
:1017B000C161FFF7BAFD08B1FEF780FD10BD000062
:1017C000003801400003002000BFFEE700BFFEE735
:1017D0000EB51748006800F064FB0446214615A0CA
:1017E00000F0E2F900BF1848007801281CD1002061
:1017F000154908700E48006800F05AFB00900098E8
:1018000048B90B48006800F04CFB0446214609A08B
:1018100000F0CAF908E00648006800F042FB044600
:10182000214604A000F0C0F9642000F0DCFADAE7F9
:1018300028000020E8BDA6E4BD8DE695B0E9878FBD
:10184000E4B8BA3A25640A000000002008B5084947
:101850000968C9084FF47A72B1FBF2F14143009173
:1018600000BF00BF00994A1E00920029F9D108BDAF
:101870003C00002000BF642000F0B5FAFBE7000048
:1018800010B500BF502080F31188BFF34F8FBFF316
:101890006F8F00BF01F09EFF18B14FF080500449D8
:1018A000086000BF002080F3118800BF10BD000059
:1018B00004ED00E000B58FB0282105A8FEF799FCE3
:1018C00014216846FEF795FC01200590000406905F
:1018D000002007900120099002200C90C1030D9177
:1018E0004FF4E0110E9105A8FFF7B4F908B1FEF727
:1018F000E5FC0F20009002200190002002904FF4A0
:10190000806003900020049002216846FFF75CF895
:1019100008B1FEF7D3FC0FB000BD704710B5024808
:10192000FFF73DFC10BD00004803002010B5026821
:101930001C4B984208D0B0F1804F05D01A4B98420A
:1019400002D01A4B984203D122F070024B681A431E
:10195000144B984208D0B0F1804F05D0124B9842FA
:1019600002D0124B984203D122F44072CB681A4342
:1019700022F080034C6943EA040202608B68C36270
:101980000B688362074B984201D10B690363012303
:101990004361036903F001031BB1036923F00103F1
:1019A000036110BD002C014000040040000800400D
:1019B00000BF00BF02680C3252E8002F22F4907181
:1019C00002680C3242E80013002BF3D100BF00BFC5
:1019D00000BF0268143252E8002F22F001010268B1
:1019E000143242E80013002BF3D100BF016B012930
:1019F0000ED100BF00BF02680C3252E8002F22F067
:101A0000100102680C3242E80013002BF3D100BF32
:101A1000202180F8421000210163704770B5044610
:101A20002168096921F44051E2681143226811617B
:101A30002269A1681143626941EA02052168C96807
:101A400041F20C62914329432268D16021684969BF
:101A500021F44071A2691143226851612D4A216825
:101A6000914202D1FFF7AEF801E0FFF79BF800EBDF
:101A7000C00101EB001162689200B1FBF2F100EBD2
:101A8000C00202EB001263689B00B2FBF3F2642316
:101A9000B2FBF3F202EBC20303EB0212A1EB8201F1
:101AA000322202EB01116422B1FBF2F101F0F001EC
:101AB00000EBC00202EB001263689B00B2FBF3F282
:101AC0006423B2FBF3F201EB021200EBC00101EB65
:101AD000001163689B00B1FBF3F100EBC00303EB63
:101AE00000136668B600B3FBF6F36426B3FBF6F3A7
:101AF00003EBC30606EB0313A1EB8301322303EBD5
:101B000001116423B1FBF3F101F00F0111442268CC
:101B1000916070BD003801402DE9F84304460D4640
:101B200017469846089E31E0701C70B3FEF744FEDD
:101B3000A0EB0800B04200D816B90320BDE8F88336
:101B40002068C06800F00400F8B1802D1ED0402D40
:101B50001CD020680068C0F3C000B0B100BF0020F6
:101B6000009020680068009020684068009000BFE6
:101B700000BF2046FFF71CFF0820606400BF002064
:101B800084F8400000BF0120D8E7FFE72068006824
:101B90002840A84201D1012000E00020B842C3D073
:101BA0000020CBE700BFFEE70FB4054B10B503A93B
:101BB000044A029800F034F810BC5DF814FB0000F1
:101BC000751D0008A800002002480068C0F302202C
:101BD000704700000CED00E010B5002804DB0A0798
:101BE000130E054A135406E00A07140E034A00F0C8
:101BF0000F031B1FD45410BD00E400E018ED00E0FB
:101C000002E008C8121F08C1002AFAD170477047C5
:101C1000002001E001C1121F002AFBD17047000023
:101C20002DE9FF4F89B09B460446002506E0252894
:101C30000BD05A460B999047641C6D1C20780028E5
:101C4000F5D10DB02846BDE8F08F0027B846012237
:101C5000474900E0074314F8013F203B02FA03F034
:101C60000842F7D120782E2819D114F8010F47F037
:101C700004072A280ED06FF02F022078A0F130013F
:101C800009290CD808EB880102EB410100EB01089F
:101C9000641CF2E70A98641C50F8048B0A902078C0
:101CA0000028CED0642808D0692806D075281ED018
:101CB0005A460B9990476D1C58E00A994FF00A0953
:101CC00001C90A91002802DA40422D2102E03905BB
:101CD00004D52B218DF82010012103E0F90704D051
:101CE0002021F7E78A4608AE0DE00021FAE70A99BD
:101CF0004FF00A0901C90A91F7E74946FEF784FA4D
:101D0000303106F8011D0028F7D1ADEB060000F1D7
:101D10002009780701D44FF00108C84502DDA8EB7F
:101D2000090000E000208046002706E008A85A4687
:101D3000C05D0B9990476D1C7F1C5745F6DB04E096
:101D400030205A460B9990476D1CB8F10001A8F15C
:101D50000108F5DC05E016F8010B5A460B9990478F
:101D60006D1CB9F10001A9F10109F4DC641C65E7FF
:101D70000928010013B50C464FF0FF3301226946D4
:101D80000248FFF751FB00981CBD00000003002033
:101D900000BFEFF3058008B1012070470020FCE789
:101DA000FEF71CFDFFF786FDFFF758FCFFF7F0FC80
:101DB00004A0FFF7F9FEFFF7C1FB00F020F800BF19
:101DC000FEE70000556172743120696E6974206904
:101DD00073206F6B0A00000001460020842901D0A7
:101DE000CA1C1044704770B5044625460DB12946FB
:101DF00000E00121084600F021FE002070BD10B572
:101E000000F0EAFE002010BDF8B504460D46A068BB
:101E100040B1E06830B10020009094E80F0001F07C
:101E2000B0F8F8BD0022D4E9000101F07DF8F8E730
:101E300010B50446606820B10120616801F05FF8C8
:101E400010BD012001F04AF8FAE7F8B504460D4646
:101E5000606880B1012D08D1032000900022114656
:101E60000120636801F08DF8F8BD294628466268B4
:101E700001F002F8F8E7012D0ED103220021012024
:101E800001F052F806462EB100231A461946304694
:101E900001F034F93046E7E72946284600F0BEFF56
:101EA000E2E710B50446204600F086FC10BD0000B5
:101EB00038B50446002500200090FFF769FF90B177
:101EC0006946204601F0EEF9012801D0FF2038BD17
:101ED000009888B14FF0805008490860BFF34F8FD9
:101EE000BFF36F8F08E000231A461946204601F021
:101EF00005F9012800D0FF252846E8E704ED00E0B9
:101F0000F8B506460C46002000900EB98020F8BDBA
:101F10000025601C08B96D1E03E014B1254605B903
:101F20000125FFF735FF98B16A460021304601F0E0
:101F300029FA012801D0FF20E9E7009880B14FF08D
:101F4000805008490860BFF34F8FBFF36F8F07E0E1
:101F50002946304601F07CFA012801D0FF20D6E75F
:101F60000020D4E704ED00E07FB504460D4660692B
:101F700098B1A06988B1B4F90800FFF72DFF0646B3
:101F8000D4E90510CDE9006102902B462269D4E91D
:101F9000001001F0B1FB039013E0B4F90800FFF763
:101FA0001BFF064603A8CDE90060238A9AB22B46A0
:101FB000D4E9001001F06EFB012802D0002004B02B
:101FC00070BD0398FBE700002DE9F04105460E4681
:101FD0001C4807681C480068001D00F0D9FB50B978
:101FE0001948006890F82C100120884017490968AA
:101FF000814316480160681C38B936B1124801683F
:10200000091D134800F024FC1AE07C190E480068F2
:102010004460BC4207D20C480168091D0D480068A5
:1020200000F0FCFB0CE008480168091D0A48006844
:1020300000F0F4FB09480068844201D207480460BC
:10204000BDE8F0815400002040000020580000202E
:102050006C04002048000020440000207000002094
:1020600010B5044600F000FC23480068401C2249DB
:1020700008602248006840B92048046008460068AB
:1020800001280DD100F0BEF90AE01D48006838B9FA
:102090001A480068C06AE16A884201D8174804609B
:1020A00018480068401C1749086094F82C1001205B
:1020B000884015490968084313490860E16A01EB43
:1020C0008101124A02EB8100211D00F0C1FB00F0EA
:1020D000F5FB0B48006868B108480068C06AE16A0F
:1020E000884207D24FF0805009490860BFF34F8FF4
:1020F000BFF36F8F10BD0000500000204000002093
:102100005C0000206C00002058000020900300209C
:1021100004ED00E010B516E000F0A6FB0C48C06826
:10212000C468201D00F034FB0A480068401E0949BD
:10213000086009480068401E0749086000F0BEFBBF
:10214000204600F05FF8044800680028E4D110BD84
:1021500058040020500000204C00002070B50446B8
:102160000D46206C70B1216CE0680144E160D4E957
:102170000210884201D32168E1602846226CE168A0
:10218000FEF71EF870BD2DE9F04104460F461546D6
:102190004FF00008A66B206C48B9206800282CD1AD
:1021A000A06801F0BBFB80460020A06025E07DB95F
:1021B0003946226C6068FEF703F8216C60680844B9
:1021C0006060D4E90101884217D32068606014E0A0
:1021D0003946226CE068FDF7F3FF216CE068411A94
:1021E000E1602168E068884203D2216CA068411A4E
:1021F000E160022D01D106B1761E701CA06340463D
:10220000BDE8F08110B5044694F8510030B9206B58
:1022100000F072FB204600F06FFB1AE094F85100CA
:10222000012803D1204600F067FB12E094F851002A
:10223000022801D1012000E0002050B900BF502049
:1022400080F31188BFF34F8FBFF36F8F00BF00BFC4
:10225000FEE710BD01464A6A22B10A6B1268C2F15C
:10226000070000E00020704730B54FF48053174856
:1022700000F007042CB1C01D20F00700134C041B14
:102280001B1B0246124C22600024114D6C60D018BA
:10229000083820F007000F4C206000240D4D2D68F9
:1022A0006C600C4D2D682C601146441A4C60094C32
:1022B00024680C60084D4C682C60084D4C682C60FC
:1022C0004FF00044064D2C6030BD0000800400201B
:1022D0007C000020840000208C000020880000206A
:1022E0009800002000BFFFF715FF0648006801288E
:1022F000F9D94FF0805004490860BFF34F8FBFF306
:102300006F8FF0E79003002004ED00E010B5044665
:1023100054B10020A06020600021E16000231A4633
:102320001946204600F0EAFE10BD2DE9F0410646B0
:102330000D4617469846069C0DB9246000E02760BC
:10234000E66325640121204600F08CFEBDE8F081A3
:102350002DE9FF5F81460E469246DDE90E7B109C1B
:10236000AAF10100216B01EB800828F0070808F0B2
:10237000070008B9012000E0002050B900BF50203C
:1023800080F31188BFF34F8FBFF36F8F00BF00BF83
:10239000FEE786B1002507E0715D04F13400415588
:1023A000705D00B902E06D1C102DF5D300BF002157
:1023B0004320015502E0002084F83400072F00D3A9
:1023C0000627E76267640020A064201D00F023FA5E
:1023D00004F1180000F01FFA2461C7F10700A061A2
:1023E00064620020E06484F8500049464046039A45
:1023F00000F0BCF92060BBF1000F01D0CBF8004029
:10240000BDE8FF9F10B5002407E004EB84010F4AEC
:1024100002EB810000F0F2F9641C072CF5D30C48A4
:1024200000F0ECF90B4800F0E9F90B4800F0E6F990
:102430000A4800F0E3F90A4800F0E0F904480949C5
:10244000086004480849086010BD0000900300209F
:102450001C04002030040020440400205804002004
:102460006C040020440000204800002010B5014604
:10247000164800E0006803688B42FBD302464368BD
:1024800013448B4204D143684C68234443600146A3
:102490000A464B6813440468A34211D10C4C0368EC
:1024A0002468A34208D04B680468646823444B60E6
:1024B00003681B680B6005E0054B1B680B6001E0BF
:1024C00003680B60884200D0016010BD7C000020D2
:1024D0008400002070B5054600F0C6F9A86B08B965
:1024E000012400E0002400F0E9F9204670BD70B539
:1024F000054600F0B9F9A86BE96B884201D10124C7
:1025000000E0002400F0DAF9204670BD0A490968AD
:10251000096809B9012100E0002121B14FF0FF3124
:10252000064A116006E004490968C968C868034A98
:1025300041681160704700004400002070000020D6
:102540000E480068401C08B9012000E0002050B986
:1025500000BF502080F31188BFF34F8FBFF36F8F00
:1025600000BF00BFFEE700BF502080F31188BFF31B
:102570004F8FBFF36F8F00BF00BFFEE79C000020AE
:1025800070B5044600F070F994F9455010E0606AA7
:1025900008B9012000E0002038B904F1240001F05E
:1025A0007DFA18B100F084FA00E003E0681E45B23D
:1025B000002DECDC00BFFF2084F8450000F07EF920
:1025C00000F052F994F9445010E0206908B9012054
:1025D00000E0002048B904F1100001F05FFA08B1F2
:1025E00000F066FA681E45B200E001E0002DECDC68
:1025F00000BFFF2084F8440000F060F970BD0000C7
:102600002DE9F04104464FF0000800F03DFB494839
:10261000006808B9FFF728FE4748006820400028F6
:1026200070D1D4B1083404F00700B0B104F0070051
:10263000C0F10800044404F0070008B9012000E0DC
:10264000002050B900BF502080F31188BFF34F8F96
:10265000BFF36F8F00BF00BFFEE7002C52D037489A
:10266000006884424ED8364E3046056801E02E465A
:102670002D686868A04202D228680028F7D12D484A
:10268000006885423ED0306800F108082868306054
:102690006868001B102819D92F1907F0070008B91E
:1026A000012000E0002050B900BF502080F31188C5
:1026B000BFF34F8FBFF36F8F00BF00BFFEE76868A7
:1026C000001B78606C603846FFF7D0FE1B496868D5
:1026D0000968081A19490860084600681949096814
:1026E000884203D215480068164908601249686894
:1026F0000968084368600020286013480068401C8F
:102700001149086001F016FA08F0070008B9012025
:1027100000E0002050B900BF502080F31188BFF3C3
:102720004F8FBFF36F8F00BF00BFFEE74046BDE88D
:10273000F081000084000020980000208800002024
:102740007C0000208C0000209000002006480068DB
:1027500030B10549096801F14800896C491C0160E4
:10276000014800687047000040000020001F4FF043
:1027700080730360001F21F001030360001F034BFF
:1027800003601438026020387047000041250008BB
:1027900001460A69D1E901309860D1E90103586026
:1027A0005068884201D18868506000200861106834
:1027B000401E10601068704770B5044654B900BFE1
:1027C000502080F31188BFF34F8FBFF36F8F00BF8E
:1027D00000BFFEE700F048F8A56B00F06FF8284650
:1027E00070BD0000034B0360034B0B60802313603C
:1027F00070470000AC0000200001002000F108013B
:1028000041604FF0FF31816000F10801C16001615A
:1028100000210160704700210161704710B5024638
:102820000B685C1C0CB9106907E002F1080000E0BD
:102830004068446824689C42FAD944684C604C68FB
:10284000A160886041600A611468641C146010BD56
:1028500042684A6093688B60936859609160086130
:1028600003685B1C0360704700BF502080F3118831
:10287000BFF34F8FBFF36F8F00BF0E480068401C3F
:102880000C49086008460068012812D10A4800680F
:10289000C0B208B9012000E0002050B900BF5020AC
:1028A00080F31188BFF34F8FBFF36F8F00BF00BF5E
:1028B000FEE770479C00002004ED00E00D48006832
:1028C00050B900BF502080F31188BFF34F8FBFF382
:1028D0006F8F00BF00BFFEE706480068401E054935
:1028E00008600846006820B9002080F3118800BF06
:1028F00000BF70479C00002070B506463546002E8C
:1029000044D0083D2C46224960680968084008B157
:10291000012000E0002050B900BF502080F3118852
:10292000BFF34F8FBFF36F8F00BF00BFFEE720687C
:1029300008B9012000E0002050B900BF502080F30A
:102940001188BFF34F8FBFF36F8F00BF00BFFEE74B
:102950000F49606809680840C0B12068B0B90C49E7
:10296000606809688843606000F08EF90949606812
:1029700009680844074908602046FFF777FD0648C4
:102980000068401C0449086001F0D4F870BD0000E4
:1029900098000020880000209400002000204FF0C4
:1029A000E02108618861064800684FF47A71B0FB45
:1029B000F1F0401E4FF0E0214861072008617047A8
:1029C0003C00002070B5FDF7E5FB0446102C16D343
:1029D00004F1E02090F8F05315480078854201DBBF
:1029E000012000E0002050B900BF502080F3118882
:1029F000BFF34F8FBFF36F8F00BF00BFFEE70D48DF
:102A0000006800F4E0600C490968884201D80120A0
:102A100000E0002050B900BF502080F31188BFF3C0
:102A20004F8FBFF36F8F00BF00BFFEE770BD000088
:102A3000A00000200CED00E0A400002070B50446CA
:102A40000025D4B11248006808B9012000E0002038
:102A500050B900BF502080F31188BFF34F8FBFF3F0
:102A60006F8F00BF00BFFEE700F00EF90021204687
:102A7000FFF7AAFA01F05EF805463DB94FF0805025
:102A800004490860BFF34F8FBFF36F8F70BD000024
:102A90007800002004ED00E0034909680160034963
:102AA0000968416070470000680000205400002061
:102AB00001200149086070476400002070B5044699
:102AC0000D4654B900BF502080F31188BFF34F8FDB
:102AD000BFF36F8F00BF00BFFEE7054801681831E4
:102AE0002046FFF79BFE01212846FFF76DFA70BDD7
:102AF000400000202DE9F04706460F4634464FF0CF
:102B00000109002E60D0A06C50B900BF502080F3A6
:102B10001188BFF34F8FBFF36F8F00BF00BFFEE779
:102B2000606CB84201D23D4600E0656CE06AA842A4
:102B30004AD0A06C012847D124480068844201D0C3
:102B4000012000E0002050B900BF502080F3118820
:102B5000BFF34F8FBFF36F8F00BF00BFFEE7D4F806
:102B60002C80E562A06900F0004010B9C5F10700B3
:102B7000A06108EB8801164A02EB81016069884276
:102B800001D1012000E00020F0B1201DFFF700FE80
:102B900040B994F82C10012088400E4909688143FF
:102BA0000C48016094F82C100120884009490968FC
:102BB000084308490860E16A01EB8101044A02EB1D
:102BC0008100211DFFF744FEBDE8F0874000002092
:102BD000900300205800002010B586B0002005901A
:102BE000049003AA04A905A8FFF7FCFD0022DDE973
:102BF00004101346CDE9002102901CA11D48039A40
:102C000000F07AFD1C4908600846006808B10124FC
:102C100000E00024012C15D100BF502080F3118862
:102C2000BFF34F8FBFF36F8F00BF4FF0FF301349DB
:102C3000086001201249086000201249086000F075
:102C400071F810E0601C08B1012000E0002050B9CC
:102C500000BF502080F31188BFF34F8FBFF36F8FF9
:102C600000BF00BFFEE706B010BD000049444C4560
:102C700000000000E5220008740000207000002021
:102C80005C0000205400002002480068401C0149FC
:102C900008607047780000201D48006818B10120C6
:102CA0001C49086032E000201A4908601A48006890
:102CB000B0FA80F0C0F11F0101EB8100174A52F811
:102CC000200008B1012000E0002050B900BF5020D2
:102CD00080F31188BFF34F8FBFF36F8F00BF00BF2A
:102CE000FEE701EB81020D4B03EB82004268526864
:102CF000426000F108024368934202D14268526880
:102D000042604268D268064B1A6000BF70470000FC
:102D1000780000206400002058000020900300206C
:102D2000400000201CB53849084600780190FF207B
:102D30000A4610700846007800909DF8000000F0E8
:102D4000F0009DF80020904201D1012000E0002019
:102D500050B900BF502080F31188BFF34F8FBFF3ED
:102D60006F8F00BF00BFFEE79DF8000000F050002D
:102D7000264A10700720264A106009E0244800689F
:102D8000401E234A10609DF800004006000E00908F
:102D90009DF8000000F080008028EFD01C480068FB
:102DA000C0F10700042801D1012000E0002050B943
:102DB00000BF502080F31188BFF34F8FBFF36F8F98
:102DC00000BF00BFFEE7124800680002104A106012
:102DD0001046008800F4E06010600B4A0198107003
:102DE0000C48006840F470000A4908600846006812
:102DF00040F070400860FFF7D1FD002006490860F0
:102E0000FDF792F900201CBD00E400E0A0000020C6
:102E1000A400002020ED00E09C00002070B50546D5
:102E20000E460DB1012000E0002050B900BF502037
:102E300080F31188BFF34F8FBFF36F8F00BF00BFC8
:102E4000FEE7AE4201D8012000E0002050B900BFEB
:102E5000502080F31188BFF34F8FBFF36F8F00BFF7
:102E600000BFFEE702220021284600F05DF804467C
:102E700004B1A663204670BDF8B505460E46174658
:102E80000DB1012000E0002050B900BF502080F3B8
:102E90001188BFF34F8FBFF36F8F00BF00BFFEE7F6
:102EA000AE4201D8012000E0002050B900BF502000
:102EB00080F31188BFF34F8FBFF36F8F00BF00BF48
:102EC000FEE702203B46002211460090284600F013
:102ED00058F8044604B1A6632046F8BD2DE9F04138
:102EE00004460126002722460021012000F01CF89C
:102EF00005462846FFF70AFA2846BDE8F0812DE985
:102F0000F84304460D4601274FF000082B460022E7
:102F100011460120009400F034F806463046FFF7D1
:102F2000F5F93046BDE8F8832DE9F84305460E462D
:102F300017460DB1012000E0002050B900BF50201D
:102F400080F31188BFF34F8FBFF36F8F00BF00BFB7
:102F5000FEE705FB06F808F14800FFF751FB0446C1
:102F600064B1A14609F14809002084F846003B46B7
:102F70004A46314628460094FFF7D7F92046BDE877
:102F8000F8832DE9F84380460E4617461D46DDF8C6
:102F90002090B8F1000F01D0012000E0002050B9CE
:102FA00000BF502080F31188BFF34F8FBFF36F8FA6
:102FB00000BF00BFFEE70DB1012000E0002050B9C6
:102FC00000BF502080F31188BFF34F8FBFF36F8F86
:102FD00000BF00BFFEE707B10EB1012000E00020F6
:102FE00050B900BF502080F31188BFF34F8FBFF35B
:102FF0006F8F00BF00BFFEE707B90EB9012000E0E8
:10300000002050B900BF502080F31188BFF34F8FCC
:10301000BFF36F8F00BF00BFFEE74820009000980D
:10302000482801D1012000E0002050B900BF502005
:1030300080F31188BFF34F8FBFF36F8F00BF00BFC6
:10304000FEE700BF2C464CB1012084F846004B46F9
:103050003A46314640460094FFF767F92046BDE8FE
:10306000F883000070B505460E462C4654B900BFE3
:10307000502080F31188BFF34F8FBFF36F8F00BFD5
:1030800000BFFEE7FFF7F0FBD4E90F12206801FB59
:103090000200A0600020A06320686060E06B401E1A
:1030A000226C216800FB0211E160FF2084F84400DB
:1030B00084F845009EB9206908B9012000E000208D
:1030C000A8B904F1100000F0E9FC80B14FF0805085
:1030D00009490860BFF34F8FBFF36F8F07E004F11A
:1030E0001000FFF78BFB04F12400FFF787FBFFF7CD
:1030F000E5FB012070BD000004ED00E02DE9FF4379
:1031000083B0064688461D464FF00009344654B940
:1031100000BF502080F31188BFF34F8FBFF36F8F34
:1031200000BF00BFFEE7B8F1000F01D1206C08B965
:10313000012000E0002050B900BF502080F311882A
:10314000BFF34F8FBFF36F8F00BF00BFFEE7022DAD
:1031500002D1E06B012801D1012000E0002050B92C
:1031600000BF502080F31188BFF34F8FBFF36F8FE4
:1031700000BF00BFFEE700F01DFB08B9059808B9C5
:10318000012000E0002050B900BF502080F31188DA
:10319000BFF34F8FBFF36F8F00BF00BFFEE700BFCD
:1031A000FFF762FBA06BE16B884201D3022D28D1AF
:1031B0002A4641462046FEF7E6FF0746606A08B900
:1031C000012000E0002068B904F1240000F066FC52
:1031D00088B14FF0805032490860BFF34F8FBFF382
:1031E0006F8F08E03FB14FF080502D490860BFF36A
:1031F0004F8FBFF36F8FFFF761FB012007B0BDE872
:10320000F083059818B9FFF759FB0020F6E7B9F1EC
:10321000000F04D101A8FFF73FFC4FF00109FFF7B1
:103220004DFBFFF731FDFFF71FFB94F94400401CF5
:1032300010B9002084F8440094F94500401C10B9EE
:10324000002084F84500FFF739FB05A901A800F02C
:10325000DBF9F0B92046FFF74AF9A0B104F11000FC
:103260000599FFF72BFC2046FFF78AF900F062FC76
:10327000002895D14FF0805009490860BFF34F8F67
:10328000BFF36F8F8CE72046FFF77AF900F052FC0E
:1032900086E72046FFF774F900F04CFC0020ADE70C
:1032A00004ED00E02DE9F04706460F46344654B9D8
:1032B00000BF502080F31188BFF34F8FBFF36F8F93
:1032C00000BF00BFFEE7206C08B9012000E000202D
:1032D00050B900BF502080F31188BFF34F8FBFF368
:1032E0006F8F00BF00BFFEE7206808B9A06808B96B
:1032F000012000E0002050B900BF502080F3118869
:10330000BFF34F8FBFF36F8F00BF00BFFEE7FFF724
:1033100059FB00BF5021EFF3118081F31188BFF3F7
:103320004F8FBFF36F8F00BF0546D4F83890E06B26
:1033300048451ED994F945A009F10100A0630AF19E
:10334000010070B9606A08B9012000E0002068B986
:1033500004F1240000F0A2FB40B13FB1012038602D
:1033600004E00AF1010040B284F845004FF0010882
:1033700001E04FF0000800BF85F3118800BF404610
:10338000BDE8F0872DE9F05F0646894617463446CA
:1033900054B900BF502080F31188BFF34F8FBFF3A3
:1033A0006F8F00BF00BFFEE7B9F1000F01D1206CA5
:1033B00008B9012000E0002050B900BF502080F380
:1033C0001188BFF34F8FBFF36F8F00BF00BFFEE7C1
:1033D000FFF7F8FA00BF5021EFF3118081F3118855
:1033E000BFF34F8FBFF36F8F00BF0546D4F838A0EF
:1033F000BAF1000F22D094F944B049462046FEF7B6
:10340000ADFEAAF10100A0630BF1010070B92069C3
:1034100008B9012000E0002068B904F1100000F0B4
:103420003DFB40B13FB10120386004E00BF10100E9
:1034300040B284F844004FF0010801E04FF000086A
:1034400000BF85F3118800BF4046BDE8F09F000033
:103450002DE9F34182B005464FF000082C460026C6
:1034600054B900BF502080F31188BFF34F8FBFF3D2
:103470006F8F00BF00BFFEE7206C08B9012000E09D
:10348000002050B900BF502080F31188BFF34F8F48
:10349000BFF36F8F00BF00BFFEE700F08BF908B9E4
:1034A000039808B9012000E0002050B900BF502067
:1034B00080F31188BFF34F8FBFF36F8F00BF00BF42
:1034C000FEE700BFFFF7D0F9A76BFFB1781EA0633E
:1034D000206810B9FFF73AF9A060206908B9012007
:1034E00000E0002060B904F1100000F0D7FA38B114
:1034F0004FF0805043490860BFF34F8FBFF36F8F89
:10350000FFF7DCF9012004B0BDE8F081039898B919
:103510000EB9012000E0002050B900BF502080F318
:103520001188BFF34F8FBFF36F8F00BF00BFFEE75F
:10353000FFF7C4F90020E6E7B8F1000F04D16846B0
:10354000FFF7AAFA4FF00108FFF7B8F9FFF79CFB65
:10355000FFF78AF994F94400401C10B9002084F860
:10356000440094F94500401C10B9002084F845003F
:10357000FFF7A4F903A9684600F046F840BB2046CF
:10358000FEF7A8FFF0B1206838B9FFF76DF9A06821
:1035900000F028FA0646FFF791F904F12400039998
:1035A000FFF78CFA2046FEF7EBFF00F0C3FA002885
:1035B00088D14FF0805013490860BFF34F8FBFF39D
:1035C0006F8F7FE72046FEF7DBFF00F0B3FA79E765
:1035D0002046FEF7D5FF00F0ADFA2046FEF77AFF51
:1035E0000028EED05EB1FFF73FF92046FEF732FE2D
:1035F00007463946A068FFF77DFAFFF75FF900201C
:1036000081E7000004ED00E070B505460C4655B9B1
:1036100000BF502080F31188BFF34F8FBFF36F8F2F
:1036200000BF00BFFEE754B900BF502080F31188EF
:10363000BFF34F8FBFF36F8F00BF00BFFEE7FFF7F1
:1036400013F9124802686868131A2068401C08B908
:10365000002617E00E4928680968884204D0686887
:10366000904201D801260DE02068984207D92068D1
:10367000C01A20602846FFF70FFA002602E000205B
:1036800020600126FFF71AF9304670BD5400002073
:10369000680000202DE9FF4F85B080468946174617
:1036A000DDE912ABB800FEF7ABFF064656B1542079
:1036B000FEF7A6FF04460CB1266304E03046FFF790
:1036C0001BF900E000248CB1002084F85100CDE902
:1036D00000ABCDE902403A4649464046089BFEF71A
:1036E00037FE2046FEF7BCFC012501E04FF0FF3518
:1036F000284609B0BDE8F08F2DE9F04F85B00746A8
:10370000884691469A46DDE90EB6109C0EB101201E
:1037100000E0002050B900BF502080F31188BFF3B3
:103720004F8FBFF36F8F00BF00BFFEE70CB10120CA
:1037300000E0002050B900BF502080F31188BFF393
:103740004F8FBFF36F8F00BF00BFFEE75420039081
:103750000398542801D1012000E0002050B900BF97
:10376000502080F31188BFF34F8FBFF36F8F00BFDE
:1037700000BFFEE700BFB4B1AEB125462C462E63B4
:10378000022085F85100002004A953464A46CDE99D
:1037900000B1CDE9025041463846FEF7D9FD284632
:1037A000FEF75EFC01E000200490049805B0BDE83F
:1037B000F08F00000549096809B9012005E00449B6
:1037C000096809B9022000E0002070475C00002071
:1037D000780000202DE9F0414FF0000844480068CF
:1037E00000287CD143480068451C4248056015BB51
:1037F00041480068006808B9012000E0002050B985
:1038000000BF502080F31188BFF34F8FBFF36F8F3D
:1038100000BF00BFFEE738480768384800683649EF
:1038200008603648076036480068401C3449086024
:10383000FEF76CFE00BF3348006885423CD300BFF2
:103840002D480068006808B9012000E0002020B180
:103850004FF0FF302B4908602DE027480068C06812
:10386000C4686668B54202D22648066023E0201D7F
:10387000FEF78EFFA06A18B104F11800FEF788FF6A
:1038800094F82C10012088401F49096808431E49FC
:103890000860E16A01EB81011C4A02EB8100211DF5
:1038A000FEF7D6FF1A49E06A0968C96A8842C7D399
:1038B0004FF00108C4E700BF15480068C06A00EB7C
:1038C0008000124951F82000012801D94FF0010869
:1038D0001048006808B14FF0010805E0FFE70E4806
:1038E0000068401C0C4908604046BDE8F0810000BB
:1038F00078000020540000204400002048000020F0
:103900006800002070000020580000209003002074
:1039100040000020640000206000002070B50546D3
:103920002C460026002D55D02B480068844201D13A
:10393000012000E0002050B900BF502080F3118822
:10394000BFF34F8FBFF36F8F00BF00BFFEE7A06CC8
:1039500050B900BF502080F31188BFF34F8FBFF3E1
:103960006F8F00BF00BFFEE7A06C401EA064616CBB
:10397000E06A88422ED0A06C60BB201DFEF708FFD5
:1039800078B9E06A00EB8000144951F8200040B992
:1039900094F82C100120884011490968814310488F
:1039A0000160606CE062E06AC0F10700A06194F819
:1039B0002C10012088400A4909680843084908601A
:1039C000E16A01EB8101054A02EB8100211DFEF74E
:1039D0003FFF0126304670BD4000002090030020CC
:1039E0005800002070B505462C460026002D4DD00D
:1039F0002749E06A0968C96A884240D2A06900F094
:103A0000004028B922480068C06AC0F10700A061E0
:103A1000E16A01EB81011F4A02EB81016069884282
:103A200001D1012000E0002018B3201DFEF7B0FEF8
:103A300040B994F82C100120884017490968814347
:103A40001548016012480068C06AE06294F82C10C2
:103A5000012088401049096808430F490860E16A5D
:103A600001EB81010B4A02EB8100211DFEF7F0FE04
:103A700003E007480068C06AE062012606E00449E6
:103A8000606C0968C96A884200D20126304670BD60
:103A900040000020900300205800002070B506462A
:103AA000F068C46854B900BF502080F31188BFF398
:103AB0004F8FBFF36F8F00BF00BFFEE704F1180008
:103AC000FEF766FE15480068A8B9201DFEF760FEE7
:103AD00094F82C10012088401149096808431049C6
:103AE0000860E16A01EB81010E4A02EB8100211DB1
:103AF000FEF7AEFE04E004F118010B48FEF7A8FE45
:103B00000A49E06A0968C96A884204D90125012086
:103B10000749086000E00025284670BD78000020B5
:103B200058000020900300204404002040000020A2
:103B30006400002070B5002400263648006850B9A3
:103B400000BF502080F31188BFF34F8FBFF36F8FFA
:103B500000BF00BFFEE7FEF787FE2E480068401E4C
:103B60002C4908600846006800284FD12A480068A0
:103B700000284BD024E02948C068C46804F118002C
:103B8000FEF706FE201DFEF703FE94F82C10012020
:103B9000884023490968084321490860E16A01EB2C
:103BA0008101204A02EB8100211DFEF751FE1E49D2
:103BB000E06A0968C96A884202D301201B4908608B
:103BC0001648006808B9012000E000200028D2D083
:103BD0000CB1FEF79BFC1648056865B100BFFFF706
:103BE000F9FD10B10120114908606D1E002DF6D1BC
:103BF00000200F4908600D48006838B101263007E1
:103C00000C490860BFF34F8FBFF36F8FFEF756FE6E
:103C1000304670BD78000020500000204404002091
:103C20005800002090030020400000206400002085
:103C30006000002004ED00E0100000000200000021
:103C40000000000000000000100000000200000062
:103C50000000000000000000E03C000875180008AB
:103C600000000000000000008000000000000000D4
:103C700000000000DC3C0008D1170008FDFF000038
:103C800000000000800000000000000000000000B4
:103C9000D83C0008C5020008FDFF0000000000003D
:103CA0008000000000000000000000000203040586
:103CB000060708090A0B0C0D0E0F10100102000078
:103CC00000000000000001020304060708090000CC
:103CD0000000010203040000474554005055540001
:103CE00064656661756C745461736B000C3D00080B
:103CF00000000020AC000000001C0008B83D0008D7
:103D0000AC000020D4170000101C000800000000C8
:103D100000000000000000000000000000000000A3
:103D20000000000000000000000000000000000093
:103D30000000000000000000000000000000000083
:103D4000100000000100000000127A0000000000D6
:103D50000000000000000000000000000000000063
:103D60000000000000000000000000000000000053
:103D70000000000000000000000000000000000043
:103D80000000000000000000000000000000000033
:103D90000000000000000000000000000000000023
:103DA0000000000000000000AAAAAAAA000000006B
:083DB00000000000000000000B
:04000005080000ED02
:00000001FF
