:020000040800F2
:10000000201E00209D010008D114000841100008A6
:10001000E9120008CF0200086B170008000000007A
:1000200000000000000000000000000005010008C2
:10003000D10200080000000049010008DD1400089A
:10004000B7010008B7010008B7010008B7010008B0
:10005000B7010008B7010008B7010008B7010008A0
:10006000B7010008B7010008B7010008B701000890
:10007000B7010008B7010008B7010008B701000880
:10008000B7010008B7010008B7010008B701000870
:10009000B7010008B7010008B7010008F90200081D
:1000A000B701000869150008B7010008B70100088A
:1000B000B7010008B7010008B7010008B701000840
:1000C000B7010008B7010008B7010008B701000830
:1000D000B7010008B7010008B7010008B701000820
:1000E000D3020008B7010008B7010008DFF810D0FC
:1000F00000F0CCF800480047E51A0008AFF3008094
:10010000201E0020224B19680868B0E8F00F80F329
:100110000988BFF36F8F4FF0000080F311884EF015
:100120000D0E70470000000006480068006880F36C
:10013000088862B661B6BFF34F8FBFF36F8F00DFE1
:1001400000BF00BF08ED00E0EFF30980BFF36F8F41
:100150000F4B1A6820E9F00F106008B54FF05000FF
:1001600080F31188BFF34F8FBFF36F8F02F086FCCF
:100170004FF0000080F31188BDE808401968086856
:10018000B0E8F00F80F30988BFF36F8F704700BFAE
:100190004C000020EFF305807047000006488047C0
:1001A00006480047FEE7FEE7FEE7FEE7FEE7FEE75C
:1001B000FEE7FEE7FEE7FEE767150008ED00000832
:1001C000202A04DB203A21FA02F00021704721FAAC
:1001D00002F3D040C2F12002914008431946704713
:1001E00040EA01039B0703D009E008C9121F08C0B9
:1001F000042AFAD203E011F8013B00F8013B521E39
:10020000F9D27047D2B201E000F8012B491EFBD2AF
:1002100070470022F6E710B513460A460446194611
:10022000FFF7F0FF204610BD2DE9F05F05460020E6
:1002300092469B4688460646814640241BE0284657
:10024000414647462246FFF7BBFF53465A46C01A6F
:10025000914110D311461846224600F029F82D1A74
:1002600067EB01084F4622460120002100F020F8EC
:1002700017EB00094E41201EA4F10104DFDC4846C3
:1002800031462A464346BDE8F09F0000064C074D24
:1002900006E0E06840F0010394E807009847103456
:1002A000AC42F6D3FFF726FF58390008783900082A
:1002B000202A04DB203A00FA02F100207047914026
:1002C000C2F1200320FA03F3194390407047FEE780
:1002D000704710B54FF4805000F094F84FF4005080
:1002E00000F090F84FF4804000F08CF8BDE810402A
:1002F0004FF4004000F086B810B5202000F082F8DE
:10030000BDE810404FF4807000F07CB872B6FEE794
:100310001B4930B40B681B4A14681B1BC82B2DD318
:10032000096811601849B0F5005F13D0B0F5804F2F
:1003300014D0202816D0B0F5004F17D0B0F5805F4C
:1003400018D0B0F5807F19D1062008700FA030BCFE
:1003500001F00CBA0120087011A0F8E70220087023
:1003600014A0F4E70320087017A0F0E70420087039
:100370001AA0ECE7052008701DA0E8E730BC704724
:100380004400002038000020000000204B65792048
:10039000455343202020507265737365640A000042
:1003A0004B65792055702020205072657373656409
:1003B0000A0000004B657920446F776E205072650B
:1003C000737365640A0000004B6579204C656674A0
:1003D00020507265737365640A0000004B657920D4
:1003E000526967687420507265737365640A00000F
:1003F0004B6579204F4B2020202050726573736528
:10040000640A0000044910B50A68024202D008607C
:10041000FFF77EFF10BD0000140401402DE9F84FE6
:10042000DFF8B8910024A9F1040B23460F2709F146
:10043000040AABF1040EC9E00125A5402A40AA42F6
:100440007DD1674ED1F804C0ACEB0608B44532D07C
:1004500014DCBCF1030F3AD009DCBCF1000F2AD048
:10046000BCF1010F1CD0BCF1020F31D11DE0BCF179
:10047000110F17D0BCF1120F2AD119E0B8F5881F5F
:1004800019D006DCB8F5803F15D0B8F5801F1FD114
:1004900011E0B8F5001F0ED0B8F5041F18D10AE01E
:1004A000CB6815E0CB681B1D12E0CB6808330FE06A
:1004B000CB680C330CE08B682BB1012B4FF0080399
:1004C00003D0456104E0042302E0056100E000235D
:1004D000FF2A01D8064601E000F104064FEA840530
:1004E00001D9A5F12005D6F8008007FA05FC28EA15
:1004F0000C0803FA05F548EA0508C6F800804D68BF
:10050000ED0062D5374DAE6946F00106AE61AD69CA
:1005100024F0030605F001050095334D06EB050CAC
:10052000DCF80850A607360F07FA06F825EA080592
:10053000DFF8B880404503D14FF0000817E044E0F1
:10054000DFF8AC80404502D14FF001080FE0DFF842
:10055000A480404502D14FF0020808E0DFF89880FF
:10056000404502D14FF0030801E04FF0040808FABB
:1005700006F848EA0508CCF808804D68D9F800600C
:10058000ED024D4601D5164300E096432E604D68BE
:10059000DAF80060AD02554601D5164300E09643F7
:1005A0002E604D68DBF80060AD035D4601D5164353
:1005B00000E096432E604D68DEF80060ED0375465E
:1005C00001D5164300E096432E60641C0D682A4650
:1005D000E5407FF431AFBDE8F88F0000080401402A
:1005E000000011100010024000000140000801400E
:1005F000000C01400010014000140140C26821EAD3
:1006000002030A4043EA0241016170470AB10161F5
:1006100070470904FBE7000001488068704700004C
:100620003C000020024881680278114481607047D4
:100630003C000020074810B5016841F0100101603E
:10064000032000F0A1F80F2000F006F800F04AF8AF
:10065000002010BD0020024030B505461C4887B080
:10066000816941F400618161806906A900F400603C
:10067000009001A800F030F900F05EF91549164A23
:10068000B0FBF1F11548491E0260416040F2E732CB
:100690000021C0E903218160816100F015FB0400A5
:1006A00012D10E4800F03EFB04000DD1192000F0DD
:1006B0003DF8102D07D200222946192000F044F8F9
:1006C0000748056000E0012407B0204630BD000067
:1006D0000010024040420F00002C0140BC070020E7
:1006E000400000200F4808B5816941F00101816197
:1006F000816901F001010091C16941F08051C1613E
:10070000C069002200F0805000900F21901E00F080
:100710001BF80548416821F0E06141F0007141603B
:1007200008BD00000010024000000140002809DB65
:1007300000F01F02012191404009800000F1E020FB
:10074000C0F8001170470000F0B40E4B1B680C4657
:10075000C3F30223C3F10705042D00D90425191D95
:10076000072901D2002300E0DB1E012606FA05F16D
:10077000491E214099409E40761E16403143F0BCF0
:1007800001F018B80CED00E0064900F00702086817
:100790004FF6FF03184040EA0220034A1043086066
:1007A000704700000CED00E00000FA052DE9F0476D
:1007B0000F46050061D0434E306800F00700B84294
:1007C00009D2306820F0070038433060306800F00C
:1007D0000700B84251D128683B4C810712D5400729
:1007E00003D5606840F4E06060602878000703D5B6
:1007F000606840F4605060606068A96820F0F000B4
:10080000084360602878C00728D06868012810D0A5
:100810002168022810D0890700292EDA616821F0AA
:10082000030101436160FFF7F7FE804641F288391A
:100830000DE021688903EFE78901EDE7FFF7ECFEA2
:10084000A0EB0801494502D90320BDE8F0876068A4
:10085000696800F00C00B0EB810FEFD1306800F058
:100860000700B8420BD9306820F0070038433060E9
:10087000306800F00700B84201D00120E5E7287891
:10088000400705D56068E96820F4E06008436060CF
:100890002878000706D56068296920F4605040EA8E
:1008A000C100606000F058F86168084AC1F30311A4
:1008B000515CC8400649086006480068FFF7CCFE56
:1008C0000020C2E700200240001002401E3900084C
:1008D00048000020400000200F2202600C4A5368AC
:1008E00003F003034360536803F0F003836053682D
:1008F00003F4E063C36052684FF4E06303EAD2029A
:1009000002610448006800F00700086070470000BA
:100910000010024000200240044805490068496870
:10092000044AC1F30221515CC840704748000020CE
:10093000001002402E390008044805490068496843
:10094000044AC1F3C221515CC840704748000020EE
:10095000001002402E3900080E4A51680E4801F07E
:100960000C03042B11D0082B0FD10C48C1F3834387
:10097000C903C05C0AD55168084AC1F34041921EC0
:10098000515C054A5043B0FBF1F0704704494843BD
:10099000704700000010024000127A000E39000873
:1009A00000093D002DE9F84F040070D02078C04DBB
:1009B000C00749D06868C0F38100012807D0686883
:1009C000C0F38100022809D16868C00306D52868F1
:1009D000800339D560680028E7D035E06068B0F55D
:1009E000803F0BD010B1B0F5A02F11D0286820F4B3
:1009F00080302860286820F4802002E0286840F4D5
:100A000080302860606890B1FFF706FE06460AE075
:100A1000286840F480202860F0E700BFFFF7FCFD65
:100A2000801B642873D828688003F7D50CE0FFF793
:100A3000F3FD064605E000BFFFF7EEFD801B6428CE
:100A4000F0D828688003F7D420789A4E80074FF0BA
:100A500001094FF0000839D5686810F00C0F07D075
:100A60006868C0F38100022809D16868C00306D411
:100A70002868800714D52069012808D110E0206972
:100A8000B0B1C6F80090FFF7C7FD074605E00AE1E0
:100A9000FFF7C2FDC01B0228C4D828688007F7D51D
:100AA0002868616920F0F80040EAC10028600DE084
:100AB000C6F80080FFF7B0FD074604E0FFF7ACFD85
:100AC000C01B022823D828688007F7D420780007A5
:100AD0002CD57948A169D9B1C0F80090FFF79CFDE9
:100AE000074604E0FFF798FDC01B02280FD8686A8C
:100AF0008007F7D571484FF4FA510068B0FBF1F068
:100B0000009000BF0098411E0091FAD20EE080E0F4
:100B1000C0F80080FFF780FD074604E0FFF77CFD8A
:100B2000C01B022875D8686A8007F7D42078400770
:100B300060D5E8690027C00008D4E86940F080501B
:100B4000E861E869012700F0805000905C48016886
:100B5000C90513D40168834641F480710160FFF731
:100B60005BFD824606E000BFFFF756FDA0EB0A00E2
:100B700064284ED8DBF80000C005F5D5E0680128F0
:100B80000AD008B1052813D0286A20F00100286295
:100B9000286A20F0040002E0286A40F00100286280
:100BA000E06841F2883B98B1FFF736FD82460BE0E2
:100BB000286A40F004002862EEE700BFFFF72CFD32
:100BC000A0EB0A0159455AD8286A8007F6D50CE0EF
:100BD000FFF722FD824605E0FFF71EFDA0EB0A01AC
:100BE00059454CD8286A8007F6D41FB1E86920F02F
:100BF0008050E861E06988B36968C1F38101022926
:100C000044D00228C6F8608004D0FFF705FD0446F2
:100C100038E034E0FFF700FD074604E0FFF7FCFC96
:100C2000C01B02282BD828688001F7D4206AB0F5B1
:100C3000803F05D16868A16820F4003008436860EF
:100C4000D4E908010843696821F474110843686015
:100C5000C6F86090FFF7E0FC044606E025E000BF20
:100C6000FFF7DAFC001B022809D828688001F7D5B5
:100C70001BE000BFFFF7D0FC001B022802D90320B5
:100C8000BDE8F88F28688001F4D40EE00128F7D081
:100C90006868226A00F48031914204D1616A00F4EC
:100CA0007010884201D00120EAE70020E8E7000048
:100CB00000100240000042428004424248000020EE
:100CC000007000407047704710B5040003D094F8DE
:100CD0003D0010B107E0012010BD002084F83C0069
:100CE000204600F01EF8022084F83D00211D2068F7
:100CF00000F040FC012084F8460084F83E0084F8AF
:100D00003F0084F8400084F8410084F8420084F8F1
:100D1000430084F8440084F8450084F83D00002036
:100D200010BD704790F83D10012901D00120704797
:100D3000022180F83D100168CA6842F00102CA60D1
:100D400000680B49884208D0B0F1804F05D00949AE
:100D5000884202D00849884204D1816801F0070125
:100D6000062903D0016841F00101016000207047AD
:100D7000002C0140000400400008004070472DE9AD
:100D8000F04104460068C66805694FF00007A907EE
:100D900013D5B10711D5F91E016101202077206814
:100DA00080698007204602D0FFF7E8FF04E000F0EA
:100DB0007EF8204600F07CF82777680716D5700784
:100DC00014D521686FF004000861022020772068A4
:100DD000806910F4407F204602D0FFF7CFFF04E087
:100DE00000F065F8204600F063F82777280715D54E
:100DF000300713D521686FF00800086104202077C0
:100E00002068C0698007204602D0FFF7B7FF04E0E2
:100E100000F04DF8204600F04BF82777E80616D58D
:100E2000F00614D521686FF01000086108202077C3
:100E30002068C06910F4407F204602D0FFF79EFF73
:100E400004E000F034F8204600F032F82777E80795
:100E500008D0F00706D021686FF001000861204635
:100E600000F028F8280608D5300606D521686FF06E
:100E7000800008612046FFF725FF680608D5700648
:100E800006D521686FF040000861204600F01CF88C
:100E9000A8060AD5B00608D521686FF020000861C1
:100EA0002046BDE8F041FFF70EBFBDE8F081704776
:100EB0007047000000680349884201D1FFF7B2BBC8
:100EC00070470000002C0140704770B5040004D04A
:100ED00094F84100002510B106E0012070BD84F8AF
:100EE0004050204600F024F8242084F84100206877
:100EF000C16821F40051C160204600F0A1FB2068C8
:100F0000016921F4904101612068416921F02A01C1
:100F100041612068C16841F40051C16065642020CE
:100F200084F8410084F842006563002070BD000031
:100F300030B585B0002400940194029403940068B5
:100F40001449884224D11448816941F48041816167
:100F5000816901F480410491816941F0040181615A
:100F600080690E4D00F0040004904FF40070009072
:100F7000022001900320039069462846FFF74EFAAD
:100F80002815CDE90004694628460294FFF746FA81
:100F900005B030BD0038014000100240000801409B
:100FA0002DE9F843044690F84100984616460D4650
:100FB000202802D00220BDE8F88385B17EB1002050
:100FC0006064212084F84100FFF726FBA684814657
:100FD000E684A0682027B0F5805F02D003E00120FE
:100FE000E9E7206910B12E4600250EE000260CE04E
:100FF0008021204600F080FBA8B9C6B116F8010B8D
:1010000021684860E08C401EE084E08C4B464FF045
:101010000002CDF800800028EAD14FF040012046C0
:1010200000F06AFB40B184F841700320C3E735F853
:10103000020BC0F30800E3E784F841700020BAE730
:10104000FEE70000054D4FF4007421462846FFF7E7
:10105000D5FAC82000F066FDF7E70000000C01405B
:10106000064D4FF480744FF47A7621462846FFF7F8
:10107000C5FA304600F056FDF7E70000000C0140CD
:1010800070B5B2B00025249524A8259500F069FD1F
:10109000454C01212062269526A8279500F069FD80
:1010A00060622895012128A8299500F062FDA062C0
:1010B0002A9501212AA82B9500F05BFDE0622C9572
:1010C0000A212CA82D9500F054FD6D1E20632946A1
:1010D000A06A00F077FD2946E06A00F073FD334D09
:1010E0000022D5E90001CDE92E0111462EA800F01D
:1010F000C5FDA061D5E90201CDE930010022012141
:1011000030A800F0BBFD4FF47A76E0613146A0696B
:1011100000F0D4FD3146E06900F0D0FD10351CAE82
:1011200095E80F0086E80F0000211CA8103D00F094
:1011300005FD2035206195E80F0020AD85E80F0002
:10114000002120A800F0FAFC184960611C2230310F
:101150006846FFF745F80021684600F065FD134931
:1011600020601C224C3107A8FFF73AF8002107A89D
:1011700000F05AFD0D4960601C2268310EA8FFF78F
:101180002FF800210EA800F04FFD0849A0601C2296
:10119000843115A8FFF724F8002115A800F044FDBC
:1011A000E06032B070BD0000040000206C38000820
:1011B0002DE9F04186B0002538480095019502954B
:1011C0000395816941F010018161816901F010018D
:1011D0000491816941F020018161816901F0200160
:1011E0000491816941F008018161816901F0080180
:1011F0000491816941F0040181618069284F00F008
:1012000004004FF400540490002221463846FFF7B2
:10121000FDF9DFF89080002202214046FFF7F6F941
:1012200001224FF440714046FFF7F0F9009401AA03
:101230000124022682E8700069463846FFF7EEF87E
:1012400040F202308DE8710069464046FFF7E6F84B
:10125000154D4FF22000CDE9000569460294404645
:10126000FFF7DCF82002CDE90005694602940F483B
:10127000FFF7D4F8002205211720FFF765FA1720A1
:10128000FFF754FA002205212820FFF75DFA2820F5
:10129000FFF74CFA06B0BDE8F081000000100240F4
:1012A00000100140000C0140000021100008014026
:1012B0000C4810B50A4901604FF4E131416000214A
:1012C00081600C22C160C0E904128161C161FFF735
:1012D000FCFD002803D0BDE81040FFF717B810BD93
:1012E0000038014074070020FEE700000024214D73
:1012F00026462878012802D0022824D036E02E7015
:1013000001F0EAFB01461CA000F030FA4FF4007037
:1013100001F0F0F8040029D027A000F027FA2146B8
:101320002AA000F023FA01F0D7FB01462FA000F01D
:101330001DFA02F06FF8024638A1204600F026FAA6
:1013400021463EA00CE02E706CB142A000F00EFAD7
:10135000204601F0EBF9002401F0BEFB014641A05C
:1013600000F004FA02E04FA000F000FA642000F060
:10137000D9FBBEE700000020E7B3BBE7BB9FE5BD9C
:1013800093E5898DE58685E5AD98E5A4A7E5B08F61
:10139000E4B8BA20256420E5AD97E88A82EFBC8CDA
:1013A000E5BC80E5A78BE794B3E8AFB7E58685E5B4
:1013B000AD985C6E00000000E58685E5AD98E79489
:1013C000B3E8AFB7E68890E58A9F0A00E794B3E8F0
:1013D000AFB7E588B0E79A84E58685E5AD98E59CEA
:1013E000B0E59D80E4B8BA2523780A00E7B3BBE7EF
:1013F000BB9FE5BD93E5898DE58685E5AD98E589DB
:10140000A9E4BD99E5AD98E5A4A7E5B08FE4B8BA25
:1014100020256420E5AD97E88A820A00E5BD93E5C2
:10142000898DE7B3BBE7BB9F5469636B436F756EF0
:1014300074203D202564200A00000000E58699E51F
:1014400085A5E79A84E695B0E68DAEE698AF2025AF
:1014500073200A00E9878AE694BEE58685E5AD98A3
:101460000A000000E7B3BBE7BB9FE5BD93E5898DAC
:10147000E58685E5AD98E5A4A7E5B08FE4B8BA2088
:10148000256420E5AD97E88A82EFBC8CE58685E58A
:10149000AD98E9878AE694BEE5AE8CE688905C6EEE
:1014A00000000000E8AFB7E58588E68C89E4B88BDA
:1014B0005550E68C89E994AEE794B3E8AFB7E5867A
:1014C00085E5AD98E5868DE9878AE694BE5C6E0079
:1014D000FEE7642000F026FBFBE7000010B550207B
:1014E00080F31188BFF34F8FBFF36F8F01F098FF28
:1014F00018B104494FF080500860002080F3118833
:1015000010BD000004ED00E030B58FB02821684622
:10151000FEF77FFE14210AA8FEF77BFE01210804D6
:10152000CDE900100024029402250491CDE9075072
:101530004FF4E01009906846FFF734FA08B172B62C
:10154000FEE70F20CDE90A054FF48060CDE90C409D
:1015500002210AA80E94FFF729F9002801D072B6DB
:10156000FEE70FB030BD70470148FFF708BC000030
:10157000BC070020F0B50268194B1A4C1A4D4FF009
:101580008047984205D0B84203D0A04201D0A8427B
:1015900003D122F070064A683243984205D0B8421F
:1015A00003D0A04201D0A84203D122F44074CA68FB
:1015B00022434C6922F08002224302608A68C262A0
:1015C0000A688262984201D109690163012141617F
:1015D0000169C90703D0016921F001010161F0BD72
:1015E000002C014000040040000800407047704794
:1015F00001680C3151E8002F22F4907241E8002379
:10160000002BF5D10168143151E8002F22F00102BE
:1016100041E80023002BF5D1016B012909D10168B4
:101620000C3151E8002F22F0100241E80023002B7A
:10163000F5D1202180F8421000210163704700009D
:1016400070B5044600680169E26821F44051114315
:1016500001612169A0680843616908432168CA687B
:1016600041F20C639A430243CA6020684169A2694F
:1016700021F44071114341611E492068884202D122
:10168000FFF75AF901E0FFF747F900EBC00101EB62
:101690000012606864218000B2FBF0F3B3FBF1F349
:1016A0006FF018067343B2FBF0F5B2FBF0F605EBF2
:1016B0008305322303EB0515B5FBF1F5B6FBF1F617
:1016C00005F0F00505EB0615B2FBF0F6B2FBF0F005
:1016D000B0FBF1F06FF01802504306EB800003EB13
:1016E0000010B0FBF1F0216800F00F002844886082
:1016F00070BD0000003801402DE9F84398461746B8
:101700000D460446089E24E0701C22D0FEF784FF9C
:10171000A0EB0800B0421AD8CEB12068C1684907D2
:1017200017D5802D15D0402D13D00168C943090766
:101730000FD401680025406800902046FFF758FF4D
:101740000820606484F840500120BDE8F88303203D
:10175000FBE72068006835EA000004D00020B842AA
:10176000D2D00020F1E70120F9E7FEE70FB4054BE6
:1017700010B503A9044A029800F03CF810BC5DF8CB
:1017800014FB0000C11A0008C80000200FB4084B69
:1017900010B504A902AA039800F02CF8044602A987
:1017A000002000F087F9204610BC5DF814FB000013
:1017B000B51A00080907090E002804DB00F1E02033
:1017C00080F80014704700F00F0000F1E02080F86E
:1017D000141D704702E008C8121F08C1002AFAD180
:1017E00070477047002001E001C1121F002AFBD1A1
:1017F000704700002DE9FF4F8DB09B460F46044611
:10180000002606E025280BD05A460F999047641C05
:10181000761C20780028F5D111B03046BDE8F08F55
:101820000025A8460122984900E0054314F8013F2D
:10183000203B02FA03F00842F7D120782E2817D176
:1018400014F8010F45F004052A280ED06FF02F027E
:101850002078A0F1300109290AD808EB880102EBB1
:10186000410100EB0108641CF2E757F8048B641C8B
:1018700020786C280DD004DC4C2812D06A2811D1B5
:1018800004E074280DD07A280CD10AE045F4001544
:1018900007E0617845F48015814202D1641C05F5AA
:1018A0008015641C2078692844D008DC0028B3D057
:1018B000582867D063280FD0642808D13AE07028F0
:1018C00065D0732812D075285AD078285AD05A4635
:1018D0000F999047761CD5E017F8040B8DF800009F
:1018E00000208DF80100E946012003E057F8049B31
:1018F0004FF0FF3069074FF0000501D40AE06D1C7E
:1019000045450DDA8542FADB19F805100029F6D1B4
:1019100006E06D1C8542FCDB19F805100029F8D1A2
:101920002E4404E019F8010B5A460F9990476D1E9A
:10193000F8D2A7E00A200021CDE90801C5F3025042
:1019400002280CD001CFC117021E71F100020CDA7F
:101950000023D0EB030063EB01012D2208E0FF1D03
:1019600027F00707F7E80201EEE72A0504D52B2246
:101970008DF8282001223CE0EA073AD02022F7E740
:101980000A2000E010200021CDE9080107E0102026
:10199000002145F00405CDE908014FF00808C5F322
:1019A0000250022810D001CF00214FF0000A2A0770
:1019B00020D52278702A0DD0DDE908C38CF0100CF8
:1019C0005CEA030C0CD015E0FF1D27F00707F7E8D1
:1019D0000201EAE740228DF828204FF0010A0CE0CE
:1019E00050EA010306D030238DF828308DF82920E5
:1019F000022292462278582A04D024A20DF120090E
:101A00000B9209E026A2F9E7DDE90823FEF70CFCBA
:101A10000B9B9B5C09F8013D50EA0102F4D1ADEB50
:101A2000090020300890680701D44FF00108089998
:101A3000884503DD0898A8EB000000E00020804600
:101A4000002506E00AA85A46405D0F9990476D1C94
:101A5000761C5545F6DB04E030205A460F99904736
:101A6000761CB8F10001A8F10108F5DC05E019F8D1
:101A7000010B5A460F999047761C0899481E08900A
:101A80000029F4DC641CC4E609280100303132333B
:101A900034353637383961626364656600000000AA
:101AA0003031323334353637383941424344454694
:101AB000000000000A68531C0B60107070470000A3
:101AC00013B54FF0FF33012269460248FFF768FA69
:101AD00000981CBD74070020EFF30580002800D09B
:101AE00001207047FEF7A6FDFFF70EFDFFF760FB34
:101AF000FFF7DEFB03A0FFF739FEFFF7C1FA00F0A6
:101B000018F8FEE7556172743120696E69742069B6
:101B100073206F6B0A00000001460020842900D06A
:101B2000C81C704710B500B9012000F0A3FE0020CA
:101B300010BD10B500F056FF002010BD38B5D0E93B
:101B4000011204683AB1C3682BB10020009020460E
:101B500001F092F838BD2046BDE83840002201F07F
:101B60006AB841684FF0010009B101F057B801F0BF
:101B70004AB838B542687AB1012904D0BDE8384086
:101B8000084601F020B803201346002200901146B9
:101B9000012001F071F838BD012904D0BDE83840BA
:101BA000084600F0F3BF03220021012001F043F8B2
:101BB000040004D000231A46194601F0D5F8204647
:101BC00038BD000038B505004FF0000000900FD080
:101BD0000024481C0ED001B10C46FFF77DFFB8B1C0
:101BE0006A460021284601F06BFA012816D104E06C
:101BF000802038BD4FF0FF34EFE7009880B10949ED
:101C00004FF080500860BFF34F8FBFF36F8F07E036
:101C10002146284601F0A2FA012801D0FF2038BD54
:101C2000002038BD04ED00E07FB50D460446416953
:101C3000B0F9080081B1A16971B1FFF76DFFD4E976
:101C400005128DE80700D4E900102B46226901F047
:101C5000A8FB039004B070BDFFF75EFF03A9CDE9B8
:101C60000001208A2B4682B2D4E9001001F06CFBFF
:101C7000012801D00020EDE70398EBE71CB511C85F
:101C80006CB1CDE90004012907D0002013460246BB
:101C9000012109A001F072FD1CBD0120F6E70090B2
:101CA000012907D0002013460246012102A001F0BD
:101CB0004BFD1CBD0120F6E7000000002DE9FC41B2
:101CC000002507462E4601950C0000D10124FFF7A0
:101CD00003FF009690B101AB22460921384601F07E
:101CE00095FD012812D1019888B10A494FF0805022
:101CF0000860BFF34F8FBFF36F8F08E000232246C9
:101D00000421384601F082FD012800D0FF25284635
:101D1000BDE8FC8104ED00E02DE9F041184C0F46D0
:101D20000546E6682068001D00F070FC38B92068A0
:101D300090F82C1001208840216981432161681CA2
:101D400007D137B12168BDE8F0410E48091D00F008
:101D5000ADBC20683544B5424560216805D2A06B12
:101D6000BDE8F041091D00F089BC606B091D00F061
:101D700085FCA06A854200D2A562BDE8F081000022
:101D80004C000020200900202DE9F041054600F01C
:101D900099FC2E4CA068401CA06020682C4F10B10C
:101DA000606940B32DE02560A068012829D1002694
:101DB00006EB860007EB800000F052FC761C072E35
:101DC000F6D323488C3000F04BFC2148A03000F0C3
:101DD00047FC1F48B43000F043FC1D48C83000F0F9
:101DE0003FFC1B48DC3000F03BFC19488C30606342
:101DF0001430A06305E02068E96AC06A884200D810
:101E00002560606A401C6062E96A0120226988409E
:101E10001043206101EB810007EB8000291D00F0D9
:101E200045FC00F06FFC606900280CD02068E96A6E
:101E3000C06A884207D207494FF080500860BFF35C
:101E40004F8FBFF36F8FBDE8F08100004C00002082
:101E50004408002004ED00E038B500F033FC104CDD
:101E60002068C8B90F4800F0FBFB0E48143000F0A2
:101E7000F7FB0C48E060143020610A4B0020C03BA7
:101E8000009003F148020C210A2000F0F5FE2060CA
:101E900010B105A100F0B8FCBDE8384000F032BC3C
:101EA00088000020F4090020546D725100000000E9
:101EB00030B4026C0B46002A0BD0C1681144C160DB
:101EC0008468A14201D30168C16030BC1846FEF7A6
:101ED00087B930BC70472DE9F041856B1746044641
:101EE0000026026C82B1C7B1E068FEF779F9E168BB
:101EF000206C091AE1602268914202D2A168081A96
:101F0000E060022F16D017E02068A8B9A06801F0A1
:101F1000EDFA06460020A0600EE06068FEF760F96A
:101F2000216C606808446060A168884204D320681E
:101F3000606001E005B16D1E6D1CA5633046BDE813
:101F4000F08110B5044690F8510058B101280CD02A
:101F500002280FD0502080F31188BFF34F8FBFF3BA
:101F60006F8FFEE7206B00F0E1FB2046BDE81040DC
:101F700000F0DCBB10BD000010484FF48051420758
:101F800006D0C01D0D4920F00700411AC1F580514F
:101F90000B4A00230144C2E900030839183A21F032
:101FA000070111604B600B600B1AC0E900139360CE
:101FB0004FF0004053605061704700001C0A002041
:101FC000B4000020144E154CA6F1C8074FF08058FD
:101FD000DFF84C9012E000BF00F074FBF068C568B9
:101FE000281D00F013FBA068401EA0606068401E22
:101FF000606000F087FB2846FFF7A3FF60680028B9
:10200000EAD138680128F9D9C9F80080BFF34F8FA9
:10201000BFF36F8FF2E700000C0900204C00002096
:1020200004ED00E0002807D00021816001600B462C
:102030000A46C16000F098BE70470346009829B177
:102040000260C0E90F31012100F04ABE0060F8E7EC
:102050002DE9F0479A46DDE9098481466FF00303D4
:10206000206B03EB82021044089E20F007077807DC
:1020700007D0502080F31188BFF34F8FBFF36F8FCD
:10208000FEE7002561B1002023180A5C83F83420A4
:102090000A5C12B1401C1028F6D384F8435001E0CA
:1020A00084F83450072E00D30626E662C4E9116591
:1020B000201D00F0E0FA04F1180000F0DCFA2461C1
:1020C000C6F107006462A061E56484F8505052468E
:1020D0004946384600F088FA2060B8F1000F01D078
:1020E000C8F80040BDE8F0872DE9F0471E46DDE95D
:1020F000089417460D00804615D0002C11D0FFF72C
:10210000ABFE04F11801C4F8008081E86002201DD4
:1021100000F0B1FA002F04D014F8240F40F00400AE
:102120002070BDE8F087502080F31188BFF34F8FF7
:10213000BFF36F8FFEE7000030B5114900E0114694
:102140000A688242FBD34B685C18844203D1406822
:1021500018444860084643681C18944209D1084C4A
:10216000183C2468A24209D052681A4442600A68A6
:1021700012680260814200D0086030BD0460F9E757
:10218000B400002070B5002441600B4D0061914205
:1021900006D8D11A8269914206D2011D286907E04A
:1021A0009A4203D2994201D3012403E0011DE86859
:1021B00000F064FA204670BD8800002010B5044687
:1021C00000F080FAA06B28B15FF0000400F09AFAEA
:1021D000204610BD0124F9E730B587B0394D67E0DE
:1021E0000498002864DB069C606910B1201D00F093
:1021F0000DFA03A800F0D8F8024604980A2857D22E
:10220000DFE800F00505052D334A05052D3394F868
:10221000240040F0010084F824000599A069059B82
:1022200001442046FFF7AEFF68B3216A2046884785
:1022300094F8240040073BD5002000900598A16940
:10224000002342181946204601F0E0FAD8B9502080
:1022500080F31188BFF34F8FBFF36F8FFEE714F841
:10226000240F20F00100207022E094F8240040F0B8
:10227000010084F824000598A06128B18118134654
:102280002046FFF77FFF13E0502080F31188BFF353
:102290004F8FBFF36F8FFEE794F82400810703D4BC
:1022A000204600F043FA03E020F0010084F8240007
:1022B000002204A9286800F067FE002890D107B02A
:1022C00030BD0000880000202DE9FC410F46054686
:1022D00000F0CCFB01A800F067F80446019818B1A3
:1022E00001F0D0F9BDE8FC81254EAFB1306900683E
:1022F000D0B30027291B3A46306800F099FA01F064
:10230000C1F90028EED11F494FF080500860BFF39B
:102310004F8FBFF36F8FE5E7A542EBD801F0B2F91D
:10232000F0682746C068C468201D00F06FF994F873
:102330002400410719D5A0692B4641193A46204689
:10234000FFF720FFA8B100200346014600902A466F
:10235000204601F05BFA60B9502080F31188BFF38A
:102360004F8FBFF36F8FFEE707E020F0010084F886
:102370002400216A20468847B4E70127BAE7000015
:102380008800002004ED00E00648416B096829B18F
:10239000416BC968C9684968816270474FF0FF3175
:1023A000FAE700004C00002070B5054601F032F855
:1023B000064E0446B068844203D200F009F80120BA
:1023C00000E0002028602046B46070BD8800002036
:1023D000F8B5194D20E0C068C4680668201D00F0FB
:1023E00015F9216A2046884794F82400400713D540
:1023F000A0693044B04206D924616060211DE868BC
:1024000000F03CF908E00020034601460090324607
:10241000204601F0FBF938B1E86801680029DAD1FB
:102420002969C5E90310F8BD502080F31188BFF376
:102430004F8FBFF36F8FFEE7880000200848406889
:10244000401C4FF0500080F3118804D0BFF34F8F31
:10245000BFF36F8FFEE7BFF34F8FBFF36F8FFEE7C2
:10246000BC000020074CE068016841B1C068002151
:10247000D0F80000FFF728FFFFF7AEFEF3E70121D9
:102480000020F7E7880000202DE9F041044600F025
:1024900019F994F9455004F1240609E0606A48B13D
:1024A000304601F0B5F808B100F012FA6D1E6DB2B9
:1024B000002DF3DC4FF0FF3684F8456000F022F980
:1024C00000F000F994F9445004F1100709E0206984
:1024D00048B1384601F09CF808B100F0F9F96D1EDA
:1024E0006DB2002DF3DC84F84460BDE8F04100F0EB
:1024F00009B900002DE9F0410546002700F0B6FAC1
:10250000324E306808B9FFF737FD706905424ED189
:10251000C5B3083568070ED005F00700C0F1080004
:102520000544680707D0502080F31188BFF34F8F10
:10253000BFF36F8FFEE72DB37068854237D823480D
:10254000183001460C6801E020460C466168A9423B
:1025500002D221680029F7D131688C4227D0076860
:102560002168016060680837411B10290FD9601984
:10257000420708D0502080F31188BFF34F8FBFF37C
:102580006F8FFEE713E041606560FFF7D5FD61687E
:102590007068401A7060B268904200D2B060706992
:1025A00001430020C4E90001F068401CF06001F024
:1025B00069F8780707D0502080F31188BFF34F8F58
:1025C000BFF36F8FFEE73846BDE8F0819C00002026
:1025D0000449086818B10868826C521C8264086853
:1025E000704700004C00002010B5031F4FF08074AE
:1025F0001C601B1F21F001011960191F024B0B60A9
:10260000143940380A6010BD3D240008D0E9013279
:1026100001699A60D0E901235A604A68824201D177
:1026200082684A60002202610868401E08600868EB
:1026300070470000034B036003F1540008608020E2
:1026400010607047CC000020044B036003F154007D
:1026500008604FF480701060704700002003002075
:1026600000F108014FF0FF32C0E90112C1600161C1
:1026700000210160704700210161704730B50B688F
:102680005A1C02D000F1080202E0026904E022466E
:10269000546825689D42FAD953684B6099608A60F6
:1026A000516008610168491C016030BD42684A60A0
:1026B00093688B6093685960916008610168491C58
:1026C00001607047502080F31188BFF34F8FBFF334
:1026D0006F8F0A494868401C486001280CD108489F
:1026E000006810F0FF0F07D0502080F31188BFF36F
:1026F0004F8FBFF36F8FFEE770470000BC000020D4
:1027000004ED00E00849486828B1401E486001D146
:1027100080F311887047502080F31188BFF34F8FEA
:10272000BFF36F8FFEE70000BC00002070B50028EB
:102730002AD0164DA0F1080460686969084207D1E3
:10274000502080F31188BFF34F8FBFF36F8FFEE7E8
:1027500022683AB1502080F31188BFF34F8FBFF346
:102760006F8FFEE78843606000F080F960686968F9
:10277000084468602046FFF7DFFC2869401C286198
:10278000BDE8704000F07EBF70BD00009C000020DE
:102790004FF0E02000210161816105494FF47A7218
:1027A0000968B1FBF2F1491E4161072101617047DF
:1027B0004800002010B5FDF7EDFC114910280ED39C
:1027C00000F1E02090F8F0030A78904207D2502000
:1027D00080F31188BFF34F8FBFF36F8FFEE7094877
:1027E0000068896800F4E060884207D9502080F3CF
:1027F0001188BFF34F8FBFF36F8FFEE710BD00004E
:10280000BC0000200CED00E010B5084B002200BF1A
:1028100053F832401CB1521C082AF9D310BD43F8BA
:10282000321003EBC201486010BD00000408002014
:1028300070B515460E460446FFF744FF94F9441060
:102840000020491C01D184F8440094F94510491C2A
:1028500001D184F84500FFF755FFA06B28B92A463F
:10286000314604F1240000F051F82046BDE87040E4
:10287000FFF70ABE10B5020014D00F48006B38B144
:10288000502080F31188BFF34F8FBFF36F8FFEE7A7
:1028900000F0ECF800211046FFF73EFA00F0F2FEDF
:1028A000002807D105494FF080500860BFF34F8FD3
:1028B000BFF36F8F10BD00004C00002004ED00E05E
:1028C00002490A6A0260C968416070474C000020F2
:1028D00001490120C86170474C00002010B50C462A
:1028E00050B1094909681831FFF7C8FE2046BDE814
:1028F00010400121FFF710BA502080F31188BFF378
:102900004F8FBFF36F8FFEE74C00002070B5144669
:102910000D4668B10A4909681831FFF7C7FE0CB1C6
:102920004FF0FF3521462846BDE87040FFF7F4B967
:10293000502080F31188BFF34F8FBFF36F8FFEE7F6
:102940004C00002070B5040047D0A26CA2B1606CAE
:10295000884200D30146E06A88423ED0012A3CD139
:102960001E4D2A6894420FD1502080F31188BFF386
:102970004F8FBFF36F8FFEE7502080F31188BFF3B6
:102980004F8FBFF36F8FFEE7E162A269002A02DB7F
:10299000C1F10701A161124E00EB8000616906EBF5
:1029A0008000814219D1201DFFF730FE012130B98E
:1029B00094F82C002A6901FA00F082432A61E06A47
:1029C0002A6981401143296100EB800006EB8000F9
:1029D000211DBDE87040FFF769BE70BD4C000020AE
:1029E0004408002030B587B00024039405AA04A948
:1029F00003A80494FFF71EFEDDE903010094CDE96E
:102A00000110002315A11748059A00F0CAFC164DC5
:102A10000028E8621FD000F0C9FE012809D0401C40
:102A200019D1502080F31188BFF34F8FBFF36F8F00
:102A3000FEE7502080F31188BFF34F8FBFF36F8FF5
:102A40004FF0FF30A86201206861EC6007B0BDE87C
:102A5000304000F047B807B030BD000049444C4555
:102A600000000000C51F00084C0000200248016B58
:102A7000491C0163704700004C0000201448016BA2
:102A800011B10121C16170470021C1610169B1FA31
:102A900081F1C1F11F0101EB81020E4951F8223091
:102AA0006BB101EB820101F108034A6852684A6088
:102AB0009A4201D152684A60D16801607047502043
:102AC00080F31188BFF34F8FBFF36F8FFEE70000D5
:102AD0004C00002044080020014840687047000076
:102AE0009C0000201CB5264908780190FF20087042
:102AF00008788DF800009DF800009DF8002000F097
:102B0000F000904207D0502080F31188BFF34F8F20
:102B1000BFF36F8FFEE79DF800001A4C00F05000E5
:102B200020700720A06005E09DF8002052008DF87D
:102B30000020401E9DF800201206F5D4A060032856
:102B400007D0502080F31188BFF34F8FBFF36F8FF2
:102B5000FEE74FF44070A060019808700A480168D1
:102B600041F470010160016841F070410160FFF7BC
:102B70000FFE00206060FDF7D7FA00201CBD0000AA
:102B800000E400E0BC00002020ED00E010B50C46A1
:102B900048B184420FD9502080F31188BFF34F8F82
:102BA000BFF36F8FFEE7502080F31188BFF34F8F84
:102BB000BFF36F8FFEE70222002100F03CF80028EF
:102BC00000D0846310BD38B50C4648B184420FD99B
:102BD000502080F31188BFF34F8FBFF36F8FFEE754
:102BE000502080F31188BFF34F8FBFF36F8FFEE744
:102BF0000221134600220091114600F03DF8002802
:102C000000D0846338BD10B502460021012000F0D9
:102C100012F80446FFF706FA204610BD38B50B46F9
:102C2000002200901146012000F026F80446FFF72C
:102C3000F9F9204638BDF8B517460E46050013D001
:102C400005FB06F04830FFF755FC04000AD00020D1
:102C500084F8460004F148023B4631462846009479
:102C6000FFF7EBF92046F8BD502080F31188BFF341
:102C70004F8FBFF36F8FFEE738B5049D18B153B186
:102C8000CAB181B120E0502080F31188BFF34F8F8B
:102C9000BFF36F8FFEE7502080F31188BFF34F8F93
:102CA000BFF36F8FFEE7502080F31188BFF34F8F83
:102CB000BFF36F8FFEE739B1502080F31188BFF367
:102CC0004F8FBFF36F8FFEE748241C46012384F823
:102CD00046302B460094FFF7B0F9204638BD00007F
:102CE00070B50D46040025D0FFF7ECFCD4E90F20A9
:102CF000216802FB0011A1600021A16321686160CD
:102D00000A46D4E90F01401E00FB0121E160214683
:102D10004FF0FF3001F8440F487004F110008DB1FE
:102D2000FFF79EFC04F12400FFF79AFCFFF7EAFC92
:102D3000012070BD502080F31188BFF34F8FBFF387
:102D40006F8FFEE721690029F0D000F061FC0028B8
:102D5000ECD004494FF080500860BFF34F8FBFF3B1
:102D60006F8FE3E704ED00E02DE9FF4782B01D46D9
:102D70008A464FF00008040003D0BAF1000F08D0D3
:102D800011E0502080F31188BFF34F8FBFF36F8F96
:102D9000FEE7206C38B1502080F31188BFF34F8FCD
:102DA000BFF36F8FFEE7022D0AD1E06B012807D039
:102DB000502080F31188BFF34F8FBFF36F8FFEE772
:102DC00000F01AFB3F4F4FF000094FF0805648B912
:102DD000049838B1502080F31188BFF34F8FBFF3B0
:102DE0006F8FFEE7FFF76EFCA06BE16B884207D3A5
:102DF000022D05D00498D0B1B8F1000F1AD01EE012
:102E00002A4651462046FFF766F8616A19B104F177
:102E1000240000F0FDFB20B13E60BFF34F8FBFF3F5
:102E20006F8FFFF76FFC012006B0BDE8F087FFF75A
:102E300069FC22E06846FFF743FD4FF00108FFF709
:102E400061FCFFF713FEFFF73DFC94F94400401CC2
:102E500001D184F8449094F94500401C01D184F8D4
:102E60004590FFF74FFC04A9684600F033FA30B1F3
:102E70002046FFF709FB00F005FC0020D4E7FFF730
:102E800021FCA06BE16B884213D1FFF73BFC04F1FE
:102E900010000499FFF722FD2046FFF7F5FA00F035
:102EA000F1FB00289ED13E60BFF34F8FBFF36F8FC1
:102EB00098E7FFF727FC2046FFF7E6FA00F0E2FB71
:102EC00090E7000004ED00E02DE9F0471F46904632
:102ED0008946040003D0B9F1000F08D011E050205A
:102EE00080F31188BFF34F8FBFF36F8FFEE7206C25
:102EF00038B1502080F31188BFF34F8FBFF36F8F2D
:102F0000FEE7022F0AD1E06B012807D0502080F3A2
:102F10001188BFF34F8FBFF36F8FFEE7FFF74AFCB7
:102F20005020EFF3118680F31188BFF34F8FBFF36A
:102F30006F8FA06BE16B884206D3022F04D0002074
:102F400086F31188BDE8F08794F94550A06B3A46A6
:102F500049462046FEF7BFFF681C04D06D1C84F86C
:102F600045500120ECE7606A0028FAD004F1240003
:102F700000F04EFB0028F4D0B8F1000FF1D0012191
:102F8000C8F80010EDE700002DE9F747002683B0F0
:102F90008A46040003D0BAF1000F08D011E0502097
:102FA00080F31188BFF34F8FBFF36F8FFEE7206C64
:102FB00038B1502080F31188BFF34F8FBFF36F8F6C
:102FC000FEE700F019FADFF8F4804FF000094FF047
:102FD000805748B9059838B1502080F31188BFF365
:102FE0004F8FBFF36F8FFEE7FFF76CFBA56BC5B18B
:102FF00051462046FEF75CFF6D1EA563206950B167
:1030000004F1100000F004FB28B1C8F80070BFF311
:103010004F8FBFF36F8FFFF775FB012006B0BDE840
:10302000F087059808B11EB106E0FFF76BFB27E0BB
:103030006846FFF745FC0126FFF764FBFFF716FD26
:10304000FFF740FB94F94400401C01D184F8449000
:1030500094F94500401C01D184F84590FFF752FBDC
:1030600005A9684600F036F9002820460AD0FFF787
:103070000BFA00F007FB2046FFF7A0F80028B3D0BA
:103080000020CBE7FFF79AF890B104F124000599EE
:10309000FFF724FC2046FFF7F7F900F0F3FA0028C9
:1030A000A2D1C8F80070BFF34F8FBFF36F8F9BE7BB
:1030B0002046FFF7E9F900F0E5FA95E704ED00E0B6
:1030C0002DE9F04790468946040003D0B9F1000F7E
:1030D00008D011E0502080F31188BFF34F8FBFF369
:1030E0006F8FFEE7206C38B1502080F31188BFF35A
:1030F0004F8FBFF36F8FFEE7FFF75CFB5020EFF3BE
:10310000118680F31188BFF34F8FBFF36F8FA76BCA
:10311000F7B194F9445049462046FEF7C9FE7F1E98
:10312000A763681C04D06D1C84F84450012010E093
:1031300020690028FAD004F1100000F069FA002894
:10314000F4D0B8F1000FF1D00121C8F80010EDE77C
:10315000002086F31188BDE8F08700002DE9F343D5
:10316000002683B00400354609D0206C78B1502089
:1031700080F31188BFF34F8FBFF36F8FFEE75020AE
:1031800080F31188BFF34F8FBFF36F8FFEE700F01E
:1031900033F9DFF83C814FF000094FF0805748B910
:1031A000049838B1502080F31188BFF34F8FBFF3DC
:1031B0006F8FFEE7FFF786FAA06BC8B1401EA063D1
:1031C000206810B9FFF704FAA060206950B104F13B
:1031D000100000F01DFA28B1C8F80070BFF34F8F3F
:1031E000BFF36F8FFFF78EFA012005B0BDE8F083C3
:1031F000049808B166B10FE03DB1502080F311880A
:10320000BFF34F8FBFF36F8FFEE7FFF77BFA5DE0F1
:103210006846FFF755FB0126FFF774FAFFF726FC17
:10322000FFF750FA94F94400401C01D184F844900F
:1032300094F94500401C01D184F84590FFF762FAEB
:1032400004A9684600F046F80028204612D0FFF78F
:103250001BF900F017FA2046FEF7B0FF0028A9D0AE
:103260009DB3FFF72FFA606A50B3206B0068C0F17E
:10327000070126E0FEF7A2FFE0B1206838B9FFF7AA
:1032800021FAA06800F07EF90546FFF73BFA04F149
:1032900024000499FFF722FB2046FFF7F5F800F021
:1032A000F1F9002886D1C8F80070BFF34F8FBFF343
:1032B0006F8F7FE72046FFF7E7F800F0E3F979E743
:1032C0000021A068FFF73EFB9FE7FFE700208CE7A7
:1032D00004ED00E02DE9F0410C46050011D0C4B129
:1032E000FFF7F0F9174BDA686E682068911B471CEE
:1032F00017D02F681B6A9F4219D0964217D8012415
:1033000010E0502080F31188BFF34F8FBFF36F8F11
:10331000FEE7502080F31188BFF34F8FBFF36F8F0C
:10332000FEE70024FFF7EEF92046BDE8F081884271
:1033300005D9401A20602846FFF7C2FAF1E70020BD
:103340002060DCE74C0000202DE9FF5F8346DDE9CB
:103350000E87994616468A469000FFF7CBF805007F
:103360001CD05420FFF7C6F8040014D000202563B9
:1033700084F85100CDE90240CDE900874B46324642
:1033800051465846FEF764FE2046FEF7FDFC01203C
:1033900004B0BDE8F09F2846FFF7C8F94FF0FF30B2
:1033A000F6E7F0B585B0DDE90B640A9DA6B1DCB1A6
:1033B000542700972663022684F85160002604AF44
:1033C000CDE90246CDE90057FEF742FE2046FEF762
:1033D000DBFC049805B0F0BD502080F31188BFF3EA
:1033E0004F8FBFF36F8FFEE7502080F31188BFF33C
:1033F0004F8FBFF36F8FFEE70548416919B1006B2E
:1034000018B100207047012070470220704700006B
:103410004C0000200148C068704700004C000020AC
:103420002DE9F0412F4C0026206B28B1A069401CEB
:10343000A0613046BDE8F081E5686D1CE56013D100
:10344000606B006838B1502080F31188BFF34F8F54
:10345000BFF36F8FFEE7606BA16B6163A063206AAF
:10346000401C2062FEF790FFA06ADFF87C80854256
:1034700009D3606B0068A0B1606BC068C7687868EA
:10348000854211D2A0622068C06A00EB800158F822
:103490002100012800D90126E0690028C9D00126B1
:1034A000C7E74FF0FF30EDE7381DFFF7AFF8B86A18
:1034B00018B107F11800FFF7A9F8F96A012022698D
:1034C00088401043206101EB810108EB8100391D28
:1034D000FFF7ECF8F86A2168C96A8842C9D3012667
:1034E000C7E700004C0000204408002070B504002D
:1034F0004FF0000140D0214D2868844207D0502071
:1035000080F31188BFF34F8FBFF36F8FFEE7A06C7E
:1035100038B1401EA064636CE26A9A422CD040B17C
:103520002AE0502080F31188BFF34F8FBFF36F8FD5
:10353000FEE7201DFFF76AF8114A012150B9E06A41
:1035400000EB800352F8233023B92B6901FA00F015
:1035500083432B61606CE062C0F10700A061E06A08
:103560002B6981401943296100EB800002EB800048
:10357000211DFFF79BF80121084670BD4C0000207B
:103580004408002070B504004FF0000034D01E4DF8
:10359000E16A2A68D26A91422FD2A069002804DB2E
:1035A0002868C06AC0F10700A061184E01EB8101D4
:1035B000606906EB810188421AD1201DFFF726F8C9
:1035C000012130B994F82C002A6901FA00F08243F5
:1035D0002A612868C06AE0622A6981401143296132
:1035E00000EB800006EB8000211DFFF75FF802E092
:1035F0002868C06AE062012070BD616C2A68D26AE6
:103600009142F8D370BD00004C0000204408002017
:103610002DE9F041C068C468ACB104F11800074658
:10362000FEF7F4FF154D286B0126A0B1394614486A
:10363000FFF73CF8E06A2968C96A88421CD9012072
:10364000EE61BDE8F081502080F31188BFF34F8F09
:10365000BFF36F8FFEE7201DFEF7D8FFE16A2A69EE
:1036600006FA01F01043286101EB81000449B439E6
:1036700001EB8000211DDBE70020E2E74C00002089
:10368000F80800202DE9F0472C4D00242746286B30
:1036900038B1FFF717F8286B401E2863286B40B13C
:1036A00046E0502080F31188BFF34F8FBFF36F8F38
:1036B000FEE7A968224E0120D1B3A6F1B4098046E5
:1036C0003068E8B1F068C46804F11800FEF79EFFA6
:1036D000201DFEF79BFFE06A2A6908FA00F11143FA
:1036E000296100EB800109EB8100211DFEF7DEFF5F
:1036F000E06A2968C96A8842E2D3C5F81C80DFE71E
:103700000CB1FEF741FEAC6944B14646FFF788FEB6
:1037100000B1EE61641EF9D10020A861E86938B1FA
:103720000849012738070860BFF34F8FBFF36F8F39
:10373000FEF7E8FF3846BDE8F08700004C000020A7
:10374000F808002004ED00E02DE9FC4781461E4604
:103750001746884628200A9DFEF7CCFE04000AD0B2
:10376000002084F82400CDE9005433463A4641460F
:103770004846FEF7B9FC2046BDE8FC877CB5282604
:10378000DDE90654009644B1022684F82460CDE9B0
:103790000054FEF7A9FC20467CBD502080F3118820
:1037A000BFF34F8FBFF36F8FFEE7000010B586B0F9
:1037B000FEF752FB114C2068B8B100200390049032
:1037C00005AA04A903A8FEF73FFFDDE903210220B3
:1037D0008DE8070000230AA10B48059AFFF7E1FDD9
:1037E000606010B106B0012010BD502080F3118838
:1037F000BFF34F8FBFF36F8FFEE7000088000020FC
:10380000546D72205376630065240008FEB51E4691
:1038100013460200089D4FF0000014D0124C276898
:10382000002F0FD0CDE900130292062915DAFFF719
:10383000E3FD02284FF000030DD000226946206806
:10384000FFF792FAFEBD502080F31188BFF34F8F2F
:10385000BFF36F8FFEE72A46F0E700233246694642
:103860003846FFF731FBFEBD88000020ED1500084B
:1038700000000000EF15000800000000100000002C
:103880000200000000000000000000001000000026
:103890000200000000000000000000004C39000899
:1038A000D3140008000000000000000080000000A9
:1038B0000000000000000000383900084510000832
:1038C0000000000000000000800000000000000078
:1038D00000000000403900086110000800000000EE
:1038E0000000000080000000000000000000000058
:1038F00048390008ED120008000000000000000038
:10390000800000000000000000000000010202032F
:103910000405060708090A0B0C0D0E0F1010000015
:10392000000000000000010203040607080900006F
:1039300000000102030400004C4544310000000077
:103940004C454432000000004D454D006465666101
:10395000756C745461736B007839000800000020A6
:10396000CC000000D4170008443A0008CC00002026
:10397000541D0000E41700080000000000000000D3
:103980000000000000000000000000000000000037
:103990000000000000000000000000000000000027
:1039A0000000000000000000000000000000000017
:1039B00000000000010000001000000000000000F6
:1039C00000127A000000000000000000000000006B
:1039D00000000000000000000000000000000000E7
:1039E00000000000000000000000000000000000D7
:1039F00000000000000000000000000000000000C7
:103A000000000000000000000000000000000000B6
:103A100000000000000000000000000000000000A6
:103A20000000000000000000000000000000000096
:103A30000000000000000000AAAAAAAA00000000DE
:043A40000000000082
:04000005080000ED02
:00000001FF
