:020000040800F2
:10000000681400209D010008BB110008ED0F0008D6
:10001000B91100084D0200087B150008000000001F
:1000200000000000000000000000000005010008C2
:100030004F02000800000000490100085D1200089E
:10004000B7010008B7010008B7010008B7010008B0
:10005000B7010008B7010008B7010008B7010008A0
:10006000B7010008B7010008B7010008B701000890
:10007000B7010008B7010008B7010008B701000880
:10008000B7010008B7010008B7010008B701000870
:10009000B7010008B7010008B7010008770200089F
:1000A000B7010008E9120008B7010008B70100080D
:1000B000B7010008B7010008B7010008B701000840
:1000C000B7010008B7010008B7010008B701000830
:1000D000B7010008B7010008B7010008B701000820
:1000E00051020008B7010008B7010008DFF810D07E
:1000F00000F08AF80048004711160008AFF30080AE
:1001000068140020224B19680868B0E8F00F80F3EB
:100110000988BFF36F8F4FF0000080F311884EF015
:100120000D0E70470000000006480068006880F36C
:10013000088862B661B6BFF34F8FBFF36F8F00DFE1
:1001400000BF00BF08ED00E0EFF30980BFF36F8F41
:100150000F4B1A6820E9F00F106008B54FF05000FF
:1001600080F31188BFF34F8FBFF36F8F02F080F8D9
:100170004FF0000080F31188BDE808401968086856
:10018000B0E8F00F80F30988BFF36F8F704700BFAE
:1001900028000020EFF305807047000006488047E4
:1001A00006480047FEE7FEE7FEE7FEE7FEE7FEE75C
:1001B000FEE7FEE7FEE7FEE7E7120008ED000008B5
:1001C00040EA01039B0703D009E008C9121F08C0D9
:1001D000042AFAD203E011F8013B00F8013B521E59
:1001E000F9D27047D2B201E000F8012B491EFBD2D0
:1001F00070470022F6E710B513460A460446194632
:10020000FFF7F0FF204610BD064C074D06E0E06802
:1002100040F0010394E8070098471034AC42F6D34D
:10022000FFF768FF702E0008902E0008064B4FF471
:100230000051012805D0002805D10022184600F001
:10024000BBB90122FAE7704700100140FEE7704792
:1002500010B54FF4805000F0ABF84FF4005000F0B0
:10026000A7F84FF4804000F0A3F8BDE810404FF429
:10027000004000F09DB810B5202000F099F8BDE8CE
:1002800010404FF4807000F093B872B6FEE70000A3
:10029000264910B50B68264A14681B1BC82B44D38B
:1002A0000968244C1160B0F5005F17D0B0F5804F9D
:1002B0001CD0202822D0B0F5004F27D0B0F5805FA9
:1002C0002CD0B0F5807F30D10020FFF7AFFF0620A3
:1002D000207019A0BDE8104001F050B90121084676
:1002E00000F086FE0120207018A0F3E70021012015
:1002F00000F07EFE0220207019A0EBE70121022011
:1003000000F076FE032020701AA0E3E7002102200F
:1003100000F06EFE042020701BA0DBE70120FFF739
:1003200085FF052020701DA0D4E710BD200000200F
:1003300014000020000000204B6579204553432025
:100340002020507265737365640A00004B65792044
:100350005570202020507265737365640A00000098
:100360004B657920446F776E2050726573736564B6
:100370000A0000004B6579204C6566742050726558
:10038000737365640A0000004B65792052696768E1
:100390007420507265737365640A00004B657920A0
:1003A0004F4B20202020507265737365640A000053
:1003B000044910B50A68024202D00860FFF768FFDE
:1003C00010BD0000140401402DE9F84FDFF8B8918A
:1003D0000024A9F1040B23460F2709F1040AABF10D
:1003E000040EC9E00125A5402A40AA427DD1674EEE
:1003F000D1F804C0ACEB0608B44532D014DCBCF133
:10040000030F3AD009DCBCF1000F2AD0BCF1010F78
:100410001CD0BCF1020F31D11DE0BCF1110F17D07F
:10042000BCF1120F2AD119E0B8F5881F19D006DCEB
:10043000B8F5803F15D0B8F5801F1FD111E0B8F591
:10044000001F0ED0B8F5041F18D10AE0CB6815E0E4
:10045000CB681B1D12E0CB6808330FE0CB680C3370
:100460000CE08B682BB1012B4FF0080303D04561E2
:1004700004E0042302E0056100E00023FF2A01D824
:10048000064601E000F104064FEA840501D9A5F112
:100490002005D6F8008007FA05FC28EA0C0803FAC4
:1004A00005F548EA0508C6F800804D68ED0062D5FC
:1004B000374DAE6946F00106AE61AD6924F0030622
:1004C00005F001050095334D06EB050CDCF80850EE
:1004D000A607360F07FA06F825EA0805DFF8B88000
:1004E000404503D14FF0000817E044E0DFF8AC804E
:1004F000404502D14FF001080FE0DFF8A4804045ED
:1005000002D14FF0020808E0DFF89880404502D1A0
:100510004FF0030801E04FF0040808FA06F848EA33
:100520000508CCF808804D68D9F80060ED024D460A
:1005300001D5164300E096432E604D68DAF800605E
:10054000AD02554601D5164300E096432E604D6836
:10055000DBF80060AD035D4601D5164300E096432D
:100560002E604D68DEF80060ED03754601D5164338
:1005700000E096432E60641C0D682A46E5407FF437
:1005800031AFBDE8F88F00000804014000001110F1
:10059000001002400000014000080140000C014032
:1005A0000010014000140140C26821EA02030A4021
:1005B00043EA0241016170470AB1016170470904D1
:1005C000FBE7000001488068704700001800002029
:1005D0000248816802781144816070471800002049
:1005E000074810B5016841F010010160032000F0D8
:1005F000A1F80F2000F006F800F04AF8002010BD26
:100600000020024030B505461C4887B0816941F49E
:1006100000618161806906A900F40060009001A872
:1006200000F030F900F05EF91549164AB0FBF1F11F
:100630001548491E0260416040F2E7320021C0E9DE
:1006400003218160816100F015FB040012D10E4886
:1006500000F03EFB04000DD1192000F03DF8102DF4
:1006600007D200222946192000F044F80748056007
:1006700000E0012407B0204630BD00000010024019
:1006800040420F00002C0140300300201C000020DD
:100690000F4808B5816941F001018161816901F06C
:1006A00001010091C16941F08051C161C06900221E
:1006B00000F0805000900F21901E00F01BF80548BC
:1006C000416821F0E06141F00071416008BD000027
:1006D0000010024000000140002809DB00F01F026A
:1006E000012191404009800000F1E020C0F8001194
:1006F00070470000F0B40E4B1B680C46C3F3022396
:10070000C3F10705042D00D90425191D072901D2BD
:10071000002300E0DB1E012606FA05F1491E2140F8
:1007200099409E40761E16403143F0BC00F02EBF2B
:100730000CED00E0064900F0070208684FF6FF03E1
:10074000184040EA0220034A104308607047000046
:100750000CED00E00000FA052DE9F0470F4605001A
:1007600061D0434E306800F00700B84209D23068CB
:1007700020F0070038433060306800F00700B842CE
:1007800051D128683B4C810712D5400703D56068DA
:1007900040F4E06060602878000703D5606840F4AA
:1007A000605060606068A96820F0F00008436060F5
:1007B0002878C00728D06868012810D0216802284E
:1007C00010D0890700292EDA616821F00301014366
:1007D0006160FFF7F7FE804641F288390DE021683D
:1007E0008903EFE78901EDE7FFF7ECFEA0EB0801D5
:1007F000494502D90320BDE8F0876068696800F0C8
:100800000C00B0EB810FEFD1306800F00700B84268
:100810000BD9306820F0070038433060306800F0B2
:100820000700B84201D00120E5E72878400705D548
:100830006068E96820F4E060084360602878000799
:1008400006D56068296920F4605040EAC100606004
:1008500000F058F86168084AC1F30311515CC840C0
:100860000649086006480068FFF7CCFE0020C2E792
:1008700000200240001002403A2E00082400002010
:100880001C0000200F2202600C4A536803F003038F
:100890004360536803F0F0038360536803F4E0633C
:1008A000C36052684FF4E06303EAD2020261044875
:1008B000006800F007000860704700000010024068
:1008C000002002400448054900684968044AC1F311
:1008D0000221515CC84070472400002000100240F3
:1008E0004A2E00080448054900684968044AC1F3D3
:1008F000C221515CC8407047240000200010024013
:100900004A2E00080E4A51680E4801F00C03042BD1
:1009100011D0082B0FD10C48C1F38343C903C05C2D
:100920000AD55168084AC1F34041921E515C054AFC
:100930005043B0FBF1F07047044948437047000052
:100940000010024000127A002A2E000800093D0023
:100950002DE9F84F040070D02078C04DC00749D071
:100960006868C0F38100012807D06868C0F381007F
:10097000022809D16868C00306D52868800339D5E4
:1009800060680028E7D035E06068B0F5803F0BD0A4
:1009900010B1B0F5A02F11D0286820F48030286065
:1009A000286820F4802002E0286840F48030286025
:1009B000606890B1FFF706FE06460AE0286840F43A
:1009C00080202860F0E700BFFFF7FCFD801B642853
:1009D00073D828688003F7D50CE0FFF7F3FD0646CF
:1009E00005E000BFFFF7EEFD801B6428F0D8286803
:1009F0008003F7D420789A4E80074FF001094FF01A
:100A0000000839D5686810F00C0F07D06868C0F38B
:100A10008100022809D16868C00306D428688007CD
:100A200014D52069012808D110E02069B0B1C6F8BA
:100A30000090FFF7C7FD074605E00AE1FFF7C2FD9A
:100A4000C01B0228C4D828688007F7D528686169C8
:100A500020F0F80040EAC10028600DE0C6F80080F0
:100A6000FFF7B0FD074604E0FFF7ACFDC01B02280E
:100A700023D828688007F7D4207800072CD5794838
:100A8000A169D9B1C0F80090FFF79CFD074604E0CA
:100A9000FFF798FDC01B02280FD8686A8007F7D5BA
:100AA00071484FF4FA510068B0FBF1F0009000BFBC
:100AB0000098411E0091FAD20EE080E0C0F800805C
:100AC000FFF780FD074604E0FFF77CFDC01B02280E
:100AD00075D8686A8007F7D42078400760D5E86940
:100AE0000027C00008D4E86940F08050E861E86958
:100AF000012700F0805000905C480168C90513D4BC
:100B00000168834641F480710160FFF75BFD824616
:100B100006E000BFFFF756FDA0EB0A0064284ED8A0
:100B2000DBF80000C005F5D5E06801280AD008B15F
:100B3000052813D0286A20F001002862286A20F0D6
:100B4000040002E0286A40F001002862E06841F2F7
:100B5000883B98B1FFF736FD82460BE0286A40F0EB
:100B600004002862EEE700BFFFF72CFDA0EB0A01AE
:100B700059455AD8286A8007F6D50CE0FFF722FDC0
:100B8000824605E0FFF71EFDA0EB0A0159454CD84F
:100B9000286A8007F6D41FB1E86920F08050E86128
:100BA000E06988B36968C1F38101022944D0022851
:100BB000C6F8608004D0FFF705FD044638E034E055
:100BC000FFF700FD074604E0FFF7FCFCC01B02280E
:100BD0002BD828688001F7D4206AB0F5803F05D172
:100BE0006868A16820F4003008436860D4E908010F
:100BF0000843696821F4741108436860C6F860907E
:100C0000FFF7E0FC044606E025E000BFFFF7DAFC52
:100C1000001B022809D828688001F7D51BE000BF17
:100C2000FFF7D0FC001B022802D90320BDE8F88F93
:100C300028688001F4D40EE00128F7D06868226AA1
:100C400000F48031914204D1616A00F4701088424E
:100C500001D00120EAE70020E8E700000010024090
:100C60000000424280044242240000200070004004
:100C70007047704710B5040003D094F83D0010B1E0
:100C800007E0012010BD002084F83C00204600F061
:100C90001EF8022084F83D00211D206800F02AFB88
:100CA000012084F8460084F83E0084F83F0084F870
:100CB000400084F8410084F8420084F8430084F83E
:100CC000440084F8450084F83D00002010BD7047C2
:100CD00090F83D10012901D001207047022180F8D1
:100CE0003D100168CA6842F00102CA6000680B4901
:100CF000884208D0B0F1804F05D00949884202D01F
:100D00000849884204D1816801F00701062903D00F
:100D1000016841F00101016000207047002C014092
:100D2000000400400008004070472DE9F0410446EF
:100D30000068C66805694FF00007A90713D5B10719
:100D400011D5F91E01610120207720688069800794
:100D5000204602D0FFF7E8FF04E000F07EF82046CE
:100D600000F07CF82777680716D5700714D521683E
:100D70006FF004000861022020772068806910F479
:100D8000407F204602D0FFF7CFFF04E000F065F877
:100D9000204600F063F82777280715D5300713D5CC
:100DA00021686FF008000861042020772068C0697E
:100DB0008007204602D0FFF7B7FF04E000F04DF8AF
:100DC000204600F04BF82777E80616D5F00614D534
:100DD00021686FF010000861082020772068C06942
:100DE00010F4407F204602D0FFF79EFF04E000F0A1
:100DF00034F8204600F032F82777E80708D0F007EB
:100E000006D021686FF001000861204600F028F844
:100E1000280608D5300606D521686FF080000861E5
:100E20002046FFF725FF680608D5700606D521681D
:100E30006FF040000861204600F01CF8A8060AD5B3
:100E4000B00608D521686FF0200008612046BDE893
:100E5000F041FFF70EBFBDE8F0817047704700001A
:100E600000680349884201D1FFF7B2BB7047000018
:100E7000002C0140704770B5040004D094F8410084
:100E8000002510B106E0012070BD84F840502046D6
:100E900000F024F8242084F841002068C16821F47F
:100EA0000051C160204600F0D3FA2068016921F4A6
:100EB000904101612068416921F02A014161206867
:100EC000C16841F40051C1606564202084F841008C
:100ED00084F842006563002070BD000030B585B025
:100EE00000240094019402940394006814498842F9
:100EF00024D11448816941F480418161816901F400
:100F000080410491816941F00401816180690E4D45
:100F100000F0040004904FF4007000900220019053
:100F20000320039069462846FFF74EFA2815CDE9BD
:100F30000004694628460294FFF746FA05B030BD22
:100F40000038014000100240000801402DE9F8433C
:100F5000044690F84100984616460D46202802D0D7
:100F60000220BDE8F88385B17EB1002060642120B5
:100F700084F84100FFF726FBA6848146E684A0683A
:100F80002027B0F5805F02D003E00120E9E7206967
:100F900010B12E4600250EE000260CE080212046F0
:100FA00000F0B2FAA8B9C6B116F8010B2168486082
:100FB000E08C401EE084E08C4B464FF00002CDF800
:100FC00000800028EAD14FF04001204600F09CFA52
:100FD00040B184F841700320C3E735F8020BC0F339
:100FE0000800E3E784F841700020BAE7FEE700005C
:100FF0000A4B012808D002280ED1C001012906D0D1
:10100000002909D1012203E04FF40070F6E7002225
:1010100001461846FFF7D0BA70470000000C0140A7
:1010200010B598B000201590169015A800F01CFB84
:10103000114C1C221149E0606846FFF7C1F80021FD
:10104000684600F073FB0D4920601C221C3107A884
:10105000FFF7B6F8002107A800F068FB07496060B9
:101060001C2238310EA8FFF7ABF800210EA800F0C3
:101070005DFBA06018B010BD04000020D42D000856
:101080002DE9F04186B0002538480095019502957C
:101090000395816941F010018161816901F01001BE
:1010A0000491816941F020018161816901F0200191
:1010B0000491816941F008018161816901F00801B1
:1010C0000491816941F0040181618069284F00F039
:1010D00004004FF400540490002221463846FFF7E4
:1010E0006BFADFF89080002202214046FFF764FA95
:1010F00001224FF440714046FFF75EFA009401AAC6
:101100000124022682E8700069463846FFF75CF940
:1011100040F202308DE8710069464046FFF754F90D
:10112000154D4FF22000CDE9000569460294404676
:10113000FFF74AF92002CDE90005694602940F48FD
:10114000FFF742F9002205211720FFF7D3FA1720F5
:10115000FFF7C2FA002205212820FFF7CBFA28204A
:10116000FFF7BAFA06B0BDE8F081000000100240B7
:1011700000100140000C0140000021100008014057
:101180000C4810B50A4901604FF4E131416000217B
:1011900081600C22C160C0E904128161C161FFF766
:1011A0006AFE002803D0BDE81040FFF76EB810BDFE
:1011B00000380140E8020020FEE7FEE7154C164E1D
:1011C00000252078012806D002280AD003280ED056
:1011D000042814D01AE0257010A000F0CFF9706830
:1011E0000AE0257011A000F0C9F970680CE02570C4
:1011F00012A000F0C3F9B06800F0DCFA06E0257038
:1012000012A000F0BBF9B06800F0BAFA642000F058
:101210001FFAD6E700000020040000204C454431AE
:101220002053757370656E640A0000004C454431AC
:101230002052756E6E696E670A0000004C4544329C
:101240002053757370656E640A0000004C4544328B
:101250002052756E6E696E670A00000010B550204E
:1012600080F31188BFF34F8FBFF36F8F01F0DAFB6C
:1012700018B104494FF080500860002080F31188B5
:1012800010BD000004ED00E030B58FB028216846A5
:10129000FEF7AFFF14210AA8FEF7ABFF01210804F7
:1012A000CDE900100024029402250491CDE90750F5
:1012B0004FF4E01009906846FFF74AFB08B172B698
:1012C000FEE70F20CDE90A054FF48060CDE90C4020
:1012D00002210AA80E94FFF73FFA002801D072B647
:1012E000FEE70FB030BD70470148FFF71EBD00009C
:1012F00030030020F0B50268194B1A4C1A4D4FF01C
:101300008047984205D0B84203D0A04201D0A842FD
:1013100003D122F070064A683243984205D0B842A1
:1013200003D0A04201D0A84203D122F44074CA687D
:1013300022434C6922F08002224302608A68C26222
:101340000A688262984201D1096901630121416101
:101350000169C90703D0016921F001010161F0BDF4
:10136000002C014000040040000800400B4C4FF0EE
:10137000FF31E06800F0A8F909A000F0FFF8E0688C
:1013800000F07AF90A4D4FF4007421462846FFF721
:101390000BF9C82000F05CF9F7E70000040000201A
:1013A0004C4544312052756E6E696E670A0000002C
:1013B000000C01400C4C4FF0FF31E06800F084F964
:1013C0000AA000F0DBF8E06800F056F90B4D4FF48E
:1013D00080744FF47A7621462846FFF7E5F83046C8
:1013E00000F036F9F7E70000040000204C454432D5
:1013F0002052756E6E696E670A000000000C014095
:1014000001680C3151E8002F22F4907241E800236A
:10141000002BF5D10168143151E8002F22F00102B0
:1014200041E80023002BF5D1016B012909D10168A6
:101430000C3151E8002F22F0100241E80023002B6C
:10144000F5D1202180F8421000210163704700008F
:1014500070B5044600680169E26821F44051114307
:1014600001612169A0680843616908432168CA686D
:1014700041F20C639A430243CA6020684169A26941
:1014800021F44071114341611E492068884202D114
:10149000FFF728FA01E0FFF715FA00EBC00101EBB6
:1014A0000012606864218000B2FBF0F3B3FBF1F33B
:1014B0006FF018067343B2FBF0F5B2FBF0F605EBE4
:1014C0008305322303EB0515B5FBF1F5B6FBF1F609
:1014D00005F0F00505EB0615B2FBF0F6B2FBF0F0F7
:1014E000B0FBF1F06FF01802504306EB800003EB05
:1014F0000010B0FBF1F0216800F00F002844886074
:1015000070BD0000003801402DE9F84398461746A9
:101510000D460446089E24E0701C22D0FFF752F8C6
:10152000A0EB0800B0421AD8CEB12068C1684907C4
:1015300017D5802D15D0402D13D00168C943090758
:101540000FD401680025406800902046FFF758FF3F
:101550000820606484F840500120BDE8F88303202F
:10156000FBE72068006835EA000004D00020B8429C
:10157000D2D00020F1E70120F9E7FEE7014A024955
:1015800000F023B8ED150008900000200907090EAF
:10159000002804DB00F1E02080F80014704700F020
:1015A0000F0000F1E02080F8141D704702E008C829
:1015B000121F08C1002AFAD170477047002001E0CD
:1015C00001C1121F002AFBD170472DE9F0411646D8
:1015D0000F460446002503E03946B047641C6D1CE5
:1015E00020780028F8D12846BDE8F08113B54FF0E7
:1015F000FF33012269460248FFF7A8FC00981CBD92
:10160000E8020020EFF30580002800D00120704799
:10161000FEF7E6FFFFF738FEFFF732FDFFF7B0FDFC
:1016200003A0FFF7ABFFFFF7FBFC00F018F8FEE7A5
:10163000556172743120696E6974206973206F6B13
:101640000A00000001460020842900D0C81C704711
:1016500010B500B9012000F095FC002010BD10B5B8
:1016600000F06AFD002010BD41684FF0010009B193
:1016700000F08BBE00F07EBE38B500240546009415
:10168000FFF7C0FF90B16946284600F0D3FF01285C
:1016900001D0FF2038BD009888B10A494FF0805032
:1016A0000860BFF34F8FBFF36F8F08E000231A4627
:1016B0001946284600F00EFF012800D0FF242046DE
:1016C00038BD000004ED00E038B505004FF0000023
:1016D00000900FD00024481C0ED001B10C46FFF73B
:1016E00091FFB8B16A460021284600F0F1FF0128B9
:1016F00016D104E0802038BD4FF0FF34EFE70098AA
:1017000080B109494FF080500860BFF34F8FBFF39D
:101710006F8F07E02146284601F028F8012801D004
:10172000FF2038BD002038BD04ED00E07FB50D4638
:1017300004464169B0F9080081B1A16971B1FFF7B0
:1017400081FFD4E905128DE80700D4E900102B468B
:10175000226901F02EF9039004B070BDFFF772FF0B
:1017600003A9CDE90001208A2B4682B2D4E90010FA
:1017700001F0F2F8012801D00020EDE70398EBE733
:1017800010B50446FFF73EFF002820460BD001F0BD
:10179000DDFA012809D1064900070860BFF34F8F21
:1017A000BFF36F8F01E000F089FC002010BD000046
:1017B00004ED00E010B500F0F5FC002010BD0000C5
:1017C0002DE9F041184C0F460546E6682068001DDB
:1017D00000F0E6FA38B9206890F82C100120884013
:1017E000216981432161681C07D137B12168BDE8B7
:1017F000F0410E48091D00F017BB20683544B54282
:101800004560216805D2A06BBDE8F041091D00F0DC
:10181000F3BA606B091D00F0EFFAA06A854200D2AE
:10182000A562BDE8F08100002800002054040020DB
:101830002DE9F041054600F003FB2E4CA068401C4A
:10184000A06020682C4F10B1606940B32DE0256086
:10185000A068012829D1002606EB860007EB80004E
:1018600000F0BCFA761C072EF6D323488C3000F02B
:10187000B5FA2148A03000F0B1FA1F48B43000F0AA
:10188000ADFA1D48C83000F0A9FA1B48DC3000F062
:10189000A5FA19488C3060631430A06305E0206815
:1018A000E96AC06A884200D82560606A401C6062AC
:1018B000E96A0120226988401043206101EB810020
:1018C00007EB8000291D00F0AFFA00F0D9FA60693B
:1018D00000280CD02068E96AC06A884207D207490C
:1018E0004FF080500860BFF34F8FBFF36F8FBDE89C
:1018F000F0810000280000207803002004ED00E0C3
:1019000030B4026C0B46002A0BD0C1681144C16090
:101910008468A14201D30168C16030BC1846FEF75B
:101920004FBC30BC70472DE9F041856B174604462B
:101930000026026C82B1C7B1E068FEF741FCE168A5
:10194000206C091AE1602268914202D2A168081A4B
:10195000E060022F16D017E02068A8B9A06801F057
:10196000C7F806460020A0600EE06068FEF728FC7D
:10197000216C606808446060A168884204D32068D4
:10198000606001E005B16D1E6D1CA5633046BDE8C9
:10199000F08110B5044690F8510058B101280CD0E0
:1019A00002280FD0502080F31188BFF34F8FBFF370
:1019B0006F8FFEE7206B00F077FA2046BDE81040FD
:1019C00000F072BA10BD000010484FF440614207A9
:1019D00006D0C01D0D4920F00700411AC1F5406135
:1019E0000B4A00230144C2E900030839183A21F0E8
:1019F000070111604B600B600B1AC0E90013936084
:101A00004FF00040536050617047000068040020B0
:101A10007C000020144E154CA6F1C8074FF08058EA
:101A2000DFF84C9012E000BF00F00AFAF068C568D9
:101A3000281D00F0B5F9A068401EA0606068401E37
:101A4000606000F01DFA2846FFF7A3FF60680028D9
:101A5000EAD138680128F9D9C9F80080BFF34F8F5F
:101A6000BFF36F8FF2E70000400400202800002041
:101A700004ED00E0002807D00021816001600B46E2
:101A80000A46C16000F026BD70470346009829B1A0
:101A90000260C0E90F31012100F0D8BC0060F8E716
:101AA0002DE9F0479A46DDE9098481466FF003038A
:101AB000206B03EB82021044089E20F00707780792
:101AC00007D0502080F31188BFF34F8FBFF36F8F83
:101AD000FEE7002561B1002023180A5C83F834205A
:101AE0000A5C12B1401C1028F6D384F8435001E080
:101AF00084F83450072E00D30626E662C4E9116547
:101B0000201D00F076F904F1180000F072F924614C
:101B1000C6F107006462A061E56484F85050524643
:101B20004946384600F02AF92060B8F1000F01D08C
:101B3000C8F80040BDE8F08730B5114900E0114613
:101B40000A688242FBD34B685C18844203D1406828
:101B500018444860084643681C18944209D1084C50
:101B6000183C2468A24209D052681A4442600A68AC
:101B700012680260814200D0086030BD0460F9E75D
:101B80007C00002010B5044600F05AF9A06B28B183
:101B90005FF0000400F074F9204610BD0124F9E75D
:101BA0000648416B096829B1416BC968C968496831
:101BB000816270474FF0FF31FAE7000028000020F3
:101BC00008484068401C4FF0500080F3118804D052
:101BD000BFF34F8FBFF36F8FFEE7BFF34F8FBFF39E
:101BE0006F8FFEE784000020002150B10A4B42694C
:101BF0009A420FD1806AA3F1280290420AD040B1E4
:101C000008E0502080F31188BFF34F8FBFF36F8F30
:101C1000FEE7012108467047540400202DE9F041F9
:101C2000044600F00DF994F9455004F1240609E04A
:101C3000606A48B1304600F0EDFF08B100F0D0F91D
:101C40006D1E6DB2002DF3DC4FF0FF3684F8456059
:101C500000F016F900F0F4F894F9445004F110077C
:101C600009E0206948B1384600F0D4FF08B100F01F
:101C7000B7F96D1E6DB2002DF3DC84F84460BDE849
:101C8000F04100F0FDB800002DE9F04105460027C5
:101C900000F0E6FA324E306808B9FFF795FE706939
:101CA00005424ED1C5B3083568070ED005F00700D0
:101CB000C0F108000544680707D0502080F3118860
:101CC000BFF34F8FBFF36F8FFEE72DB37068854270
:101CD00037D82348183001460C6801E020460C46EE
:101CE0006168A94202D221680029F7D131688C428B
:101CF00027D007682168016060680837411B1029F8
:101D00000FD96019420708D0502080F31188BFF323
:101D10004F8FBFF36F8FFEE713E041606560FFF701
:101D20000BFF61687068401A7060B268904200D220
:101D3000B060706901430020C4E90001F068401CF4
:101D4000F06000F0A1FF780707D0502080F31188E1
:101D5000BFF34F8FBFF36F8FFEE73846BDE8F081CA
:101D6000640000200449086818B10868826C521C9D
:101D700082640868704700002800002010B5031F27
:101D80004FF080741C601B1F21F001011960191FA6
:101D9000024B0B60143940380A6010BDC11B0008AB
:101DA000D0E9013201699A60D0E901235A604A689A
:101DB000824201D182684A60002202610868401EA6
:101DC0000860086870470000034B036003F154008B
:101DD00008608020106070479400002000F1080126
:101DE0004FF0FF32C0E90112C160016100210160C2
:101DF000704700210161704730B50B685A1C02D052
:101E000000F1080202E0026904E0224654682568F5
:101E10009D42FAD953684B6099608A6051600861AD
:101E20000168491C016030BD42684A6093688B605C
:101E300093685960916008610168491C01607047AE
:101E4000502080F31188BFF34F8FBFF36F8F0A4983
:101E50004868401C486001280CD10848006810F010
:101E6000FF0F07D0502080F31188BFF34F8FBFF3CF
:101E70006F8FFEE7704700008400002004ED00E053
:101E80000849486828B1401E486001D180F3118894
:101E90007047502080F31188BFF34F8FBFF36F8FCF
:101EA000FEE700008400002070B500282AD0164DFF
:101EB000A0F1080460686969084207D1502080F3E6
:101EC0001188BFF34F8FBFF36F8FFEE722683AB1DF
:101ED000502080F31188BFF34F8FBFF36F8FFEE761
:101EE0008843606000F0BCF9606869680844686015
:101EF0002046FFF721FE2869401C2861BDE870409C
:101F000000F0C2BE70BD0000640000204FF0E02071
:101F100000210161816105494FF47A720968B1FBC2
:101F2000F2F1491E41610721016170472400002040
:101F300010B5FEF72FF9114910280ED300F1E0205B
:101F400090F8F0030A78904207D2502080F311886D
:101F5000BFF34F8FBFF36F8FFEE7094800688968B2
:101F600000F4E060884207D9502080F31188BFF365
:101F70004F8FBFF36F8FFEE710BD0000840000207D
:101F80000CED00E010B5020014D00F48006B38B122
:101F9000502080F31188BFF34F8FBFF36F8FFEE7A0
:101FA00000F05EF900211046FFF70AFC00F06CFE1D
:101FB000002807D105494FF080500860BFF34F8FCC
:101FC000BFF36F8F10BD00002800002004ED00E07B
:101FD00002490A6A0260C96841607047280000200F
:101FE00001490120C86170472800002010B50C4647
:101FF00050B1094909681831FFF7FEFE2046BDE8D7
:1020000010400121FFF7DCBB502080F31188BFF3A3
:102010004F8FBFF36F8FFEE72800002070B50400DC
:1020200047D0A26CA2B1606C884200D30146E06A3E
:1020300088423ED0012A3CD11E4D2A6894420FD1DD
:10204000502080F31188BFF34F8FBFF36F8FFEE7EF
:10205000502080F31188BFF34F8FBFF36F8FFEE7DF
:10206000E162A269002A02DBC1F10701A161124EFF
:1020700000EB8000616906EB8000814219D1201DD0
:10208000FFF78EFE012130B994F82C002A6901FA7D
:1020900000F082432A61E06A2A6981401143296184
:1020A00000EB800006EB8000211DBDE87040FFF7CB
:1020B000BBBE70BD280000207803002070B504006E
:1020C0002BD01A4D286884422FD0FFF7B9FE204646
:1020D000FFF78AFDE8B1201DFFF762FEE06A0121EB
:1020E0002A69814011432961114900EB800001EB0D
:1020F0008000211DFFF798FEE06A2968C96A8842BE
:1021000007D30C494FF080500860BFF34F8FBFF3E7
:102110006F8FBDE87040FFF7B3BE502080F3118889
:10212000BFF34F8FBFF36F8FFEE770BD2800002015
:102130007803002004ED00E010B586B0002403947D
:1021400005AA04A903A80494FFF73EFEDDE90301F4
:102150000094CDE9011000230EA11048059A00F06B
:1021600028FC0F490028C86211D0502080F3118844
:10217000BFF34F8FBFF36F8F4FF0FF3088620120A6
:102180004861CC6006B0BDE8104000F09FB806B0D2
:1021900010BD000049444C4500000000151A00081D
:1021A0002800002070B50446FFF74AFE294D04B907
:1021B0002C68201DFFF7F4FD58B9E06A264A00EBB1
:1021C000800152F8211021B90121814028698843FA
:1021D0002861A06A18B104F11800FFF7E1FD1E485C
:1021E000211DDC30FFF720FE94F850000026012866
:1021F00001D184F85060FFF743FE686928B1FFF70A
:102200001FFEFFF7CDFCFFF73BFE2868844213D189
:10221000686990B1286B38B1502080F31188BFF302
:102220004F8FBFF36F8FFEE70C494FF0805008606F
:10223000BFF34F8FBFF36F8F70BD0748DC3000686E
:10224000A968884201D12E6070BDBDE8704000F0E1
:102250000FB80000280000207803002004ED00E003
:102260000248016B491C01637047000028000020F0
:102270001448016B11B10121C16170470021C16196
:102280000169B1FA81F1C1F11F0101EB81020E492F
:1022900051F822306BB101EB820101F108034A6869
:1022A00052684A609A4201D152684A60D16801601E
:1022B0007047502080F31188BFF34F8FBFF36F8FAB
:1022C000FEE7000028000020780300201CB5264906
:1022D00008780190FF20087008788DF800009DF8BC
:1022E00000009DF8002000F0F000904207D0502040
:1022F00080F31188BFF34F8FBFF36F8FFEE79DF818
:1023000000001A4C00F0500020700720A06005E08B
:102310009DF8002052008DF80020401E9DF80020FE
:102320001206F5D4A060032807D0502080F311884E
:10233000BFF34F8FBFF36F8FFEE74FF44070A06085
:10234000019808700A48016841F470010160016851
:1023500041F070410160FFF7D9FD00206060FDF79A
:10236000E3FE00201CBD000000E400E0840000202B
:1023700020ED00E010B502460021012000F012F827
:102380000446FFF777FB204610BD38B50B46002208
:1023900000901146012000F026F80446FFF76AFB82
:1023A000204638BDF8B517460E46050013D005FB8C
:1023B00006F04830FFF768FC04000AD0002084F8DB
:1023C000460004F148023B46314628460094FFF798
:1023D0005CFB2046F8BD502080F31188BFF34F8F7F
:1023E000BFF36F8FFEE738B5049D18B153B1CAB182
:1023F00081B120E0502080F31188BFF34F8FBFF3ED
:102400006F8FFEE7502080F31188BFF34F8FBFF32B
:102410006F8FFEE7502080F31188BFF34F8FBFF31B
:102420006F8FFEE739B1502080F31188BFF34F8FD3
:10243000BFF36F8FFEE748241C46012384F8463023
:102440002B460094FFF721FB204638BD70B50D46A2
:10245000040025D0FFF7F4FCD4E90F20216802FB2B
:102460000011A1600021A163216861600A46D4E9DE
:102470000F01401E00FB0121E16021464FF0FF30BB
:1024800001F8440F487004F110008DB1FFF7A6FC6D
:1024900004F12400FFF7A2FCFFF7F2FC012070BD5D
:1024A000502080F31188BFF34F8FBFF36F8FFEE78B
:1024B00021690029F0D000F0ADFB0028ECD00449E0
:1024C0004FF080500860BFF34F8FBFF36F8FE3E78B
:1024D00004ED00E02DE9FF4782B01D468A464FF02B
:1024E0000008040003D0BAF1000F08D011E050201A
:1024F00080F31188BFF34F8FBFF36F8FFEE7206C1F
:1025000038B1502080F31188BFF34F8FBFF36F8F26
:10251000FEE7022D0AD1E06B012807D0502080F39E
:102520001188BFF34F8FBFF36F8FFEE700F06CFA97
:102530003F4F4FF000094FF0805648B9049838B12A
:10254000502080F31188BFF34F8FBFF36F8FFEE7EA
:10255000FFF776FCA06BE16B884207D3022D05D014
:102560000498D0B1B8F1000F1AD01EE02A465146A7
:102570002046FFF7D8F9616A19B104F1240000F090
:1025800049FB20B13E60BFF34F8FBFF36F8FFFF762
:1025900077FC012006B0BDE8F087FFF771FC22E070
:1025A0006846FFF715FD4FF00108FFF769FCFFF7DC
:1025B00057FEFFF745FC94F94400401C01D184F814
:1025C000449094F94500401C01D184F84590FFF7F0
:1025D00057FC04A9684600F085F930B12046FFF7A2
:1025E0001DFB00F051FB0020D4E7FFF729FCA06B96
:1025F000E16B884213D1FFF743FC04F1100004990A
:10260000FFF7F4FC2046FFF709FB00F03DFB002834
:102610009ED13E60BFF34F8FBFF36F8F98E7FFF7F8
:102620002FFC2046FFF7FAFA00F02EFB90E700009F
:1026300004ED00E070B50E46040009D0206C78B1BE
:10264000502080F31188BFF34F8FBFF36F8FFEE7E9
:10265000502080F31188BFF34F8FBFF36F8FFEE7D9
:10266000206848B9A06838B1502080F31188BFF3C2
:102670004F8FBFF36F8FFEE7FFF75AFC5020EFF349
:10268000118580F31188BFF34F8FBFF36F8FA16B5C
:10269000E06B884218D994F94500491CA163411C9C
:1026A00004D0401C84F8450001200EE0606A002838
:1026B000FAD004F1240000F0ADFA0028F4D0002E86
:1026C000F2D001203060EFE7002085F3118870BD63
:1026D0002DE9F04790468946040003D0B9F1000F78
:1026E00008D011E0502080F31188BFF34F8FBFF363
:1026F0006F8FFEE7206C38B1502080F31188BFF354
:102700004F8FBFF36F8FFEE7FFF712FC5020EFF300
:10271000118680F31188BFF34F8FBFF36F8FA76BC4
:10272000F7B194F9445049462046FFF7E9F87F1E77
:10273000A763681C04D06D1C84F84450012010E08D
:1027400020690028FAD004F1100000F063FA002894
:10275000F4D0B8F1000FF1D00121C8F80010EDE776
:10276000002086F31188BDE8F08700002DE9F343CF
:10277000002683B00400354609D0206C78B1502083
:1027800080F31188BFF34F8FBFF36F8FFEE75020A8
:1027900080F31188BFF34F8FBFF36F8FFEE700F018
:1027A00033F9DFF83C814FF000094FF0805748B90A
:1027B000049838B1502080F31188BFF34F8FBFF3D6
:1027C0006F8FFEE7FFF73CFBA06BC8B1401EA06314
:1027D000206810B9FFF7C6FAA060206950B104F173
:1027E000100000F017FA28B1C8F80070BFF34F8F3F
:1027F000BFF36F8FFFF744FB012005B0BDE8F08306
:10280000049808B166B10FE03DB1502080F3118803
:10281000BFF34F8FBFF36F8FFEE7FFF731FB5DE034
:102820006846FFF7D5FB0126FFF72AFBFFF718FDE7
:10283000FFF706FB94F94400401C01D184F8449052
:1028400094F94500401C01D184F84590FFF718FB2E
:1028500004A9684600F046F80028204612D0FFF789
:10286000DDF900F011FA2046FFF78CF90028A9D015
:102870009DB3FFF7E5FA606A50B3206B0068C0F1C2
:10288000070126E0FFF77EF9E0B1206838B9FFF7CD
:10289000D7FAA06800F078F90546FFF7F1FA04F1DD
:1028A00024000499FFF7A2FB2046FFF7B7F900F0D8
:1028B000EBF9002886D1C8F80070BFF34F8FBFF343
:1028C0006F8F7FE72046FFF7A9F900F0DDF979E780
:1028D0000021A068FFF7A2FB9FE7FFE700208CE73D
:1028E00004ED00E02DE9F0410C46050011D0C4B123
:1028F000FFF7A6FA174BDA686E682068911B471C31
:1029000017D02F681B6A9F4219D0964217D801240E
:1029100010E0502080F31188BFF34F8FBFF36F8F0B
:10292000FEE7502080F31188BFF34F8FBFF36F8F06
:10293000FEE70024FFF7A4FA2046BDE8F0818842B4
:1029400005D9401A20602846FFF742FBF1E7002036
:102950002060DCE7280000202DE9FF5F8346DDE9E9
:102960000E87994616468A469000FFF78DF90500B6
:102970001CD05420FFF788F9040014D000202563F0
:1029800084F85100CDE90240CDE900874B4632463C
:1029900051465846FFF784F82046FEF749FF0120CC
:1029A00004B0BDE8F09F2846FFF77EFA4FF0FF30F5
:1029B000F6E7F0B585B0DDE90B640A9DA6B1DCB1A0
:1029C000542700972663022684F85160002604AF3E
:1029D000CDE90246CDE90057FFF762F82046FEF741
:1029E00027FF049805B0F0BD502080F31188BFF395
:1029F0004F8FBFF36F8FFEE7502080F31188BFF336
:102A00004F8FBFF36F8FFEE70548416919B1006B27
:102A100018B1002070470120704702207047000065
:102A2000280000202DE9F0412F4C0026206B28B112
:102A3000A069401CA0613046BDE8F081E5686D1CCE
:102A4000E56013D1606B006838B1502080F31188C5
:102A5000BFF34F8FBFF36F8FFEE7606BA16B6163B6
:102A6000A063206A401C2062FFF79AF8A06ADFF892
:102A70007C80854209D3606B0068A0B1606BC06840
:102A8000C7687868854211D2A0622068C06A00EBEE
:102A9000800158F82100012800D90126E0690028AA
:102AA000C9D00126C7E74FF0FF30EDE7381DFFF72B
:102AB00077F9B86A18B107F11800FFF771F9F96AE8
:102AC0000120226988401043206101EB810108EB5D
:102AD0008100391DFFF7A8F9F86A2168C96A8842A0
:102AE000C9D30126C7E70000280000207803002092
:102AF00070B504004FF0000140D0214D2868844299
:102B000007D0502080F31188BFF34F8FBFF36F8F32
:102B1000FEE7A06C38B1401EA064636CE26A9A4282
:102B20002CD040B12AE0502080F31188BFF34F8FA2
:102B3000BFF36F8FFEE7201DFFF732F9114A012125
:102B400050B9E06A00EB800352F8233023B92B69B7
:102B500001FA00F083432B61606CE062C0F1070072
:102B6000A061E06A2B6981401943296100EB800074
:102B700002EB8000211DFFF757F90121084670BDC7
:102B8000280000207803002070B504004FF00000FA
:102B900034D01E4DE16A2A68D26A91422FD2A069D0
:102BA000002804DB2868C06AC0F10700A061184E45
:102BB00001EB8101606906EB810188421AD1201D79
:102BC000FFF7EEF8012130B994F82C002A6901FAD8
:102BD00000F082432A612868C06AE0622A69814065
:102BE0001143296100EB800006EB8000211DFFF7F7
:102BF0001BF902E02868C06AE062012070BD616CC8
:102C00002A68D26A9142F8D370BD000028000020E3
:102C1000780300202DE9F041C068C468ACB104F12C
:102C200018000746FFF7BCF8154D286B0126A0B128
:102C300039461448FFF7F8F8E06A2968C96A8842FB
:102C40001CD90120EE61BDE8F081502080F311888D
:102C5000BFF34F8FBFF36F8FFEE7201DFFF7A0F884
:102C6000E16A2A6906FA01F01043286101EB81004C
:102C70000449B43901EB8000211DDBE70020E2E7C5
:102C8000280000202C0400202DE9F0472C4D0024C2
:102C90002746286B38B1FFF7D3F8286B401E28630E
:102CA000286B40B146E0502080F31188BFF34F8F6E
:102CB000BFF36F8FFEE7A968224E0120D1B3A6F1C2
:102CC000B40980463068E8B1F068C46804F11800BF
:102CD000FFF766F8201DFFF763F8E06A2A6908FA33
:102CE00000F11143296100EB800109EB8100211DF6
:102CF000FFF79AF8E06A2968C96A8842E2D3C5F802
:102D00001C80DFE70CB1FEF74BFFAC6944B14646CF
:102D1000FFF788FE00B1EE61641EF9D10020A861C2
:102D2000E86938B10849012738070860BFF34F8FB9
:102D3000BFF36F8FFFF7A4F83846BDE8F0870000B7
:102D4000280000202C04002004ED00E02DE9F041D3
:102D50000027040015D0FFF7EBF85020EFF31185A2
:102D600080F31188BFF34F8FBFF36F8F2046FEF7BC
:102D70003BFF30B3154E306B58B104F118011448C5
:102D80001DE0502080F31188BFF34F8FBFF36F8F8A
:102D9000FEE7E06A3168C96A884200D30127201D36
:102DA000FEF7FEFFE16A012032698840104330617E
:102DB00001EB81000649B43901EB8000211DFFF7CA
:102DC00033F885F311883846BDE8F08128000020EB
:102DD0002C040020642E0008BD1100080000000033
:102DE0000000000080000000000000000000000063
:102DF000542E00086D1300080000000000000000C1
:102E00008000000000000000000000005C2E0008B0
:102E1000B513000800000000000000008000000062
:102E20000000000000000000010202030405060784
:102E300008090A0B0C0D0E0F101000000000000016
:102E40000000010203040607080900000000010257
:102E5000030400004C454431000000004C4544325E
:102E60000000000064656661756C745461736B00EA
:102E7000902E00080000002094000000AC1500080F
:102E8000242F000894000020D4130000BC15000873
:102E90000000000000000000000000000000000032
:102EA0000000000000000000010000001000000011
:102EB0000000000000127A00000000000000000086
:102EC0000000000000000000000000000000000002
:102ED00000000000000000000000000000000000F2
:102EE00000000000000000000000000000000000E2
:102EF00000000000000000000000000000000000D2
:102F000000000000000000000000000000000000C1
:102F10000000000000000000AAAAAAAA0000000009
:042F200000000000AD
:04000005080000ED02
:00000001FF
