:020000040800F2
:10000000F87C00208D020008654E0008FB470008C0
:10001000E94C000835110008515E0008000000009E
:100020000000000000000000000000004D58000823
:100030001912000800000000674E0008515800081F
:10004000A7020008A7020008A7020008A7020008EC
:10005000A7020008A7020008A7020008A7020008DC
:10006000A7020008A7020008A7020008A7020008CC
:10007000A7020008A7020008A7020008A7020008BC
:10008000A7020008A7020008A702000845110008FF
:1000900039110008A7020008A70200081B12000877
:1000A000A7020008A7020008A7020008A70200088C
:1000B000A7020008A7020008A7020008A70200087C
:1000C000A7020008A7020008A7020008A70200086C
:1000D000A7020008715D0008A7020008A702000837
:1000E000A7020008A7020008A7020008A70200084C
:1000F000A7020008A7020008A7020008A70200083C
:10010000A7020008114F0008A7020008A702000874
:10011000A7020008A7020008A7020008A70200081B
:10012000A7020008A7020008511100085D1100088D
:10013000A7020008A7020008A7020008A7020008FB
:10014000A7020008A7020008A7020008A7020008EB
:10015000A702000869110008A7020008A70200080A
:10016000A7020008A7020008A7020008A7020008CB
:10017000A7020008A7020008A7020008000000006C
:10018000A7020008A702000800F002F800F06FF8CC
:100190000AA090E8000C82448344AAF10107DA45E2
:1001A00001D100F064F8AFF2090EBAE80F0013F0C5
:1001B000010F18BFFB1A43F001031847547C0000DD
:1001C000747C00000A444FF0000C10F8013B13F05F
:1001D000070408BF10F8014B1D1108BF10F8015BA0
:1001E000641E05D010F8016B641E01F8016BF9D193
:1001F00013F0080F1EBF10F8014BAD1C0C1B09D1EA
:100200006D1E58BF01F801CBFAD505E014F8016B5B
:1002100001F8016B6D1EF9D59142D6D370470000ED
:100220000023002400250026103A28BF78C1FBD8FF
:10023000520728BF30C148BF0B607047642900F0E7
:100240001981782900F05281732900F0068300207B
:1002500070471FB507F095FD9DE8030000F03CFDD9
:1002600000F02EFB1FBD10B500F093FB10BD00F099
:10027000F6FB1146FFF7EDFF07F078FB00F0FAFC04
:1002800003B4FFF7F0FF03BC00F0B8FE0948804755
:1002900009480047FEE7FEE7FEE7FEE7FEE7FEE768
:1002A000FEE7FEE7FEE7FEE704480549054A064B80
:1002B000704700001959000889010008F85A002009
:1002C000F87C0020F85C0020F85C002053EA020C67
:1002D00000F069802DE9F04B4FF00006002B1FBFA6
:1002E000B3FA83F503FA05F424FA05F65E4012BF6B
:1002F0001643B2FA82F502FA05F4C5F120051EBFD5
:1003000022FA05FC44EA0C04203556EA044C4FEA74
:10031000144418BF641C4FF000084FF000099042CD
:1003200071EB030C39D3002919BFB1FA81F701FA37
:1003300007F6B0FA80F700FA07F6C7F120071EBFEC
:1003400020FA07FC46EA0C062037B6FBF4FCA7EBC4
:100350000507103F07F01F0BCBF120060CFA0BFB33
:100360002CFA06F644BFB3460026202FA4BF5E46F3
:100370004FF0000B5BEA060C08BF4FF0010B19EBC6
:100380000B09ABFB027C48EB0608C01B06FB02CC4A
:100390000BFB03CC71EB0C01C1E70B460246414657
:1003A0004846BDE8F08B13B54FF000004FF0000158
:1003B000AFF30080BDE81C40704700000FB4044953
:1003C00010B503AA029800F04DFA10BC5DF814FBBA
:1003D000F059002070B5044685690068C10601D552
:1003E000302600E02026C00707D070BDD4E90121E7
:1003F00030469047206A401C20626D1EF6D570BDC5
:1004000070B5044685690078C00707D170BDD4E98E
:10041000012120209047206A401C20626D1EF6D5E5
:1004200070BD70B50C460546012A05D028788006B7
:1004300000D5EA69002302E0012305E05B1C93423A
:1004400002D2E05C0028F9D1A869E618C01AA861B8
:10045000286A184428622846FFF7BCFF04E0D5E963
:10046000012114F8010B9047B442F8D32846FFF756
:10047000C7FF70BD2DE9F0410646002410687529BC
:10048000314616A510D0AFF30080002802DA4042B2
:1004900013A507E031688A0701D512A502E04907D4
:1004A00004D511A5012401E0AFF3008000210A2248
:1004B00006F1240709E0B0FBF2FCB0FBF2F302FB0B
:1004C0001C00303078541846491C0028F3D12346CC
:1004D0002A463046BDE8F04100F054B90000000063
:1004E0002D0000002B0000002000000070B5044625
:1004F0000D4621461068AFF300802188090502D51A
:100500000F4A7A4402E00E4A7A440E32002104F186
:10051000240305E000F00F060009965D5E54491CB7
:100520000028F7D120780023000704D5702D02D0D1
:1005300009B1022311322046BDE8704000F022B913
:10054000C27800002DE9F05F894604464FF0000AAA
:10055000DFF874B1FB44C0F820A02046E16888476A
:10056000002874D0252806D0D4E901219047206ABC
:10057000401C2062F1E700265F462046E16888477C
:100580002028054607DB312D05D2781910F8200CFC
:1005900008B10643F1E7B00701D526F00406C4F818
:1005A0001CA00027C4F818A02A2D09D0284605F061
:1005B00060FC38B304EB8708303DC8F8185019E0E8
:1005C00059F8041B204604EB87029161E1688847D3
:1005D000012F054618D1E069002820DA26F0200610
:1005E0001DE0D8F8180000EB800005EB4000303823
:1005F000C8F818002046E1688847054605F039FC30
:100600000028EED1012F0AD02E2D08D12046E16816
:1006100088477F1C0546022F46F02006C4DBA069F0
:10062000002803DA404246F00106A061F00701D03D
:1006300026F010066C2D0BD0682D09D04C2D39D02A
:100640006A2D35D0742D35D07A2D33D016E038E0B0
:10065000E1682F4620468847B842054609D16C2FED
:1006600026D04FF48060E16806432046884705465F
:1006700004E06C2F1AD04FF4807006430DB3A5F13F
:100680004100192802D8203546F400664A4629461A
:10069000204626604E46FFF7D1FD80B101280BD0E1
:1006A000F61D26F0070000F1080956E74020E4E7B0
:1006B0008020D8E70020D6E706F104094DE7284658
:1006C00052E7206ABDE8F09F9878000010B5203A04
:1006D000C0F00B80B1E81850203AA0E81850B1E8FB
:1006E0001850A0E81850BFF4F5AF5FEA027C24BFB1
:1006F000B1E81850A0E8185044BF18C918C0BDE8A8
:1007000010405FEA827C24BF51F8043B40F8043B70
:1007100008BF7047D20728BF31F8023B48BF11F825
:10072000012B28BF20F8023B48BF00F8012B70477F
:100730004FF0000200B5134694469646203922BF7A
:10074000A0E80C50A0E80C50B1F12001BFF4F7AFC5
:10075000090728BFA0E80C5048BF0CC05DF804EBA7
:10076000890028BF40F8042B08BF704748BF20F815
:10077000022B11F0804F18BF00F8012B7047704713
:10078000704770472DE9F0470D469946924604465A
:1007900000F124080168880604D5E06921F0100101
:1007A000216000E00120A84201DD471B00E0002796
:1007B000A1697A1902EB0900081AA0612078C00625
:1007C00002D42046FFF706FE002608E0D4E9012106
:1007D0001AF806009047206A401C761C20624E459D
:1007E000F4DB2078C0060AD52046FFF7F3FD06E0CB
:1007F000D4E9012130209047206A401C2062381E35
:10080000A7F10107F4DC07E0D4E9012118F805009D
:100810009047206A401C2062281EA5F10105F3DCE8
:100820002046FFF7EDFD2078000602D50220BDE846
:10083000F0870120FBE710B5436913B1AFF30080E7
:1008400001E0FFF7EEFD012010BD127800F1240158
:100850000A7000224A700122EDE711684FF0FF3262
:10086000E9E70000074B70B50D467B4400F011F836
:100870000446284600F020F810B14FF0FF3070BD5C
:10088000204670BD3B6E000001694A1C0261087879
:10089000704700B58FB0CDE90131002105910549C0
:1008A0007944CDE9031011466846FFF74BFE0FB0BF
:1008B00000BD0000E5FFFFFF007B00F080007047F7
:1008C00010B542485421FFF733FF41485421FFF748
:1008D0002FFF40485421FFF72BFF3F493B483C4A3C
:1008E0003F4B08603D490A603A491960531C036553
:1008F000481C1065012008653B48344A39A17844FA
:1009000000F01CF920B9384878440A3800F0BBF9E7
:1009100037482F4A35A1784400F010F920B93448FF
:1009200078440A3800F0AFF932482A4A2FA17844B7
:1009300000F004F920B92F4878440A3800F0A3F9F0
:1009400040232248DC000021224600F0D4F820B1E8
:1009500025487844543800F096F91D482246402333
:10096000002100F0C8F820B121487844543800F044
:100970008AF9184822461023002100F0BCF800280C
:1009800006D01C487844BDE81040563800F07BB9CA
:1009900010BD104870B5006D20F001040B4800F048
:1009A00043F90B4800F040F90A4800F03DF909E02E
:1009B000206D20F00105204600F036F9204600F0B9
:1009C00073F82C46002CF3D170BD00009C59002018
:1009D000F0590020445A0020540200205802002000
:1009E0005C02002072000000FF740000770000002D
:1009F000EB740000D77400000EB5CDE9000100F0E3
:100A0000DDFA029069460120ABBE0EBD08B569460D
:100A100000900220ABBE08BD1FB58DE807006946F7
:100A20000520ABBE04B010BD1FB58DE80F006946B0
:100A30000620ABBEF6E708B5694600900920ABBEBC
:100A400008BD1CB5CDE9000169460A20ABBE1CBD3E
:100A5000704708B5694600900C20ABBE08BD7546CE
:100A600000F018F9AE4605006946534620F007002D
:100A7000854618B020B5FFF717FCBDE820404FF0C1
:100A800000064FF000074FF000084FF0000B21F078
:100A90000701AC46ACE8C009ACE8C009ACE8C00945
:100AA000ACE8C0098D46704770B50446051F00F0DC
:100AB000F7F80068002C14BF446870BD002C18BF04
:100AC000AC423CBF20466468F8D301680A18AA42C9
:100AD00018BF456003D12A680546114401602868A3
:100AE0004119A1421CBF6C6070BD616869602168DA
:100AF0000844286070BD70B5C468A50713D06502AE
:100B000011D4B2F5807F09D0B2F5007F06D0B2F5DE
:100B1000806F08D1012300F1240106E05D1E6FF013
:100B20007F46B54201D3012070BD0161C3614160C0
:100B300024F470611143C160002070BD2DE9F041C3
:100B40000C4607461646104600F06EF82078611CE9
:100B500061280AD0722802D077283CD102E0012512
:100B6000002405E00225042402E0082448F20205DE
:100B700011F8010B2B2806D0622809D011F8010CBE
:100B800074280AD00BE045F0030544F00204EFE7B7
:100B900045F0040544F00104EAE744F01004384647
:100BA0002146FFF729FF411C15D0002131617160FA
:100BB0004FF40071F560F1617061200704D5304693
:100BC0000222002100F0E6F8306D40F001003065AF
:100BD0003046BDE8F0810020FBE72DE9F0410D46ED
:100BE0000646104C206DC10704D0410804D020F007
:100BF0000104F7E722460EE0542000F09CF80700BD
:100C00000ED0206D47F0010108435421206538467D
:100C1000FFF78EFD3A4629463046BDE8F0418DE7A4
:100C20000020D6E79C5900202DE9F04704464FF0FC
:100C300000094FF0FF37C568D4E90486A80707D03C
:100C4000204600F057F93046FFF7E0FE002802DAB0
:100C50003846BDE8F087280502D54046FFF724FF57
:100C60004C212046FFF764FD206D20F00100206537
:100C70004846EEE710B50446AFF300802046BDE8D5
:100C80001040FFF7FDBA10B500F07EF9BDE8104046
:100C900000F074B900487047985A0020704700006F
:100CA00000487047A05A002070477047704770474F
:100CB00038B504460A4600206946AFF30080002894
:100CC00008BF38BD02460099204600F0A4F9012073
:100CD00038BD012000F0F3B9F8B5AFF30080054648
:100CE00000200C46102000BF0646A819A0420DD9CE
:100CF000324669460020AFF30080070008BF00F0CD
:100D0000DEF90098A04218BF0546C419FFF7C8FFD6
:100D100005600746F01D20F007004619284600F040
:100D200073F9B44208BFF8BDA21B31463868BDE86C
:100D3000F84000F070B970B50646FFF7B1FF0568DE
:100D400006F10B0020F00704B4429CBF002070BDE8
:100D50002B466A68BAB11068A04210D304F10801AA
:100D600088423CBF5068586007D3516810194160F1
:100D70001168091B016058601460101D70BD134696
:100D80005268002AE7D121462846FFF791FF002844
:100D9000DED170BD2DE9F041044616460D46476987
:100DA000007B80072ED03846FFF745FE50BB3EB390
:100DB000012E02D0022E25D104E0204600F045F994
:100DC00005441DE03846FFF744FEE168002841F085
:100DD0001001E16005DA204600F058F80120BDE876
:100DE000F081C9030BD56268E16A914200D81146CF
:100DF000A26911442269891A814200DD084605442E
:100E0000002D01DA0220EAE7E16A6068E2688142C7
:100E100006D29103E06203D522F4003141F01002C2
:100E2000A6690027AE4213DCE16A814201D90B4674
:100E300000E0034603EB060C2369ACEB030CAC4566
:100E400006DD814201D98C4600E084469C4505D1EF
:100E5000A760276042F02000A5620DE0AD1BE669A7
:100E6000AE1B8142A66000D90846C01A281A20602D
:100E70005819606022F0200003490840E06000201B
:100E800084F84870ABE70000BFCFD7FFC16821F4FA
:100E9000001141F08001C160002181600160704754
:100EA0002DE9F047814614460E464FF0FF38324890
:100EB000D5685769054209D03846A169FFF7C1FDD9
:100EC000002811DB2C48C0430540E5602B46324624
:100ED00049463846FFF7A0FDA16920F00042B21A4A
:100EE00011440028A16103D02046FFF7CFFF404600
:100EF000BDE8F08770B504460569C06A616888423C
:100F000000D80846E16821F42011E160C90312D538
:100F1000A84208D02246411B2846FFF7C1FF10B166
:100F20004FF0FF3070BD0020E562C4E90150E06879
:100F300020F48030E060002070BD10B50446C06829
:100F400020F02000E060A16AA06988420DD0204610
:100F5000FFF7D0FFE06820F4405040F01000E06060
:100F6000A06AA0612069E062606044F24001E0682C
:100F70008843E06010BD000010000200002801D08E
:100F800000F03CB87047000010B5014602A000F028
:100F90007DF8012010BD000053494752545245448A
:100FA0003A2052656469726563743A2063616E2702
:100FB00074206F70656E3A200000000010B5431C6D
:100FC00002E010F8011B71B18107FAD14FF0013234
:100FD00002C88C1A8C4314EAC211F9D0C01A0A064E
:100FE00003D0C01E10BDC01A10BD0A0401D0801E5F
:100FF00010BD0902FCD0401E10BD000001491820A0
:10100000ABBEFEE72600020000210160C0E901102E
:10101000704710207047034640688C46002818BF70
:1010200088423CBF03464068F8D318681844884299
:1010300007D00CF1030020F00700001D411A521ADE
:101040000146081D0A60FFF72FBD10B50146C268B2
:10105000900703D0900607D5886A0AE000F03EF8B2
:1010600001210160881E10BD8B69486818440B6916
:10107000C01A91F848301BB191F84910401A10BDC0
:101080001103FCD50028FADD401E10BD70B50546E1
:101090000C460A2000E06D1C00F018F835B12878E5
:1010A0000028F8D102E0641C00F010F814B1207898
:1010B0000028F8D1BDE870400A2000F007B810B54C
:1010C00000F010F8BDE81040FFF758BF08B56946BA
:1010D0008DF800000320ABBE08BD0000004870473B
:1010E000985A002010B5012805D0002103A0FFF771
:1010F000CDFF012010BD09A1F8E700005349475278
:10110000544D454D3A204F7574206F6620686561D7
:1011100070206D656D6F7279000000003A2048659F
:101120006170206D656D6F727920636F727275707A
:1011300074656400FEE70000014800F00EBE000088
:1011400094020020014800F008BE00009402002034
:10115000014801F005B90000DC080020014801F059
:10116000FFB800007C060020014801F0F9B800003B
:10117000DC06002001681823CAB2103AB2FBF3F271
:10118000054B6FF30901032A9B5CC36500D9091D58
:1011900081650846704700008C7D000810B5014647
:1011A00000208B698A6A4FF0C07453B1B3F5005FB9
:1011B00015D072B1012A0CD0022A0AD0032A09D113
:1011C00004E01AB1012A06D0022A03D1C96AC90172
:1011D00000D5012010BDC96AA142FAD010BD002A75
:1011E000F7D0012AF2D0022AF3D0032AF3D010BD9F
:1011F00030B50468256825F480252560046863609F
:101200008368402B036803D099600068C26030BDDA
:101210009A600068C16030BD70474FF4807001F083
:10122000A7BA72B6FEE70022AFF3008030B50E4BCE
:10123000054601205C7A002C14D1587A1C54587A47
:1012400003EB800045605D7A03F108002A54587A68
:10125000421C5A72303008703A2048702F20887033
:10126000CC70002030BD00009059002030B5B3F59F
:10127000804F05D06FF0704140F82210002030BD43
:101280008C690B688D6823434C688989240144EA82
:101290000524234343EA014150F82230014C234006
:1012A0001943E9E70000F0CF10B50A6850F8223082
:1012B00023F0010340F822308C68082C23D000234F
:1012C0004A682243CC681C430B6922431A434B698A
:1012D0000E4C1A43CB691A430B6A1A434B6A1A43E2
:1012E0008B6A1A43CB6A1A430B6B1A438B691343FD
:1012F000CA6B09681A4350F82130A343134340F8DE
:101300002130002010BD4023DAE700007FFF0F00EE
:1013100030B5D1E9003443EA04138C688D89240286
:1013200044EA054423430C8A074D00EB820005EB99
:10133000045423430C7D6D0105EB04648969234348
:101340000B434360002030BD0000F0FF70B5054640
:101350000146ADF5825D0FA0FFF730F86C46002224
:101360002946204605F054FC28B9204605F0B0F87F
:101370000FA0FFF723F8284605F0ECFE010005D08A
:1013800011A0FFF71BF80DF5825D70BD18A0FFF7E7
:1013900015F8F8E72A2A2A2044656C65746520460A
:1013A000696C653A202573202A2A2A0D0A0000005C
:1013B0006F70656E207375636365737366756C6CAF
:1013C00079210D0A0000000046696C652064656C97
:1013D0006574696F6E206661696C65642C20657246
:1013E000726F7220636F6465EFBC9A25640D0A000A
:1013F0005468652066696C65207761732064656C4C
:1014000065746564207375636365737366756C6C6E
:1014100079210D0A00000000F0B587B002AA6946E4
:1014200024A005F07AF808B123A03EE027A0FEF73B
:10143000C5FF0298009985694489AD1E65434C43F8
:10144000818901FB04F269438E0A0178970A25A07D
:10145000FEF7B4FF27A0FEF7B1FF2FA0FEF7AEFF07
:101460000298818932A0FEF7A9FF0298418932A033
:10147000FEF7A4FF0298816937A0891EFEF79EFF40
:1014800029463CA0FEF79AFF314641A0FEF796FFA1
:1014900045A00099FEF792FF21464AA0FEF78EFF75
:1014A00039464FA0FEF78AFF53A0FEF787FF07B02B
:1014B000F0BD0000303A0000665F676574667265D3
:1014C000652829206572726F720D0A002A2A2A2067
:1014D000464154206469736B20696E666F202A2A26
:1014E0002A0D0A004641542074797065203D20255C
:1014F000640D0A005B313D46415431322C323D4689
:10150000415431362C333D46415433322C343D6501
:10151000784641545D0D0A00536563746F72207301
:10152000697A6528627974657329203D200000007E
:1015300025640D0A00000000436C75737465722009
:1015400073697A6528736563746F727329203D200F
:1015500025640D0A00000000546F74616C20636CF8
:10156000757374657220636F756E74203D20256CF1
:10157000640D0A00546F74616C20736563746F723C
:1015800020636F756E74203D20256C640D0A000089
:10159000546F74616C207370616365284B4229201D
:1015A0003D20256C640D0A004672656520636C75EC
:1015B0007374657220636F756E74203D20256C64B2
:1015C0000D0A00004672656520736563746F7220B2
:1015D000636F756E74203D20256C640D0A00000059
:1015E00046726565207370616365284B4229203D12
:1015F00020256C640D0A0000476574204641542084
:101600006469736B20696E666F204F4B0D0A000092
:1016100010B50446014686B014A0FEF7CFFE694619
:10162000204605F032FD010006D0042919D016A08D
:10163000FEF7C4FE06B010BD1CA00099FEF7BEFE6A
:101640009DF8081020A0FEF7B9FE25A00DF10901B4
:10165000FEF7B4FEBDF80610BDF8040000F056F821
:10166000E8E724A0FEF7AAFEE4E700002A2A2A20E1
:1016700046696C6520696E666F206F663A20257337
:10168000202A2A2A0D0A0000665F737461742829D3
:10169000206572726F72EFBC8C6572726F7220631C
:1016A0006F64653A2025640D0A00000046696C6588
:1016B0002073697A6528627974657329203D202535
:1016C0006C640D0A0000000046696C65206174744A
:1016D000726962757465203D20307825780D0A00A6
:1016E00046696C65204E616D65203D2025730D0AAD
:1016F0000000000046696C6520646F6573206E6FA2
:10170000742065786973740D0A00000010B50C46EA
:1017100040F2BC7100F01F0301EB5021C0F34312F3
:1017200006A0FEF74BFE04F01F03E10AC4F34512C6
:10173000BDE8104007A0FEF741BE000046696C6599
:101740002064617461203D2025642F25642F256469
:101750000D0A000046696C652074696D65203D20A6
:1017600025643A25643A25640D0A000070B50446E4
:101770000146ADF5865D16A0FEF720FE21466C46BB
:101780000122204605F044FA01000AD004291BD0AA
:1017900017A0FEF713FE204604F09AFE0DF5865DB5
:1017A00070BD41F230056D4408E0224664212846B0
:1017B00004F01DFF294617A0FEF700FE03990698C6
:1017C0008842F2D109A000E013A0FEF7F7FDE2E79E
:1017D0002A2A2A2052656164696E67205458542071
:1017E00066696C653A202573202A2A2A0D0A0000B2
:1017F000665F6F70656E2829206572726F72EFBC2C
:101800008C6572726F7220636F64653A2025640D77
:101810000A0000002573000046696C6520646F654E
:1018200073206E6F742065786973740D0A00000070
:1018300030B595B00546014606A805F0F7FA040054
:1018400008D006A804F058FE214612A0FEF7B6FD07
:1018500015B030BD294619A0FEF7B0FD0DF1090401
:10186000694606A805F0F1FB68B99DF8090050B17A
:101870009DF808002146C00601D519A000E01BA074
:10188000FEF79CFDECE71CA0FEF798FD06A804F00F
:1018900033FEDDE70D0A665F6F70656E646972285E
:1018A00029206572726F72EFBC8C6572726F722044
:1018B000636F64653A2025640D0A00002A2A2A20F5
:1018C000416C6C20656E747269657320696E20646A
:1018D00069723A202573202A2A2A0D0A0000000086
:1018E0004449523A2025730D0A00000046494C45F0
:1018F0003A2025730D0A00005363616E20646972FB
:10190000204F4B0D0A00000010B503F0EFF9FFF770
:1019100083FD0AA0FFF78CFF0E230A2240F2E97133
:1019200007A000F013F806A0FFF720FF04A0FFF7C0
:101930006FFEBDE8104002A0FFF708BD303A2F004F
:10194000746573742E7478740000000070B50546D9
:101950000146ADF5845D12A0FEF730FD6C460A220B
:101960002946204605F054F9010009D014A000BF13
:10197000FEF724FD204604F0ABFD0DF5845D70BD3F
:1019800041F230066E44182216A13046FEF79EFE44
:101990002146304605F08BFA294618A0E8E70000FA
:1019A0002A2A2A204372656174696E67205458544C
:1019B0002066696C653A202573202A2A2A0D0A00C0
:1019C0004F70656E2066696C65206572726F72EF8C
:1019D000BC8C6572726F7220636F64653A202564F7
:1019E0000D0A00004C696E65313A2048656C6C6FD9
:1019F0002C2046617446732A2A2A0A005772697499
:101A0000652066696C65204F4B3A2025730D0A00EE
:101A10003EB5044600F00EF900F097F802AB01AABB
:101A20006946204600F08AF80F4D4FF4004400222A
:101A30002146284600F0A8FF202003F09FFE9DF8D5
:101A4000000003F09BFE9DF8040003F097FE9DF854
:101A5000080003F093FE01222146284600F094FF7F
:101A600000F073F83EBD000000180240FEB51646B7
:101A70000F4602AB01AA694600F060F8104D4FF422
:101A8000004400222146284600F07EFF032003F098
:101A900075FE9DF8000003F071FE9DF8040003F050
:101AA0006DFE9DF8080003F069FE3146384603F0EC
:101AB00045FE01222146284600F066FFFEBD0000DB
:101AC0000018024070B5104E4FF400450022294620
:101AD000304600F059FF902003F050FE002003F044
:101AE0004DFE002003F04AFE002003F047FE03F005
:101AF0002DFE040203F02AFE04430122294630464B
:101B000000F042FF204670BD0018024070B50A4E3A
:101B10004FF4004500222946304600F035FF0520ED
:101B200003F02CFE03F012FE044601222946304643
:101B300000F02AFF204670BD0018024010B5040CCA
:101B40000C70010A1170187010BD10B5002403E06C
:101B5000012000F077FD641CFFF7D8FFC007F7D124
:101B6000204610BDFEB516460F4602AB01AA6946D7
:101B7000FFF7E4FF00F05EF8FFF7E7FF114D4FF4C9
:101B8000004400222146284600F0FEFE022003F019
:101B9000F5FD9DF8000003F0F1FD9DF8040003F051
:101BA000EDFD9DF8080003F0E9FD3146384603F0ED
:101BB000DDFD01222146284600F0E6FEFFF7C5FFC5
:101BC000FEBD0000001802402DE9F0478046150BCD
:101BD00016468A46100500D06D1C4746002406E0D4
:101BE0003846FFF715FF641CE4B207F58057AC4296
:101BF000F6D306F0FF09360A554600244FF48077E5
:101C00000AE03A4629464046FFF7ACFF641C08F557
:101C10008078A4B205F58075B442F2D3B9F1000022
:101C200006D0024629464046BDE8F047FFF79ABF76
:101C3000BDE8F08770B50A4E4FF4004500222946F2
:101C4000304600F0A1FE062003F098FD0446012274
:101C50002946304600F098FEFFF777FF204670BD1A
:101C600000180240704770B590F82040012C05D054
:101C7000022C03D0416A41F4802128E0046809B3B2
:101C80002469A40720D04FF4D874056804EB01142C
:101C90002D5915F00405956005682D591AD0ED08E9
:101CA000556005682C5904F00204D4604FF4DA74CE
:101CB000056804EB01142E5906F00F06082E0CD30C
:101CC00008250DE0E468DCE7416A41F40011416257
:101CD000012070BD6D0D1560E3E72D5905F00F056E
:101CE000156105682D59C5F30725956105682C59BF
:101CF000240C54614FF4DC72046802EB0112A45806
:101D00001C700468A458240A5C700468A458240C4D
:101D10009C700468A258120EDA704FF4DE720468E8
:101D200002EB0112A4581C710468A458240A5C71C7
:101D30000468A458240C9C710468A258120EDA712D
:101D4000006829B1016941F020010161002070BDE6
:101D5000C16841F02001C160F8E72DE9F05F054658
:101D6000006800244669D0F804908768D0F80CB069
:101D7000D0F810A0D0F81880F10748D0F90714D097
:101D800001218160B80703D5284600F065FA0CE010
:101D9000780702D54FF4006407E0380702D54FF406
:101DA000805402E0284600F056FAF80516D5296856
:101DB0004FF480708860B80503D5284600F071FAAA
:101DC0000CE0780502D544F4005407E0380502D54C
:101DD00044F4804402E0284600F062FAF80316D585
:101DE00029684FF480308860B80303D5284600F096
:101DF0005AFA0CE0780302D544F4004407E03803B3
:101E000002D544F4803402E0284600F04BFA300753
:101E100007D55FEACB6004D52968102044F400742C
:101E2000C86070074FF0080707D55FEA0B7004D54C
:101E30002868C760284600F09FF9B00706D52868D3
:101E4000C068800702D0284600F098F9700607D5D0
:101E50005FEACA6004D52968102044F480640861F0
:101E6000B00607D55FEA0A7004D5286807612846DE
:101E700000F0EEF9F00606D528680069800702D068
:101E8000284600F0E6F9B00308D55FEAC96005D539
:101E9000296810204860284600F0DCF9F00307D5D7
:101EA0005FEA097004D528684760284600F0FCF90D
:101EB000300446D55FEA497040D5F00504D55FEAA5
:101EC000C87001D044F00104B00504D55FEA887001
:101ED00001D544F00204700504D55FEA487001D5CD
:101EE00044F00404300529D518F0700F26D008F00E
:101EF0007000402815D006DC102809D020280AD010
:101F0000302816D10AE050280ED0602811D10EE0FA
:101F100044F008040DE044F010040AE044F020040A
:101F200007E044F0400404E044F0800401E044F49D
:101F300080742868816921F070018161296804201A
:101F40004860002C05D0686A204368622846FFF785
:101F500089FEBDE8F09F70B5040003D094F820001E
:101F600010B104E0012070BD204600F081F8206827
:101F7000016841F00101016000F00CFD05460526F5
:101F800004E000F007FD401B0A2811D820684068D3
:101F9000C007F6D02068016821F00201016000F05E
:101FA000F9FC05460BE000F0F5FC401B0A2806D9B9
:101FB000606A40F40030606284F82060D2E72068F4
:101FC00040688007EFD4207E0128206801683DD05A
:101FD00021F080010160607E01282068016838D00E
:101FE00021F040010160A07E01282068016833D003
:101FF00021F020010160E07E0128206801682ED0D8
:1020000041F010010160207F01282068016829D07B
:1020100021F008010160607F01282068016824D058
:1020200021F004010160D4E902010843D4E904125B
:10203000114308436168491E08432168C8610020B4
:102040006062012084F82000002070BD41F0800112
:10205000C0E741F04001C5E741F02001CAE721F0A7
:102060001001CFE741F00801D4E741F00401D9E7BE
:102070002DE9F04387B0044614216846FEF758FB6B
:10208000394B3A48DFF8DC801968D4F800C0374A89
:10209000022503260927DFF8D89010300024491CB8
:1020A000C44530D11960012907D1016841F00071A0
:1020B0000160006800F000700590106840F00200B8
:1020C0001060106802AB00F0020005904FF4407001
:1020D000CDE9000583E8D0006946484600F054FB8E
:1020E00000221146132000F0BBFD132000F0AAFDD2
:1020F00000221146142000F0B3FD142000F0A2FDD0
:1021000007B0BDE8F083DFF86C80C445F8D1D0F8A3
:1021100000C04CF0806CC0F800C0D0F800C00129AD
:102120000CF0806CCDF814C0196007D1016841F043
:1021300000710160006800F000700590106840F0C8
:1021400002001060106802AB00F0020005904FF42E
:102150004050CDE9000583E8D0006946484600F0CC
:1021600013FBCDE70064004000000020303802403F
:102170000004024000680040704700007CB522491E
:102180006D46A1F11C0488421DD12B462246002138
:10219000FFF769FD002815D11CA0FEF70FF920A05C
:1021A0002168FEF70BF920A0FEF708F9002420A013
:1021B000295DFEF703F9641CE4B2082CF7D31EA0D6
:1021C000FEF7FCF87CBD104928318842FAD1A1F114
:1021D00044022B460021FFF746FD0028F2D117A04C
:1021E000FEF7ECF80EA02168FEF7E8F80EA0FEF767
:1021F000E5F800240EA0295DFEF7E0F8641CE4B2C7
:10220000082CF7D3DBE700009402002043414E3155
:10221000205265636569766564200D0A0000000040
:1022200049443A2523780A00446174613A00000069
:1022300030782530327820000A00000043414E32C9
:10224000205265636569766564200D0A0000000010
:1022500070477047704770470649884201D106A011
:1022600004E004492831884202D108A0FEF7A6B84C
:10227000704700009402002043414E312053656EA8
:10228000642064617461206F6B0D0A0043414E321B
:102290002053656E642064617461206F6B0D0A00C9
:1022A000704770477047704770472DE9F04104460A
:1022B000876D00F06FFB064694F835000025022874
:1022C00006D08020606584F834500120BDE8F0819C
:1022D0002068016821F0160101602068416921F041
:1022E00080014161206C08B9A06C20B120680168B0
:1022F00021F0080101602068016821F001010160FE
:102300000CE000F047FB801B052807D92020606502
:10231000032084F8350084F83450D7E7206800683B
:10232000C007EED194F85C103F208840B8600120CF
:1023300084F8350084F834500020C7E790F8351051
:10234000022903D08021416501207047052180F8D2
:1023500035100068016821F001010160002070471C
:102360002DE9F84304464FF00009CDF8009063488A
:102370004FF41651A56D0068B0FBF1F72E6894F884
:102380005C10082000FA01F131420FD021680A6880
:1023900052070BD50A6822F004020A6094F85C1018
:1023A0008840A860606D40F00100606594F85C10A2
:1023B0004FF0010808FA01F0304208D0216849695D
:1023C000090604D5A860606D40F00200606594F8CD
:1023D0005C1004208840304208D0216809688907D1
:1023E00004D5A860606D40F00400606594F85C104E
:1023F00010208840304218D021680968090714D598
:10240000A86020680168490304D50068000308D566
:10241000A16C07E00168C90503D4016821F0080137
:102420000160216C09B12046884794F85C10202097
:102430008840304231D021680968C9062DD5A8608E
:1024400094F8350005282068016806D0490347D56F
:10245000006800031DD4616C1CE021F016010160CE
:102460002068416921F080014161206C08B9A06CAD
:1024700020B12068016821F00801016094F85C1027
:102480003F208840A86084F8358084F83490216D1E
:102490001FE0E16B09B120468847606D00282BD012
:1024A000606DC00714D0052084F8350020680168ED
:1024B00021F0010101600098401C0090B84203D84F
:1024C00020680068C007F6D184F8358084F834901D
:1024D000E16C002910D001B02046BDE8F043084768
:1024E0000168C905D5D4016821F01001016084F8A4
:1024F000358084F83490CCE7BDE8F88348020020AA
:102500002DE9F041044600F045FA06465CB1022090
:1025100084F83500002584F834502068016821F0E3
:10252000010101600DE00120BDE8F08100F032FA08
:10253000801B052805D920206065032084F835001C
:10254000F2E720680068C007F0D1226811682048CF
:102550000140D4E901031843D4E903363343184357
:1025600063691843A3691843E3691843236A18434E
:102570000843616A042903D1D4E90B1319430843C2
:10258000106020684069666A20F0070130460E43FB
:10259000012704280CD1A06A0643E06A40B1204616
:1025A000FEF7FCFD20B14020606584F83570BAE785
:1025B000206846612046FEF7DDFD94F85C203F214F
:1025C00091408160656584F835700020ACE70000BB
:1025D0003F8010F02DE9F0410446866D90F83400FC
:1025E000002501280DD0012084F8340094F83570BE
:1025F0000020012F07D084F8340002252846BDE8CA
:10260000F0810220FBE7022784F8357060652046E0
:10261000FEF7EEFD94F85C103F208840B060206823
:10262000016841F016010160206C20B1206801684A
:1026300041F0080101602068016841F0010101607A
:10264000DCE7000070B5044600F0A4F90546601C04
:1026500002D004480078044400F09CF9401BA042DA
:10266000FAD370BD3C020020F0B587B01421684653
:10267000FEF75EF82048016800293AD10121016087
:102680001E480024016841F0010101600068022534
:1026900000F0010005904FF23F00CDE9000502AACD
:1026A00003260C2782E8D0006946154800F06CF834
:1026B00041F23F40CDE9000502AA694682E8D00018
:1026C000104800F061F84FF68370CDE9000502AACA
:1026D000694682E8D0000C4800F056F84FF6337097
:1026E000CDE9000502AA694682E8D000074800F05B
:1026F0004BF807B0F0BD0000080000203838024059
:10270000001402400018024000100240000C024079
:102710000A4930B40B680A4A54681B1BC82B0AD9F3
:1027200009685160B0F5807F03D006A030BCFDF78A
:1027300045BE09A0FAE730BC704700004402002003
:10274000140200206B65795F6F6B20707265737384
:1027500065642075700A00006B65795F6F6B20708F
:1027600072657373656420646F776E0A0000000001
:10277000044910B50A68024202D00860FFF7C8FF9A
:1027800010BD0000143C01402DE9F84FDFF8BCA15A
:102790000022012503264FF00F090AF1040BAAF1CC
:1027A000040E00BF0B6805FA02F42340A34270D167
:1027B0000F7907F00307012F01D0022F16D1876888
:1027C0004FEA420806FA08FC27EA0C07D1F80CC0C9
:1027D0000CFA08FC4CEA070CC0F808C04768A7438D
:1027E0000C79C4F3001494403C4344600C79E443F6
:1027F000A4070AD0C4684FEA420C06FA0CF7BC439F
:102800008F6807FA0CF72743C7600C7904F00304BC
:10281000022C12D1D40800EB840CDCF820405707BE
:10282000FF0E09FA07F824EA0804D1F8108008FA24
:1028300007F848EA0408CCF8208004684FEA420C04
:1028400006FA0CF7BC430F7907F0030707FA0CF7F9
:10285000274307604C6814F4403F70D03C4C276815
:1028600047F480472760246822F0030704F480447B
:102870000094384C07EB040CDCF8084897074FEA43
:10288000177809FA08F7BC43334FB84202D1002742
:1028900024E054E0314FB84201D101271EE0304F0F
:1028A000B84201D1022719E02E4FB84201D10327C7
:1028B00014E02D4FB84201D104270FE02B4FB8424E
:1028C00001D105270AE02A4FB84201D1062705E0C9
:1028D000284FB84201D1072700E0082707FA08F778
:1028E0002743CCF80878DAF800405746D1F804C0FE
:1028F0009C435FEACC2C00D51C433C60DBF80040D5
:102900005F46D1F804C09C435FEA8C2C00D51C4381
:102910003C60DEF800407746D1F804C09C435FEA93
:102920008C3C00D51C433C60084F083F3C68D1F804
:1029300004C09C435FEACC3C00D51C433C60521C65
:10294000102AFFF42FAFBDE8F88F0000083C0140CB
:1029500044380240003001400000024000040240C0
:1029600000080240000C0240001002400014024027
:1029700000180240001C0240426921EA02030A409A
:1029800043EA0241816170470AB1816170470904DD
:10299000FBE7000001488068704700003C0200200F
:1029A00070B5040025D094F83D00002520B984F8C6
:1029B0003C50204600F0B8F8242084F83D00206800
:1029C000016821F0010101602068016841F40041C3
:1029D00001602068016821F40041016000F0AAFA5A
:1029E0004D4A6168914201D84C4900E04C49884207
:1029F00001D2012070BD4B492368B0FBF1F15E6844
:102A000026F03F060E435E606368934206D94FF49A
:102A1000967359434FF47A73B1FBF3F12368491C61
:102A20001E6A26F03F06314319626168914210D850
:102A30004900401EB0FBF1F2521CC2F30B02042A03
:102A400001D2042022E0B0FBF1F0401CC0F30B00E7
:102A50001CE0A268F2B301EBC10303EB0116431EB5
:102A6000B3FBF6F35B1C43F480431B0549D092B3E0
:102A700001EBC10202EB0111401EB0FBF1F0401C62
:102A8000C0F30B0040F4804040F400402168CA6964
:102A90004CF6FF739A431043C861D4E90710014311
:102AA0002068026822F0C00211430160D4E90301EA
:102AB00001432068826848F2FF339A4311438160E2
:102AC000D4E9050108432168CA6822F0FF021043D7
:102AD000C86001E00EE016E02068016841F00101E5
:102AE00001602564202084F83D00256384F83E5071
:102AF000002070BD01EB4106431EB3FBF6F35B1CE7
:102B0000B3E70120C2E701EB4101401EB0FBF1F049
:102B1000401CC0F30B00B7E7A086010080841E00B4
:102B200000093D0040420F0010B586B00446142154
:102B30006846FDF7FDFD13492068884220D1124800
:102B40000021026842F002020260006800F0020008
:102B50000590C02000901220CDE9010103200390D0
:102B60000420049069460948FFF70EFE064810301D
:102B7000016841F400110160006800F40010059044
:102B800006B010BD0054004030380240000402403E
:102B90000248816802781144816070473C0200203D
:102BA0000B4810B5016841F400710160016841F4FF
:102BB00080610160016841F480710160032000F0D0
:102BC0006FF80F2000F006F800F024F8002010BD88
:102BD000003C024070B50D4D04464FF47A712878E0
:102BE000B1FBF0F00A490968B1FBF0F001F08FFB8E
:102BF00048B9102C07D200222146501E00F030F8B0
:102C000000206C6070BD012070BD00003C020020FF
:102C1000480200200A4808B5016841F4804101607B
:102C2000006800F4804000900548001F016841F0F2
:102C300080510160006800F08050009008BD0000E5
:102C400044380240002809DB00F01F0201219140B6
:102C50004009800000F1E020C0F80011704700003A
:102C6000F0B40E4B1B680C46C3F30223C3F10705F7
:102C7000042D00D90425191D072901D2002300E0E5
:102C8000DB1E012606FA05F1491E214099409E40AF
:102C9000761E16403143F0BC03F0DBB80CED00E0CB
:102CA000064900F0070208684FF6FF03184040EAA3
:102CB0000220034A10430860704700000CED00E05A
:102CC0000000FA052DE9F843054600684FF00109B8
:102CD000C1074FF0000601D1400727D5DFF80C816E
:102CE000C8F86860FFF756FE0746414C05E000BF94
:102CF000FFF750FEC01B022857D820680001F7D408
:102D000068688101287A41EA007039498431086095
:102D1000C8F86890FFF73EFE074604E0FFF73AFE6A
:102D2000C01B022841D820680001F7D52878800709
:102D300052D52F484030016841F080510160006851
:102D40002C4C00F080500090206840F4807020608F
:102D5000FFF720FE074604E0FFF71CFEC01B022819
:102D600023D82068C005F7D5214C7034206810F4B2
:102D7000407020D0A98901F4407181421BD02068A5
:102D80001D4920F44070C1F800900E60206020685A
:102D9000C00710D0FFF7FEFD064641F2883707E076
:102DA000FFF7F8FD801BB84202D90320BDE8F88385
:102DB00020688007F4D5E9680D48C1F30122083086
:102DC000032A0BD0016821F4F81101602068A98959
:102DD000C1F30B01084320600020E7E70268074BBE
:102DE00022F4F81219400A430260EFE7000047425C
:102DF0000038024000700040400E4742FFFCFF0FC9
:102E00002DE9F0470E46050065D0DFF81481D8F8AB
:102E10000000F7B200F00700B04207D288F8007057
:102E2000D8F8000000F00700B04254D128683D4CAB
:102E3000810712D5400703D5206840F4E050206098
:102E40002878000703D5206840F46040206020689F
:102E5000A96820F0F000084320602878C0072DD032
:102E6000304968680839012812D0022813D0032895
:102E700011D00968890700292DDA216821F00301A2
:102E800001432160FFF786FD814641F2883A0EE05A
:102E900009688903EFE709688901ECE7FFF77AFD24
:102EA000A0EB0901514502D90320BDE8F087206855
:102EB000696800F00C00B0EB810FEFD1D8F800107A
:102EC000404601F00701B14207D90770006800F0E1
:102ED0000700B04201D00120E7E72878400705D578
:102EE0002068E96820F4E050084320602878000753
:102EF00006D52068296920F4604040EAC1002060BE
:102F000000F038F82168084AC1F30311515CC84049
:102F10000649086006480068FFF75CFE0020C4E729
:102F2000003C024008380240947D0008480200201E
:102F3000400200200448054900680968044AC1F3BA
:102F40008221515CC8407047480200200838024086
:102F5000A47D00080448054900680968044AC1F3D3
:102F60004231515CC8407047480200200838024096
:102F7000A47D0008154810B5006810F00C02144834
:102F800013D04110042A0FD0082A0ED10F4C241F51
:102F90002268236802F03F025B0207D52068C0F375
:102FA0008810A0FB010106E0084610BD2168C1F3AE
:102FB0008811A1FB00010023FDF788F92168C1F306
:102FC0000141491C4900B0FBF1F010BD0838024036
:102FD0000024F4002DE9F84F04006ED02078DFF8CB
:102FE0004C93C007A9F104054AD009F10400016817
:102FF000C1F38101012908D00068C0F381000228D3
:103000000AD1D9F80000400206D52868800337D5D8
:1030100060680028E1D033E06068B0F5803F10D0F0
:10302000B0F5A02F286810D020F4803028602868E0
:1030300020F4802028606068A8B1FFF7ABFC06464A
:103040000DE0286840F48030F4E740F480202860E8
:10305000F7E700BFFFF79EFC801B642873D8286841
:103060008003F7D50CE0FFF795FC064605E000BFAE
:10307000FFF790FC801B6428F0D828688003F7D401
:103080002078DFF8AC8280074FF0000A3ED5A748D1
:10309000001D016811F00C0F08D00068C0F381001A
:1030A00002280BD1D9F80000400207D42868800715
:1030B00016D5E068012800D112E033E1E068B8B12C
:1030C0000120C8F80000FFF765FC064605E000BFD8
:1030D000FFF760FC801B0228C0D828688007F7D55E
:1030E0002868216920F0F80040EAC10028600DE05E
:1030F000C8F800A0FFF74EFC064604E0FFF74AFCC4
:10310000801B02281FD828688007F7D42078000782
:1031100022D5864F87486169703771B101210160FE
:10312000FFF738FC064604E0FFF734FC801B02285A
:1031300009D838688007F7D50EE0C0F800A0FFF77F
:1031400029FC064605E082E0FFF724FC801B0228EC
:103150007DD838688007F7D42078400768D5DFF835
:10316000CCB100270BF13C0BDBF80000C0000BD406
:10317000DBF8001041F08051CBF80010DBF80000C4
:10318000012700F0805000906B4E3068C00510D4CD
:10319000306840F480703060FFF7FCFB009005E081
:1031A000FFF7F8FB0099401A022850D83068C00594
:1031B000F6D55E4EA0686C3601280FD00528306821
:1031C00010D020F001003060306820F00400306042
:1031D000A068B8B1FFF7DEFB00900FE0306840F068
:1031E0000100F4E740F004003060F7E7FFF7D2FB9E
:1031F0000099411A41F28830814266D830688007D0
:10320000F4D50EE0FFF7C6FB009007E0FFF7C2FB26
:103210000099411A41F28830814256D830688007BF
:10322000F4D42FB1DBF8001021F08051CBF800105E
:10323000A069C8B33D49091D0968C1F3810102298C
:103240004AD00228504607D0C8F8600000E03CE0B1
:10325000FFF7A0FB04463BE04746C8F86000FFF7D5
:1032600099FB064605E000BFFFF794FB801B022890
:103270002BD828688001F7D4D4E907010843A16A54
:103280002E4A490802EB0141626A41EA8211084371
:1032900094F82C1040EA0161C9F80010012038664A
:1032A000FFF778FB044606E03EE000BFFFF772FB45
:1032B000001B022809D828688001F7D534E000BF38
:1032C000FFF768FB001B022802D90320BDE8F88F36
:1032D00028688001F4D427E00128F7D0D9F800004D
:1032E000E26900F4800191421CD1226A00F03F01A2
:1032F000914217D147F6C071626A0140B1EB821F5B
:1033000010D1A26A4FF0FF3300F4403103EB5202B8
:10331000B1EB024F06D194F82C1000F07060B0EBC6
:10332000016F01D00120D1E70020CFE7043802402F
:1033300000004742800E4742007000400000FFFF3F
:103340000068503050F8210070470068503040F855
:103350002120704710B500680B4641680D480140B8
:10336000080CD870C1F304245C7001F03F049C7019
:10337000C1F34231197052B901F076FDD870587816
:1033800001F072FD5870987801F06EFD9870002081
:1033900010BD00003FFFFF0010B50B460168896AB1
:1033A000596001680969C1F30E01996000680168FC
:1033B0000D480140C1F305401870C1F306245C704C
:1033C00001F07F049C70890DD97052B901F04CFD59
:1033D0001870587801F048FD5870987801F044FD55
:1033E0009870002010BD00007F7F7F0010B50400A2
:1033F00002D0607F10B106E0012010BD00202077D0
:10340000204600F041F8022060772068C168C94377
:10341000C90632D5CA21416221685320486220463C
:1034200001F036FD20BB20688168164A114081609A
:103430002168886862681043D4E904231A43104362
:1034400088602168E068086120680169228941EA92
:1034500002410161204601F03FFD48B921680A6C34
:1034600022F480220A6421680A6CA3691A430A6460
:103470002268FF21516208B110BD0020012161774F
:1034800010BD0000BFFF8FFF1FB50021009101910B
:10349000029103910068084988420CD102200090F3
:1034A000C00103906846FFF70DFC08B1FDF7B9FEB7
:1034B0000249012008601FBD002800403C0E474221
:1034C00070B50446007F0B46012819D001262677E7
:1034D00002206077B2B19878D97840EA01455878EF
:1034E0001978000240EA413005432168CA20486249
:1034F000216853204862204601F0CAFCD0B122E086
:10350000022070BD5878C10603D500F0EF000A30E4
:103510005870D87801F0B1FC0204587801F0ADFC85
:1035200042EA0022987801F0A8FC0243187842EAA7
:103530004035DAE70748054020684560204601F03D
:10354000CBFC00B966772268FF2151620021217708
:1035500070BD00003FFFFF002DE9F0410446007FF1
:103560000D46012823D04FF0010884F81C8002206A
:1035700060772068002780684FEA4060D2B1002859
:1035800000DBEF70A878297840EA01466878E9788E
:10359000000240EA815006432168CA20486221683F
:1035A00053204862204601F073FCB8B12CE00220A1
:1035B000BDE8F081002800DBEF70287801F05DFCA9
:1035C0000204687801F059FC42EA0022A87801F070
:1035D00054FC0243E87842EA8056DDE70D48064095
:1035E000206806602068816821F480218160D5E927
:1035F0000301084321688A6810438860204601F06F
:103600006BFC08B984F81D802268FF21516227777E
:10361000CEE700007F7F7F0070B504460B4821682D
:10362000C860FFF7B7F905464FF47A7607E000BFA8
:10363000FFF7B0F9401BB04201D9032070BD2068EC
:10364000C0688006F4D5002070BD00005F7F0100D7
:1036500070477047F0B5426E920F0A70426EC2F327
:1036600083624A70426EC2F301628A70426E120C2B
:10367000CA70B0F86420120A0A7190F864204A7186
:10368000826E120DCA80826EC2F303420A72B0F8D3
:103690006820C2F3C0324A72B0F86820C2F38032A8
:1036A0008A72B0F86820C2F34032CA72B0F868205B
:1036B000C2F300320A7300264E73426C4FF4007559
:1036C000012462B1012A3AD0026847499163816BB3
:1036D00041F08051816380F834400120F0BDB0F8A2
:1036E0006820C36E9205120D42EA93720A61C26E9F
:1036F000C2F3C2620A75C26EC2F302624A75C26E3A
:10370000C2F342528A75C26EC2F38242CA75C26E59
:10371000C2F3C2320A760A69521C42650B7E03F07C
:1037200007039B1C9A4042650B7A03F00F0704FACB
:1037300007F383655B0A5A43C0E917250EE090F84A
:103740006820C36E9206920A42EA13420A610A692D
:10375000521C92024265C0E91652056630F86C2F81
:10376000C2F3803201F8192F0288C2F3C6124A70E0
:10377000027802F07F028A704268D20FCA704268F3
:10378000C2F341720A714268C2F382624A714268AE
:10379000C2F383528A714268C2F34052CA710E72F8
:1037A0004268C2F300424A728288C2F3C0328A720F
:1037B0008288C2F38032CA728288C2F340320A73AE
:1037C0008288C2F300324A738288C2F381228A73EC
:1037D0008288C2F30122CA730079C0F346000874DC
:1037E0004C740020F0BD0000FF05400070B5044699
:1037F000B0F8500000250104206801F090FC18B1D9
:10380000A16B0143A16304E00021206801F07DFB6E
:103810000546C5F3432070BDF8B5056B0446006846
:10382000416B09041BD5290719D5D4E90A56002E86
:1038300014D00027206801F087FB05F8010B010A6E
:1038400005F8011B010C05F8021B000E361F7F1C3A
:1038500005F8010C082FEDD3C4E90A56F8BD416BF9
:103860004FF00006C9054FF0010744D539028163C6
:103870002068C16B4CF23A329143C1632068C16A3F
:1038800021F00101C16228071DD515F0220F09D0D2
:10389000206801F075FC28B1A16B0143A1632046AB
:1038A000FFF7D7FE216840F23A50886384F83470FD
:1038B0002663A80703D0204600F0ACF9F8BD2046E7
:1038C00000F0DAF9F8BD2806FCD5A80609D520686D
:1038D00001F056FC28B1A16B0143A1632046FFF71C
:1038E000B8FEA807EED12068C16A21F00801C162C4
:1038F00084F83470E3E7416B490424D5290722D5C5
:10390000D4E90856002EDDD05FF0000715F8010B52
:10391000009015F8011B361F40EA0120009015F8B1
:10392000021B40EA0140009015F8011C40EA0160CA
:1039300000906946206801F01AFB7F1C082FE5D330
:10394000C4E90856F8BD416B40F23A221142F9D061
:10395000416B890703D5A16B41F00201A163416B63
:10396000090703D5A16B41F00801A163416B8906EA
:1039700003D5A16B41F02001A163416BC90603D5BA
:10398000A16B41F01001A163416B890503D5A16BC7
:1039900041F00801A16340F23A7181632068C16B74
:1039A00040F23A329143C163206801F0E9FBA16B18
:1039B0000843A063280706D584F8347026632046A0
:1039C000FFF747FEF8BD2806FCD515F0300F0CD0E8
:1039D000E16B11480865E06BFEF7B0FC0028F1D000
:1039E000E06BBDE8F84001F051BDA8070CD0216C98
:1039F0000A480865206CFEF7A1FC0028E2D0206C84
:103A0000BDE8F84001F020BDA66384F83470266359
:103A10002046FFF71DFEF8BD8D54000849540008EC
:103A200070B504000ED094F83400002518B925773D
:103A3000204600F04DF8032084F83400204600F0C2
:103A40000BF808B1012070BDA5632563012084F83F
:103A50003400002070BD0000FEB50025044676202D
:103A60000095CDE901502B462A462946206801F0F1
:103A700055FA154E46F8A05F206801F061FA01255D
:103A800035600220FEF7DEFD204601F099FD28B1E9
:103A900084F83450A16B0143A16313E0204601F088
:103AA00017FD0028F4D14FF40071206801F098FA56
:103AB000002808D0226805499163A16B0143A163E6
:103AC00084F834500120FEBD00802542FF054000EF
:103AD0002DE9F04F87B0054614216846FCF728FE13
:103AE0004649286888427DD145480068444940F4E9
:103AF00000600860086800F40060059040481438D1
:103B000000683F4940F0040014390860086800F07C
:103B100004000590086840F0080008600868022466
:103B200000F0080005904FF48850CDE9000402AA87
:103B3000002003264FF00C0882E841016946314815
:103B4000FEF722FE02AA002082E841010427CDE907
:103B5000007469462C48FEF717FE2D4C2B484FF099
:103B60000068C4E9000800204FF48069A060C4E93F
:103B70000309B8024FF4804BC4E9050BC4E9097688
:103B80004FF0200A0020C4E907A07E05B7102046A8
:103B9000C4E90B67FEF7B4FC08B1FDF742FB2C64E7
:103BA000A5631B4C194860344830C4E90008402024
:103BB000A0600020C4E90309C4E907A004206062F2
:103BC00004F12802032082E8C1004FF48051C4E9C7
:103BD000051B2046FEF794FC08B1FDF722FBEC63C1
:103BE000002200E007E011463120A563FFF738F816
:103BF0003120FFF727F807B0BDE8F08F002C014017
:103C00004438024000080240000C02405864024060
:103C10007C06002070B50AA0FCF7D0FB0EA0FCF7D4
:103C2000CDFB134D0A2413A0295DFCF7C7FB641CD0
:103C3000A4B20F2CF7D9BDE8704006A0FCF7BEBBBC
:103C4000444D41205265616420626C6F636B203685
:103C50002C204F4B0D0A00004461746120696E20D6
:103C60005B31303A31355D2069733A200000000045
:103C7000F803002025642C0070B50AA0FCF79EFB19
:103C80000FA0FCF79BFB144D0A2414A0295DFCF740
:103C900095FB641CA4B20F2CF7D9BDE8704007A0B7
:103CA000FCF78CBB444D4120577269746520746FDA
:103CB00020626C6F636B20362C204F4B0D0A000086
:103CC0004461746120696E205B31303A31355D208A
:103CD00069733A20000000001000002025642C00C9
:103CE00070B5040009D0606A002540B125616561A6
:103CF000A56294F8510040B10CE0012070BD6068ED
:103D0000B0F5827FF4D0E561F2E784F850502046A8
:103D100000F044F8022084F851002068016821F086
:103D200040010160A088218900F4827001F40441FF
:103D30000843A18901F400610843217C01F00201DC
:103D40000843217D01F001010843218B01F400713A
:103D50000843217F01F03801084394F8201001F056
:103D600080010843218D01F4005108432168086057
:103D7000A069042101EA104094F8241001F0100118
:103D80000843216848602068C16921F40061C1616D
:103D90006565012084F85100002070BD10B586B023
:103DA000044614216846FCF7C3FC13492068884286
:103DB00020D112480021026842F48052026000685B
:103DC00000F4805005900D481438026842F0020259
:103DD0000260006800F00200059038200090022088
:103DE000CDE90101032003900520049069460448B1
:103DF000FEF7CAFC06B010BD003001404438024056
:103E0000000402402DE9F84F044690F851001D4689
:103E100016460F46012838D1002F77D0002E75D0D6
:103E200060684FF00408B0F5827F01D1A06810B33C
:103E3000FEF7B0FD824694F85000012825D04FF0DF
:103E4000010984F8509084F851804FF00008C4F8BC
:103E50005480A763A687E687C4F83080A4F834802E
:103E6000A4F83680C4F84080C4F84480A068B0F557
:103E7000004F0CD015E084F85180009313460A4699
:103E8000204600F01CF9BDE8F88F0220FBE720680F
:103E9000016821F0400101602068016821F480413F
:103EA000016020680168490603D4016841F04001BF
:103EB0000160E068C0B134E020688168C90709D0BA
:103EC000007BA16B0870A06B401CA063E08F401EBC
:103ED000E08709E0FEF75EFDA0EB0A00A84202D3EE
:103EE000681C01D032E085B3E08F0028E4D11BE0EC
:103EF00020688168C9070AD0C068A16B0880A06BE0
:103F0000801CA063E08F401EE0870AE01BE0FEF704
:103F100041FDA0EB0A00A84202D3681C01D015E0C5
:103F20009DB1E08F0028E3D152462946204601F09A
:103F3000A1FB08B12020606584F8519084F850807E
:103F4000606D00289FD001209DE7FFE784F8519025
:103F500084F85080032096E72DE9F84F98461646DE
:103F60008A460446FEF716FD814694F85100012862
:103F70001ED1BAF1000F73D0002E71D094F850000A
:103F8000012815D0012784F85070032084F85100CF
:103F900000256565C4F830A0A686E686A563A587DA
:103FA000E58765642564A068B0F5004F03D00CE098
:103FB0000220BDE8F88F2068016821F0400101600F
:103FC0002068016841F48041016020680168490669
:103FD00003D4016841F040010160E068B0F5006F72
:103FE000606803D048B3012E27D047E008B1012E06
:103FF0001FD1206B21680088C86006E020688168B6
:10400000890709D5216B0988C160206B801C20635A
:10401000E08E401EE0860CE0FEF7BCFCA0EB090140
:10402000414503D3B8F1FF3F03D035E0B8F1000FAD
:1040300032D0E08E0028E1D123E0206B21680078A7
:10404000087306E02068816889070AD5216B097822
:104050000173206B401C2063E08E401EE0860DE063
:104060002BE0FEF797FCA0EB0901414503D3B8F123
:10407000FF3F03D010E0B8F1000F0DD0E08E002814
:10408000E0D14A464146204601F022FB08B12020FB
:104090006065A06830B109E084F8517084F8505030
:1040A000032086E72068C1688068009084F851701A
:1040B00004F8505F60680028F3D0012079E72DE90B
:1040C000FF4F81B01D46934604464FF001090E9EF6
:1040D000FEF760FC074694F851006168012806D09D
:1040E000B1F5827F3CD1A168C9BB042838D10298C0
:1040F000002871D0BBF1000FFBD0002DF9D094F84F
:10410000500001282CD04FF0010A84F850A094F8F8
:104110005100042802D0052084F851004FF0000817
:10412000C4F85480C4F838B0E587A58702992163A4
:10413000E586A586C4F84080C4F8448020680168FC
:10414000490603D4016841F040010160E068B0F520
:10415000006F606808D0F0B3012D49D081E0FFE71F
:10416000022005B0BDE8F08F08B1012D39D1206BD8
:1041700021680088C860206B801C2063E08E401E90
:10418000E0862EE02068816889070FD5E18E69B14D
:10419000B9F1010F0AD1216B0988C160206B801C25
:1041A0002063E08E401EE0864FF0000920688168A1
:1041B000C9070CD0E18F51B1C068A16B0880A06B1A
:1041C000801CA063E08F401EE0874FF00109FEF7DE
:1041D000E1FBC01B01E00BE067E0B04201D3701CC3
:1041E00050D1E08E0028CDD1E08F0028CAD13EE02A
:1041F000206B216800780873206B401C2063E08EE0
:10420000401EE0862DE02068816889070FD5E18E89
:1042100069B1B9F1010F0AD1216B09780173206BE3
:10422000401C2063E08E401EE0864FF000092068AD
:104230008168C9070CD0E18F51B1C068A16B0870CB
:10424000A06B401CA063E08F401EE0874FF0010987
:10425000FEF7A0FBC01BB04202D3701C01D011E0DE
:1042600086B1E08E0028CED1E08F0028CBD13A462F
:104270003146204601F02CFA50B12020606584F8C8
:10428000508012E084F851A084F85080032068E741
:10429000A06818B92068C1688068009084F851A0AF
:1042A00084F85080606D0028F1D0012059E770B586
:1042B00015460E46040003D094F8490010B107E0FB
:1042C000012070BD002084F84800204600F01DF851
:1042D00004F108012068FCF7E7FF3146A268206876
:1042E000FDF716F8D4E901022946236BFCF7BEFF5F
:1042F0002168A06851F8202042F0010241F82020F6
:10430000012084F84900002070BDFEF7ADB910B55A
:10431000401EB0F1807F01D3012010BD4FF0E0249A
:1043200060610F21601701F094FD0020A06107205B
:104330002061002010BD704770470000F8B501688B
:1043400004460868CA684B6910F00F0F4FF000056B
:1043500059D003F0010602F49077374365D0C107C6
:1043600005D0D10503D5616C41F0010161644107BD
:1043700005D5D90703D0616C41F002016164810762
:1043800005D5D90703D0616C41F0040161640107D0
:1043900007D502F02001314303D0616C41F00801E0
:1043A0006164616C00293AD0800604D5900602D57C
:1043B000204601F06CFB20684069616CC0F38010FE
:1043C000090700D460B3204601F02CFB2068406947
:1043D000400621D52068143050E8001F21F040012C
:1043E00040E80012002AF5D1E06BA8B172490165DE
:1043F000E06BFDF7A3FF002811D0E06B016D01B069
:10440000BDE8F040084783060FD593060DD520463A
:10441000BDE8F84001F03BBB2046FFF78DFFF8BD3B
:104420002046FFF789FF6564F8BD266B2023012E27
:104430007ED1C6067CD5D6067AD508684868009035
:1044400048694FF0020640064DD5E26B106840689F
:104450004FF480770004000C3AD0A18D814237D907
:10446000E085D069B8422DD020680C3050E8001F9C
:1044700021F4807140E80012002AF5D12068143040
:1044800050E8001F21F0010140E80012002AF5D198
:104490002068143050E8001F21F0400140E800126D
:1044A000002AF5D184F84230256320680C3050E8AA
:1044B000001F21F0100140E80012002AF5D1E06B46
:1044C000FDF7F3FE6663A08DE18D401A81B206E030
:1044D000A18D8142A8D1D069B842A5D1666320469A
:1044E000FFF729FFF8BDA08DE18D401A81B2E08D64
:1044F0000028F7D00029F5D020680C3050E8002FB4
:1045000022F4907240E80027002FF5D12068143083
:1045100050E8002F22F0010240E80027002FF5D1DB
:1045200084F84230256320680C3050E8002F00E00A
:1045300006E022F0100240E80023002BF3D1CDE783
:1045400005062BD5150629D594F841002128C9D197
:10455000A068B0F5805F01D12069B0B1206A411C2C
:104560002162216800784860E08C401E0004000C45
:10457000E084B7D12068C16821F08001C160206863
:10458000C16841F04001C160F8BD206A0088C0F3F5
:1045900008004860206A801C2062E5E74006F3D5E9
:1045A0005006F1D5CA68204622F04002CA6084F85D
:1045B000413000F021F9F8BD2959000870B5040018
:1045C00004D094F84100002510B106E0012070BD30
:1045D00084F84050204600F023F8242084F841005D
:1045E0002068C16821F40051C160204601F0B0FA92
:1045F0002068016921F4904101612068416921F03E
:104600002A0141612068C16841F40051C1606564BC
:10461000202084F8410084F842006563002070BDCA
:1046200070B586B0064614216846FCF781F8244927
:104630003068884242D123480025016841F01001CA
:104640000160006800F0100005901E4814380168F1
:1046500041F0010101600068694600F00100059029
:104660004FF4C060009002200190012002900320CE
:104670000390072004901448FEF786F8144C134862
:1046800020604FF00060C4E901054014C4E9035004
:1046900080106561C4E90650256220466562FDF719
:1046A0002FFF08B1FCF7BDFDF46300221146252061
:1046B000A663FEF7D5FA2520FEF7C4FA06B070BD52
:1046C00000100140443802400000024040640240B3
:1046D000DC08002090F84230202B01D002207047E7
:1046E00021B11AB10023036301F0B8BA0120704769
:1046F00010B5084A016891420BD1074C074B21784D
:104700004A421944D2B24FF0FF3300F025F800209E
:10471000207010BD001001401002002094070020FE
:1047200070B50A4A016891420ED1094C4FF0FF332F
:104730002178C1F18002D5B2064A11442A4600F020
:104740000BF820782844207070BD00000010014054
:1047500010020020940700202DE9F843044690F849
:104760004100984616460D46202802D00220BDE89A
:10477000F88385B17EB100206064212084F8410077
:10478000FEF708F9A6848146E684A0682027B0F5E4
:10479000805F02D003E00120E9E7206910B12E46D6
:1047A00000250EE000260CE08021204601F0A6FA4C
:1047B000A8B9C6B116F8010B21684860E08C401E0C
:1047C000E084E08C4B464FF00002CDF800800028DA
:1047D000EAD14FF04001204601F090FA40B184F850
:1047E00041700320C3E735F8020BC0F30800E3E78C
:1047F00084F841700020BAE77047FEE70E4810B514
:104800000C4901601521416000214FF48032816024
:10481000C0E903124161017641768176C176017764
:104820004177FDF798FB002803D0BDE81040FCF766
:10483000F8BC10BD00640040940200200E4810B582
:104840000C4901601521416000214FF480328160E4
:10485000C0E903124161017641768176C176017724
:104860004177FDF778FB002803D0BDE81040FCF746
:10487000D8BC10BD00680040BC020020114808B53B
:10488000016841F4800101600068002200F48000AA
:10489000009011463A20FEF7E3F93A20FEF7D2F9EC
:1048A000002211463B20FEF7DBF93B20FEF7CAF958
:1048B000002211464520FEF7D3F9BDE80840452007
:1048C000FEF7C0B93038024010B504490448FCF77F
:1048D000AAFC0249491E087010BD000035020020E4
:1048E000200200202DE9F04F8FB01C216846FBF715
:1048F0001FFF1C2107A8FBF71BFF2E484FF0040BDE
:104900000024C0E902B41025C0E904458461C461F3
:104910004FF4805A0462C0E9094AC46204634463E4
:10492000DFF8949084634FF020484464C0E9008924
:104930000F26CDE9004602A90A20112781E8B1001F
:10494000002269461B480694FFF7B1FC08B1FCF74A
:1049500068FC18480621503007AAC0E90214C0E9D3
:1049600004458461C4610462C0E9094A4FF480418E
:10497000C0E90B41446384634464C0E900898DE865
:1049800050080597CDE90365FF20CDE90646CDE93E
:1049900008600848CDE90C74CDE90A6569465030D5
:1049A000FFF785FC002801D0FCF73BFC0FB0BDE809
:1049B000F08F0000E4020020040100A02DE9F04F78
:1049C00087B014216846FBF7B3FE5E4800240168F7
:1049D00041F004010160016801F0040105910168E2
:1049E00041F020010160016801F02001059101689A
:1049F00041F080010160016801F0800105910168CA
:104A000041F001010160016801F0010105910168B7
:104A100041F002010160016801F0020105910168A5
:104A200041F040010160016801F040010591016819
:104A300041F010010160016801F010010591016869
:104A400041F0080101600068012200F008003E4FBB
:104A50009502059029463846FDF796FFDFF8ECA051
:104A6000002201215046FDF78FFF01227821504698
:104A7000FDF78AFFDFF8D890012203214846FDF7B1
:104A800083FFDFF8D0B04FF400480122414658467A
:104A9000FDF77AFF0095032601250396CDE9015421
:104AA00069463846FDF770FE59200090CDE9015463
:104AB000694650460394FDF767FE2020CDE90005C6
:104AC000CDE9024669465046FDF75EFECDE9006538
:104AD000CDE9024669464846FDF756FE04208DE8BA
:104AE000310069464846FDF74FFEE8028DE8310087
:104AF00069463846FDF748FE2F024FF40410009730
:104B0000CDE9010569465846FDF73EFE0097694626
:104B10005046CDE90145FDF737FECDF800800396FC
:104B2000CDE9015469465846FDF72EFE0022114694
:104B30001720FEF795F81720FEF784F807B0BDE8B8
:104B4000F08F0000303802400014024000000240A4
:104B500000040240001802400D4810B50B490160E6
:104B60000C49416000214FF480428160C0E903128A
:104B700041618161C1610162FDF712FF002803D02C
:104B8000BDE81040FCF74DBB10BD000000540040D4
:104B900084030020A086010070B586B01421684609
:104BA000FBF7C6FD2348002421490594C0E9001401
:104BB0007F218160FF21C0E9031444618461FEF715
:104BC00015FC08B1FCF72DFB00211A48FEF7B8FBD5
:104BD00046F26666B04228D009258DF8005035208F
:104BE0008DF801008DF802400394012269461148B6
:104BF0000494FEF7B1FC08B1FCF713FB06208DF816
:104C000014008DF8155026208DF816008DF81740E9
:104C1000012205A90748FEF753FC08B1FCF701FB88
:104C2000324601210348FEF790FB06B070BD00003C
:104C300000280040D80300200B4810B50949016046
:104C4000002141608160C160016141610421816195
:104C5000FEF7E6FE002803D0BDE81040FCF7E1BAFD
:104C600010BD0000002C0140F80500200F4810B5D1
:104C70000D4901604FF48271416000218160C16083
:104C80004FF400720161C0E90512C1610162416225
:104C900081620A21C162FFF723F8002803D0BDE832
:104CA0001040FCF7BEBA10BD003001403C070020A8
:104CB0000C4810B50A4901604FF4E1314160002110
:104CC00081600C22C160C0E904128161C161FFF7FB
:104CD00075FC002803D0BDE81040FCF7A2BA10BD57
:104CE0000010014094080020FEE7000008B50122F2
:104CF0001749184801F060FF010027D00D2901D0A5
:104D000015A01AE01FA0FBF759FB4FF4804000905C
:104D1000264B002201210E4801F08EFC010001D03B
:104D200023A00AE02CA0FBF749FB0122084909480F
:104D300001F042FF010004D031A0BDE80840FBF7BC
:104D40003DBB38A0BDE80840FBF738BB3EA0F9E703
:104D5000350200203C090020E58F91E7949FE5850E
:104D6000B6E4BB96E99499E8AFAFEFBC8CE99499AF
:104D7000E8AFAFE4BBA3E7A081203D2025640D0A86
:104D8000000000000D0AE6B2A1E69C89E69687E4E1
:104D9000BBB6E7B3BBE7BB9F2CE5BC80E5A78BE6C2
:104DA000A0BCE5BC8FE58C960D0A000070190020B0
:104DB000E6A0BCE5BC8FE58C96E5A4B1E8B4A5EF10
:104DC000BC8CE99499E8AFAFE4BBA3E7A081203D98
:104DD0002025640D0A000000E6A0BCE5BC8FE58C30
:104DE00096E68890E58A9FEFBC8CE5BC80E5A78BB2
:104DF000E9878DE696B0E68C82E8BDBD5C720A005C
:104E0000E58F91E7949FE99499E8AFAFEFBC8CE907
:104E10009499E8AFAFE4BBA3E7A081203D202564CF
:104E20000D0A00002A2A2A20E69687E4BBB6E7B3DB
:104E3000BBE7BB9FE68C82E8BDBDE68890E58A9F14
:104E4000202A2A2A0D0A0000E69687E4BBB6E7B3BB
:104E5000BBE7BB9FE68C82E8BDBDE68890E58A9FF4
:104E60000D0A0000FEE77047010901EB810100F027
:104E70000F0000EB4100C0B27047002102E00A3889
:104E8000C0B2491C0A28FAD2090740EA11607047EB
:104E90002DE9F041044600680025C168490618D490
:104EA000C16841F08001C160FDF774FD06464FF412
:104EB0007A78042707E000BFFDF76CFD801B4045B2
:104EC00001D9677701252068C068400601D4002D0C
:104ED000F2D02846BDE8F08170B504460068002590
:104EE000C16821F08001C16020688068800606D416
:104EF0002046FEF791FB10B104206077012528467B
:104F000070BD006800F003007047084440697047B6
:104F10000148FEF781BC0000F805002070B50DF1D6
:104F2000100C11439CE87000234319432943426845
:104F3000314347F6FF639A430A434260002070BD45
:104F40000321016000207047D0F8800070470A6894
:104F50008260D1E901231A43D1E903310B43C168CF
:104F60001A436FF30B011143C160002070470968B9
:104F7000C0F880100020704710B585B00446372077
:104F8000CDE9001040200290002003904FF4806093
:104F9000049069462046FFF7DAFF41F28832372154
:104FA000204600F007F905B010BD000010B504461A
:104FB0000A4885B001432920CDE900104020029025
:104FC000002003904FF48060049069462046FFF76C
:104FD000BEFF204600F0A6F905B010BD000010800D
:104FE00010B585B004461020CDE900104020029095
:104FF000002003904FF48060049069462046FFF73C
:10500000A6FF41F288321021204600F0D3F805B007
:1050100010BD000030B585B0002405460094019411
:105020004FF480600294CDE9034069462846FFF7BB
:105030008EFF0B484FF4FA510068B0FBF1F041F2DB
:1050400088314843401E03D24FF0004005B030BDC8
:10505000696B0906F6D5C520A8632046F6E700006F
:105060004802002010B585B004464FF4D57000907A
:105070000820019040200290002003904FF48060AF
:10508000049069462046FFF762FF204600F0B0F921
:1050900005B010BD10B585B004460720CDE900204D
:1050A00040200290002003904FF4806004906946F5
:1050B0002046FFF74CFF41F288320721204600F0DE
:1050C00079F805B010BD10B585B004460021022066
:1050D000CDE90010C020CDE902014FF480600490BA
:1050E00069462046FFF733FF204600F0F3F805B08D
:1050F00010BD10B585B004460920CDE90010C020D0
:105100000290002003904FF480600490694620468E
:10511000FFF71DFF204600F0DDF805B010BD10B50B
:1051200085B004460D20CDE90010402002900020FB
:1051300003904FF48060049069462046FFF707FF14
:1051400041F288320D21204600F034F805B010BD40
:1051500030B585B00C46054600210320CDE900108E
:105160004020CDE902010001049069462846FFF77E
:10517000EEFE22460321284600F0F6F805B030BDC9
:1051800010B585B0044600210C20CDE90010402068
:10519000CDE902010001049069462046FFF7D7FEE1
:1051A000034A0C21204600F005F805B010BD0000B0
:1051B00000E1F505454B10B51B684FF4FA54B3FBFD
:1051C000F4F353435B1E02D24FF0004010BD426B1C
:1051D00012F0450FF6D01205F4D4426B520703D5F6
:1051E00004218163084610BD426BD20702D0012121
:1051F000816305E0C52282630269D2B28A4201D08E
:10520000012010BD0021FFF780FE3149084201D185
:10521000002010BD002802DA4FF0007010BD4100E0
:1052200001D5402010BD810001D5802010BDC100F6
:1052300002D54FF4807010BD010102D54FF400700B
:1052400010BD410102D54FF4806010BDC10102D5EF
:105250004FF4006010BD010202D54FF4805010BD24
:10526000410202D54FF4005010BD810202D54FF427
:10527000804010BDC10202D54FF4004010BD410373
:1052800002D54FF4003010BD810302D54FF48020C9
:1052900010BDC10302D54FF4002010BD010402D59A
:1052A0004FF4801010BD410402D54FF4001010BD22
:1052B000810402D54FF4800010BD000702D54FF4E1
:1052C000000010BD4FF4803010BD000048020020E7
:1052D00008E0FFFD12494FF4FA520968B1FBF2F100
:1052E00041F288325143491E02D24FF000407047CC
:1052F000426B12F0450FF6D01205F4D4416B49070A
:1053000003D50421816308467047416BC90703D068
:105310000121816308467047C521816300207047E1
:10532000480200200F494FF4FA520968B1FBF2F12C
:1053300041F288325143491E02D24FF0004070477B
:10534000426B12F0450FF6D01205F4D4416B4907B9
:1053500003D50421816308467047C521816300207D
:10536000704700004802002030B5204B4FF4FA543B
:105370001B68B3FBF4F341F2883463435B1E02D233
:105380004FF0004030BD446B14F0450FF6D02405BB
:10539000F4D4436B5B0703D504218163084630BD19
:1053A000436BDB0702D00121816303E00369DBB2B9
:1053B0008B4201D0012030BDC52181630021FFF760
:1053C000A4FD10F4604F04D0410406D54FF4005002
:1053D00030BD000C1080002030BD000402D54FF419
:1053E000805030BD4FF4803030BD000048020020B6
:1053F00014494FF4FA520968B1FBF2F141F28832D4
:105400005143491E02D24FF000407047426B12F0E8
:10541000450FF6D01205F4D4416B490703D504219A
:10542000816308467047416BC90703D0012181633E
:1054300008467047416B490601D540218163002031
:10544000704700004802002010B5846B40F23A50CB
:10545000216888632046FEF7C9F9012184F83410D9
:1054600000212163062801D0052805D12068FFF717
:1054700087FEA16B0843A063A06B0028204602D0E2
:10548000FEF7E7F810BDFEF7E3F810BD10B5846B2A
:1054900040F23A50216888632046FEF7A7F90121BF
:1054A00084F8341000212163062801D0052805D195
:1054B0002068FFF765FEA16B0843A063A06B00287E
:1054C000204602D0FEF7C5F810BDFEF7C1F810BDAA
:1054D00010B590B004460120ADF838002068FFF701
:1054E00010FD002854D0606C032842D02068FFF7DC
:1054F000EAFD00284AD100212068FFF706FD606719
:1055000004212068FFF701FDA06708212068FFF74C
:10551000FCFCE0670C212068FFF7F7FCC4F8800072
:10552000606C032825D00EA92068FFF711FE002823
:105530002CD1606C03281CD0BDF838002065010414
:105540002068FFF7D6FD002820D100212068FFF752
:10555000DCFC606604212068FFF7D7FCA066082108
:105560002068FFF7D2FCE0660C212068FFF7CDFC35
:10557000206704212068FFF7C8FC000DE06403A940
:105580002046FEF767F830B14FF0805010B010BDE4
:105590004FF08060FAE7B4F850000023020420685E
:1055A000FFF778FD0028F1D104F1100007C88DE85D
:1055B000070094E80F00FFF7B1FC0020E6E70000C9
:1055C0002DE9F84F0026044600963546B04600689F
:1055D000FFF720FD002827D12068FFF743FD4FF09B
:1055E000805B4FF001094FF6FF7748B1A664206851
:1055F000FFF710FD002817D1A06C012802D020E091
:10560000C4F8489000212068FFF7B6FC58B918E0AC
:1056100000212068FFF7B0FC002805D15146206822
:10562000FFF7C4FC10B15846BDE8F88F0021206890
:10563000FFF76BFC05464FEAD0780098401C0090BD
:1056400002E0DFF82CA00098B84202D2B8F1000FB7
:10565000DED00098B84202D34FF08070E4E76800D3
:1056600002D5C4F8449000E066640020DCE7000046
:10567000000010C1F8B5044640684FF482739842A8
:1056800021D1A0684FF48065B0F5004F01D0A84249
:105690000AD12068066826F04006066060689842D5
:1056A00011D1A068A8420ED000920B4600228021A2
:1056B000204600F06DF8002804D0606D40F0200016
:1056C00060650320F8BD00920B4600220121EFE740
:1056D000F8B515460E460B460092044601220221FB
:1056E00000F056F8A0B9134813490068B0FBF1F078
:1056F0004FF47A71484300906068B0F5827F0DD115
:105700003346002280212046009500F041F870B118
:10571000606D40F0200060650320F8BD009830B156
:10572000401E009020688068C0430006F6D5002027
:10573000F8BD00004802002000366E010A4601460E
:10574000C8230148FEF75EBB3C07002008B50020D7
:105750008DF80000C823012269460348FEF752FB7A
:105760009DF8000008BD00003C0700200A460146E5
:10577000C8230148FEF7F0BB3C07002001B5C82351
:10578000012269460148FEF7E7FB08BD3C070020FF
:105790002DE9F8431E46914688460446089DFDF7CC
:1057A000F9F8401B351AFDF7F5F80746264800685A
:1057B000C0F3CB3068430AE0701C09D0FDF7EAF86B
:1057C000C01BA8420FD275B10098B8B3401E00901C
:1057D0002068816838EA010033D000214945EBD1C7
:1057E0000020BDE8F8832068416821F0E0014160B5
:1057F0006068B0F5827F0BD1A068B0F5004F02D091
:10580000B0F5806F04D12068016821F0400101608B
:10581000A06AB0F5005F09D12068016821F4005149
:1058200001602068016841F400510160012084F8A2
:105830005100002084F850000320D2E7FFE7002544
:10584000C6E70121CAE700004802002070470000B7
:1058500010B5FDF79DF908490868401C0860B0F5CF
:105860007A7F07D300200860BDE810400821034874
:10587000FDF782B810BD00001402002000000240B5
:1058800030B593B030216846FAF752FF14210CA8C6
:10589000FAF74EFF1E480025016841F08051016073
:1058A000006800F0805011901A48016841F480416E
:1058B00001600068022400F48040119005200090EF
:1058C0004FF480300190012002908005CDE9064020
:1058D00008AA0420A82182E813000B906846FDF76F
:1058E00079FB08B172B6FEE70CA90F2081E8310000
:1058F0004FF4A0500F904FF48050109005210CA849
:10590000FDF77EFA002801D072B6FEE713B030BD75
:1059100040380240007000400248016841F47001C4
:105920000160704788ED00E010B5806B0021C185F3
:10593000FEF702FD10BD70B5846B2068406994F8D5
:105940004110C0F3C0100025212904D118B1E5840D
:10595000204600F08EF82068406994F84210C0F3A9
:105960008010222904D118B1E585204600F05AF8AC
:10597000606C40F0100060642046FEF7DDFC70BDF6
:1059800010B50146806B096809684FF00002C9052F
:105990002ED4C28501680C3151E8003F23F4807396
:1059A00041E80034002CF5D10168143151E8003F82
:1059B00023F0010341E80034002CF5D101681431D3
:1059C00051E8003F23F0400341E80034002CF5D1BA
:1059D000202180F84210016B012909D101680C31A6
:1059E00051E8003F23F0100341E80034002CF5D1CA
:1059F0004263016B012902D0FEF77AFE10BD818D52
:105A0000FEF799FC10BD10B5806B01214163016B5D
:105A1000012902D0FEF784FE10BD818D4908FEF7F2
:105A20008AFC10BD01680C3151E8002F22F49072FD
:105A300041E80023002BF5D10168143151E8002F13
:105A400022F0010241E80023002BF5D1016B01296E
:105A500009D101680C3151E8002F22F0100241E811
:105A60000023002BF5D1202180F842100021016392
:105A7000704701680C3151E8002F22F0C00241E864
:105A80000023002BF5D1202180F84110704708B584
:105A900090F84210222901D0022008BD82684FF4FC
:105AA00080539A4201D1016921B1816A9A421BD087
:105AB0004AB10AE00268816A5268C2F308020A80A9
:105AC000816A891C08E0026972B10268526802F0BA
:105AD0007F020A70816A491C8162C18D491E0904D6
