:020000040800F2
:100000006004002005010008FB0D00088D0C0008AD
:10001000F90D000891010008DF0F00080000000042
:10002000000000000000000000000000FF0D0008BC
:100030009301000800000000FD0D0008010E0008FB
:100040001F0100081F0100081F0100081F01000810
:100050001F0100081F0100081F0100081F01000800
:100060001F0100081F0100081F0100081F010008F0
:100070001F0100081F0100081F0100081F010008E0
:100080001F0100081F0100081F0100081F010008D0
:100090001F0100081F0100081F010008BB01000824
:1000A0001F0100081F0100081F0100081F010008B0
:1000B0001F0100081F0100081F0100081F010008A0
:1000C0001F0100081F0100081F0100081F01000890
:1000D0001F0100081F0100081F0100081F01000880
:1000E000950100081F0100081F010008DFF810D06B
:1000F00000F02CF80048004769100008AFF30080BA
:10010000600400200648804706480047FEE7FEE7F7
:10011000FEE7FEE7FEE7FEE7FEE7FEE7FEE7FEE7B7
:10012000630E0008ED000008D2B201E000F8012BD8
:10013000491EFBD270470022F6E710B513460A4667
:1001400004461946FFF7F0FF204610BD064C074D48
:1001500006E0E06840F0010394E807009847103497
:10016000AC42F6D3FFF7C6FFC0100008E01000084D
:10017000064B4FF40051012805D0002805D100227C
:10018000184600F0A5B90122FAE7704700100140B7
:10019000FEE7704710B54FF4805000F09DF84FF423
:1001A000005000F099F84FF4804000F095F8BDE859
:1001B00010404FF4004000F08FB810B5202000F040
:1001C0008BF8BDE810404FF4807000F085B872B62F
:1001D000FEE70000204910B50B68204A14681B1B7D
:1001E000C82B37D309681160B0F5005F15D0B0F5A2
:1001F000804F18D020281CD0B0F5004F1FD0B0F58C
:10020000805F22D0B0F5807F24D10020FFF7B0FFBF
:1002100013A0BDE8104000F0E3BE0121084600F045
:1002200037FD14A0F5E70021012000F031FD16A0F4
:10023000EFE70121022000F02BFD18A0E9E70021E3
:10024000022000F025FD1AA0E3E70120FFF790FF50
:100250001CA0DEE710BD00000C0000200000002004
:100260004B65792045534320202050726573736598
:10027000640A00004B65792055702020205072657B
:10028000737365640A0000004B657920446F776ED4
:1002900020507265737365640A0000004B65792015
:1002A0004C65667420507265737365640A000000C3
:1002B0004B65792052696768742050726573736565
:1002C000640A00004B6579204F4B2020202050729B
:1002D00065737365640A0000044910B50A68024238
:1002E00002D00860FFF776FF10BD00001404014043
:1002F0002DE9F84FDFF8B8910024A9F1040B23464B
:100300000F2709F1040AABF1040EC9E00125A5404D
:100310002A40AA427DD1674ED1F804C0ACEB060852
:10032000B44532D014DCBCF1030F3AD009DCBCF187
:10033000000F2AD0BCF1010F1CD0BCF1020F31D14B
:100340001DE0BCF1110F17D0BCF1120F2AD119E03A
:10035000B8F5881F19D006DCB8F5803F15D0B8F580
:10036000801F1FD111E0B8F5001F0ED0B8F5041F93
:1003700018D10AE0CB6815E0CB681B1D12E0CB68F2
:1003800008330FE0CB680C330CE08B682BB1012BEA
:100390004FF0080303D0456104E0042302E0056147
:1003A00000E00023FF2A01D8064601E000F1040620
:1003B0004FEA840501D9A5F12005D6F8008007FA97
:1003C00005FC28EA0C0803FA05F548EA0508C6F812
:1003D00000804D68ED0062D5374DAE6946F00106EC
:1003E000AE61AD6924F0030605F001050095334DBB
:1003F00006EB050CDCF80850A607360F07FA06F8DE
:1004000025EA0805DFF8B880404503D14FF0000821
:1004100017E044E0DFF8AC80404502D14FF001081E
:100420000FE0DFF8A480404502D14FF0020808E059
:10043000DFF89880404502D14FF0030801E04FF00B
:10044000040808FA06F848EA0508CCF808804D6860
:10045000D9F80060ED024D4601D5164300E0964301
:100460002E604D68DAF80060AD02554601D516439E
:1004700000E096432E604D68DBF80060AD035D46FA
:1004800001D5164300E096432E604D68DEF800600B
:10049000ED03754601D5164300E096432E60641CBB
:1004A0000D682A46E5407FF431AFBDE8F88F0000C3
:1004B000080401400000111000100240000001403B
:1004C00000080140000C01400010014000140140F0
:1004D0000AB1016170470904FBE700000148806828
:1004E000704700000400002002488168027811442F
:1004F0008160704704000020074810B5016841F092
:1005000010010160032000F075F80F2000F006F8DC
:1005100000F024F8002010BD0020024070B50D4D01
:1005200004464FF47A712878B1FBF0F00A49096863
:10053000B1FBF0F000F0DCFA48B9102C07D2002231
:100540002146501E00F036F800206C6070BD01207E
:1005500070BD000004000020100000200C4808B509
:10056000816941F001018161816901F0010100911E
:10057000C16941F08051C161C06900F080500090B4
:100580000448416821F0E06141F00071416008BD1C
:100590000010024000000140002809DB00F01F02AB
:1005A000012191404009800000F1E020C0F80011D5
:1005B00070470000F0B40E4B1B680C46C3F30223D7
:1005C000C3F10705042D00D90425191D072901D2FF
:1005D000002300E0DB1E012606FA05F1491E21403A
:1005E00099409E40761E16403143F0BC00F000BD9D
:1005F0000CED00E0064900F0070208684FF6FF0323
:10060000184040EA0220034A104308607047000087
:100610000CED00E00000FA052DE9F0470F4605005B
:1006200061D0434E306800F00700B84209D230680C
:1006300020F0070038433060306800F00700B8420F
:1006400051D128683B4C810712D5400703D560681B
:1006500040F4E06060602878000703D5606840F4EB
:10066000605060606068A96820F0F0000843606036
:100670002878C00728D06868012810D0216802288F
:1006800010D0890700292EDA616821F003010143A7
:100690006160FFF723FF804641F288390DE0216851
:1006A0008903EFE78901EDE7FFF718FFA0EB0801E9
:1006B000494502D90320BDE8F0876068696800F009
:1006C0000C00B0EB810FEFD1306800F00700B842AA
:1006D0000BD9306820F0070038433060306800F0F4
:1006E0000700B84201D00120E5E72878400705D58A
:1006F0006068E96820F4E0600843606028780007DB
:1007000006D56068296920F4605040EAC100606045
:1007100000F038F86168084AC1F30311515CC84021
:100720000649086006480068FFF7F8FE0020C2E7A7
:100730000020024000100240A61000081000002017
:10074000080000200448054900684968044AC1F3CC
:100750000221515CC8407047100000200010024088
:10076000B61000080448054900684968044AC1F306
:10077000C221515CC84070471000002000100240A8
:10078000B61000080E4A51680E4801F00C03042B05
:1007900011D0082B0FD10C48C1F38343C903C05CAF
:1007A0000AD55168084AC1F34041921E515C054A7E
:1007B0005043B0FBF1F070470449484370470000D4
:1007C0000010024000127A009610000800093D0057
:1007D0002DE9F84F040070D02078C04DC00749D0F3
:1007E0006868C0F38100012807D06868C0F3810001
:1007F000022809D16868C00306D52868800339D566
:1008000060680028E7D035E06068B0F5803F0BD025
:1008100010B1B0F5A02F11D0286820F480302860E6
:10082000286820F4802002E0286840F480302860A6
:10083000606890B1FFF752FE06460AE0286840F46F
:1008400080202860F0E700BFFFF748FE801B642887
:1008500073D828688003F7D50CE0FFF73FFE064603
:1008600005E000BFFFF73AFE801B6428F0D8286837
:100870008003F7D420789A4E80074FF001094FF09B
:10088000000839D5686810F00C0F07D06868C0F30D
:100890008100022809D16868C00306D4286880074F
:1008A00014D52069012808D110E02069B0B1C6F83C
:1008B0000090FFF713FE074605E00AE1FFF70EFE82
:1008C000C01B0228C4D828688007F7D5286861694A
:1008D00020F0F80040EAC10028600DE0C6F8008072
:1008E000FFF7FCFD074604E0FFF7F8FDC01B0228F8
:1008F00023D828688007F7D4207800072CD57948BA
:10090000A169D9B1C0F80090FFF7E8FD074604E0FF
:10091000FFF7E4FDC01B02280FD8686A8007F7D5EF
:1009200071484FF4FA510068B0FBF1F0009000BF3D
:100930000098411E0091FAD20EE080E0C0F80080DD
:10094000FFF7CCFD074604E0FFF7C8FDC01B0228F7
:1009500075D8686A8007F7D42078400760D5E869C1
:100960000027C00008D4E86940F08050E861E869D9
:10097000012700F0805000905C480168C90513D43D
:100980000168834641F480710160FFF7A7FD82464C
:1009900006E000BFFFF7A2FDA0EB0A0064284ED8D6
:1009A000DBF80000C005F5D5E06801280AD008B1E1
:1009B000052813D0286A20F001002862286A20F058
:1009C000040002E0286A40F001002862E06841F279
:1009D000883B98B1FFF782FD82460BE0286A40F021
:1009E00004002862EEE700BFFFF778FDA0EB0A01E4
:1009F00059455AD8286A8007F6D50CE0FFF76EFDF6
:100A0000824605E0FFF76AFDA0EB0A0159454CD884
:100A1000286A8007F6D41FB1E86920F08050E861A9
:100A2000E06988B36968C1F38101022944D00228D2
:100A3000C6F8608004D0FFF751FD044638E034E08A
:100A4000FFF74CFD074604E0FFF748FDC01B0228F6
:100A50002BD828688001F7D4206AB0F5803F05D1F3
:100A60006868A16820F4003008436860D4E9080190
:100A70000843696821F4741108436860C6F86090FF
:100A8000FFF72CFD044606E025E000BFFFF726FD3A
:100A9000001B022809D828688001F7D51BE000BF99
:100AA000FFF71CFD001B022802D90320BDE8F88FC8
:100AB00028688001F4D40EE00128F7D06868226A23
:100AC00000F48031914204D1616A00F470108842D0
:100AD00001D00120EAE70020E8E700000010024012
:100AE000000042428004424210000020007000409A
:100AF00010B5401EB0F1807F01D3012010BD4FF032
:100B0000E02460610F21601700F072FA0020A061FC
:100B100007202061002010BD70B5040004D094F8B7
:100B20004100002510B106E0012070BD84F840505E
:100B3000204600F023F8242084F841002068C16892
:100B400021F40051C160204600F0B4F92068016929
:100B500021F4904101612068416921F02A0141613D
:100B60002068C16841F40051C1606564202084F8A8
:100B7000410084F842006563002070BD30B585B047
:100B8000002400940194029403940068144988425C
:100B900024D11448816941F480418161816901F463
:100BA00080410491816941F00401816180690E4DA9
:100BB00000F0040004904FF40070009002200190B7
:100BC0000320039069462846FFF792FB2815CDE9DC
:100BD0000004694628460294FFF78AFB05B030BD41
:100BE0000038014000100240000801402DE9F843A0
:100BF000044690F84100984616460D46202802D03B
:100C00000220BDE8F88385B17EB100206064212018
:100C100084F84100FFF762FCA6848146E684A06860
:100C20002027B0F5805F02D003E00120E9E72069CA
:100C300010B12E4600250EE000260CE08021204653
:100C400000F094F9A8B9C6B116F8010B2168486004
:100C5000E08C401EE084E08C4B464FF00002CDF863
:100C600000800028EAD14FF04001204600F07EF9D4
:100C700040B184F841700320C3E735F8020BC0F39C
:100C80000800E3E784F841700020BAE7FEE70000BF
:100C90000A4B012808D002280ED1C001012906D034
:100CA000002909D1012203E04FF40070F6E7002289
:100CB00001461846FFF70CBC70470000000C0140CD
:100CC0002DE9F04186B00025384800950195029540
:100CD0000395816941F010018161816901F0100182
:100CE0000491816941F020018161816901F0200155
:100CF0000491816941F008018161816901F0080175
:100D00000491816941F0040181618069284F00F0FC
:100D100004004FF400540490002221463846FFF7A7
:100D2000D7FBDFF89080002202214046FFF7D0FB7E
:100D300001224FF440714046FFF7CAFB009401AA1C
:100D40000124022682E8700069463846FFF7D0FA8F
:100D500040F202308DE8710069464046FFF7C8FA5C
:100D6000154D4FF22000CDE900056946029440463A
:100D7000FFF7BEFA2002CDE90005694602940F484C
:100D8000FFF7B6FA002211461720FFF713FC1720D1
:100D9000FFF702FC002211462820FFF70BFC282059
:100DA000FFF7FAFB06B0BDE8F0810000001002403A
:100DB00000100140000C014000002110000801401B
:100DC0000C4810B50A4901604FF4E131416000213F
:100DD00081600C22C160C0E904128161C161FFF72A
:100DE0009BFE002803D0BDE81040FFF7F0B910BD0E
:100DF0000038014018000020FEE7FEE7704770470A
:100E0000FFF772BB30B58FB028216846FFF793F922
:100E100014210AA8FFF78FF901210804CDE9001079
:100E20000024029402250491CDE907504FF4E0100C
:100E300009906846FFF7CCFC08B172B6FEE70F20B8
:100E4000CDE90A054FF48060CDE90C4002210AA8E3
:100E50000E94FFF7E1FB002801D072B6FEE70FB059
:100E600030BD704701680C3151E8002F22F49072B8
:100E700041E80023002BF5D10168143151E8002F1F
:100E800022F0010241E80023002BF5D1016B01297A
:100E900009D101680C3151E8002F22F0100241E81D
:100EA0000023002BF5D1202180F84210002101639E
:100EB0007047000070B5044600680169E26821F4DB
:100EC0004051114301612169A068084361690843E9
:100ED0002168CA6841F20C639A430243CA602068E1
:100EE0004169A26921F44071114341611E492068A2
:100EF000884202D1FFF736FC01E0FFF723FC00EB4C
:100F0000C00101EB0012606864218000B2FBF0F3C5
:100F1000B3FBF1F36FF018067343B2FBF0F5B2FBCD
:100F2000F0F605EB8305322303EB0515B5FBF1F570
:100F3000B6FBF1F605F0F00505EB0615B2FBF0F691
:100F4000B2FBF0F0B0FBF1F06FF01802504306EB8B
:100F5000800003EB0010B0FBF1F0216800F00F00FF
:100F60002844886070BD0000003801402DE9F84336
:100F7000984617460D460446089E24E0701C22D071
:100F8000FFF7ACFAA0EB0800B0421AD8CEB1206847
:100F9000C168490717D5802D15D0402D13D00168A1
:100FA000C94309070FD40168002540680090204616
:100FB000FFF758FF0820606484F840500120BDE826
:100FC000F8830320FBE72068006835EA000004D0BE
:100FD0000020B842D2D00020F1E70120F9E7FEE777
:100FE000014A024900F023B8511000081400002003
:100FF0000907090E002804DB00F1E02080F8001446
:10100000704700F00F0000F1E02080F8141D7047D9
:1010100002E008C8121F08C1002AFAD170477047C1
:10102000002001E001C1121F002AFBD170472DE909
:10103000F04116460F460446002503E03946B04706
:10104000641C6D1C20780028F8D12846BDE8F0818A
:1010500013B54FF0FF33012269460248FFF7C6FD82
:1010600000981CBD18000020FFF746FAFFF7CAFEE3
:10107000FFF726FEFFF7A4FE01A0FFF7B1FFFEE792
:10108000556172743120696E6974206973206F6BC9
:101090000A000000010202030405060708090A0B02
:1010A0000C0D0E0F101000000000000000000102E7
:1010B0000304060708090000000001020304000001
:1010C000E0100008000000201800000010100008C8
:1010D000F810000818000020480400002010000844
:1010E00000000000010000001000000000000000EF
:0810F00000127A00000000006C
:04000005080000ED02
:00000001FF
