:020000040800F2
:1000000070D300209D010008AF4D00083345000863
:10001000AD4D0008830300086D7600080000000065
:100020000000000000000000000000002957000848
:1000300065040008000000002B4F00083557000839
:10004000B7010008B7010008B7010008B7010008B0
:10005000B7010008B7010008B7010008B7010008A0
:10006000B7010008B7010008B7010008B701000890
:10007000B7010008B7010008B7010008B701000880
:10008000B7010008B7010008B70100089103000894
:1000900085030008B7010008B7010008B701000890
:1000A000B7010008B7010008B7010008B701000850
:1000B00011580008B7010008B7010008B70100088F
:1000C000B7010008B7010008B7010008B701000830
:1000D000B7010008A15D0008B7010008B7010008DA
:1000E000B7010008B7010008B7010008B701000810
:1000F000B7010008B7010008B7010008B701000800
:10010000B7010008C54F0008B7010008B701000893
:10011000B7010008B7010008B7010008B7010008DF
:10012000B7010008B70100089D030008A9030008F3
:10013000B7010008B7010008B7010008B7010008BF
:10014000B7010008B7010008B7010008B14D000869
:10015000B7010008B5030008B7010008B70100089F
:10016000B7010008B7010008B7010008B70100088F
:10017000B7010008B7010008B7010008000000003F
:10018000B7010008B7010008DFF80CD000F0BCF898
:10019000004800476DA0000870D300200648804743
:1001A00006480047FEE7FEE7FEE7FEE7FEE7FEE75C
:1001B000FEE7FEE7FEE7FEE70158000889010008B8
:1001C0002DE9F05F0546002092469B46884606468C
:1001D000814640241BE0284641464746224600F01F
:1001E00082F853465A46C01A914110D31146184618
:1001F000224600F069F82D1A67EB01084F462246A7
:100200000120002100F060F817EB00094E41201E8C
:10021000A4F10104DFDC484631462A464346BDE8E6
:10022000F09F00000649074A0868504343F239022C
:10023000104408604008704701490860704700009A
:10024000340200206D4EC64110B5441A0346944254
:1002500009D28418114403E011F8013D04F8013D6E
:10026000521EF9D210BD40EA0104A40703D009E0F0
:1002700010C9121F10C3042AFAD203E011F8014B6F
:1002800003F8014B521EF9D210BDD2B201E000F8C2
:10029000012B491EFBD270470022F6E710B513462A
:1002A0000A4604461946FFF7F0FF204610BD30B558
:1002B00004460020034600E05B1C934203D2E05C4E
:1002C000CD5C401BF8D030BD202A04DB203A00FA78
:1002D00002F1002070479140C2F1200320FA03F39D
:1002E000194390407047202A04DB203A21FA02F09B
:1002F0000021704721FA02F3D040C2F12002914060
:100300000843194670470000064C074D06E0E068B8
:1003100040F0010394E8070098471034AC42F6D34C
:10032000FFF736FFC4230108E423010870B58C18D9
:1003300010F8015B15F0070301D110F8013B2A11F9
:1003400006D110F8012B03E010F8016B01F8016BE6
:100350005B1EF9D12B0705D40023521E0DD401F8E2
:10036000013BFAE710F8013BCB1A921C03E013F8AB
:10037000015B01F8015B521EF9D5A142D8D30020E0
:1003800070BDFEE7014800F00CBC000070020020C8
:10039000014800F006BC000070020020014800F097
:1003A00003BF000000070020014800F0FDBE000070
:1003B00058040020014800F0F7BE0000B8040020F7
:1003C00001681823CAB2103AB2FBF3F2054B6FF37F
:1003D0000901032A9B5CC36500D9091D8165084694
:1003E000704700008421010810B5014600208B6988
:1003F0008A6A4FF0C07453B1B3F5005F15D072B183
:10040000012A0CD0022A0AD0032A09D104E01AB129
:10041000012A06D0022A03D1C96AC90100D50120E8
:1004200010BDC96AA142FAD010BD002AF7D0012A36
:10043000F2D0022AF3D0032AF3D010BD30B50468FD
:10044000256825F480252560046863608368402B57
:10045000036803D099600068C26030BD9A6000688C
:10046000C16030BD70470000F0B500231A464FF060
:10047000004500BF016903EB830401EBC4010A607E
:100480004A608A60CA600A620D604A62466946F440
:1004900080464E604E6826F000464E6000EB8306B4
:1004A000032BB16405D22827066907EBC404344442
:1004B00000E00469CC605B1C042BDBD3C2650266E0
:1004C0008266C26682650169006800F58050C1607D
:1004D000F0BD38B50446006800F58050816941F4EC
:1004E00080118161206800F58050806900900120B2
:1004F00000F0CCFF2068009900F58050816138BD84
:1005000070B5A4B00125002406468DF828408DF86A
:1005100004501494A8038DF8564005908DF810509F
:1005200002948DF80E508DF85440C0108DF8115083
:100530008DF81F408DF8204006908DF81E508DF8E4
:100540000F4009948DF81C4012948DF84C408DF8A2
:1005500055406946304600F069F98DF881508DF8B4
:1005600080408DF8824028041B908DF868508001EF
:100570001F908DF870508DF8885040128DF8715092
:100580001E941D908DF87250239421948DF88950FB
:1005900019A93046199400F0E9F824B070BD002084
:1005A000704701F085BC000010B5024801F0FAF96F
:1005B000002010BDF87B002013460A4610B5014606
:1005C000034801F077F9002801D04FF0FF3010BD4B
:1005D000F87B002013460A4610B50146034801F097
:1005E000DDFA002801D04FF0FF3010BDF87B00206D
:1005F0002DE9F043836A1830914650F823208D6826
:100600001C4617680026002F6BDB00EB83077F6911
:10061000BFBBD5F800C00127C2F808C0D2F804C09B
:10062000D5F804806FF30C0C4CEA080CC2F804C037
:1006300091F800C05FEACC7C09D0D2F800C0D1F8B4
:1006400014802CF4400C4CEA080CC2F800C091F85D
:1006500000C05FEA8C6C09D5D2F800C0D1F81080D8
:100660002CF0406C4CEA080CC2F800C0097849072D
:1006700003D5116841F080011160116841F080518B
:1006800048E02EE0116821F0005111601168B9F1C5
:10069000000F02D041F0804101E021F08041116063
:1006A0005B1C042B00D31B1F50F82320116800296A
:1006B00003DB00EB83014969B1B150F8242000212C
:1006C0000DE000BFBFF35F8F136823F0004313609A
:1006D000641C042C00D3241F491C50F82420B94268
:1006E000F0D30220BDE8F083116821F08051116041
:1006F000AD68296891605168D5F804C06FF30C01AA
:1007000041EA0C015160761C7F1CBFF35F8F1168BA
:1007100041F000411160A9680029B3D11168B9F115
:10072000000F02D041F0804101E021F080411160D2
:10073000116841F00051116050F82410BFF35F8F31
:100740000A6842F000420A6000EB8302416A51618C
:10075000EFF31081012282F310880361826A761C14
:10076000324481F3108882620020BBE770B50C46EA
:100770000168054601F5805188692B4A1040227BAB
:10078000EAB30022637B920642EA4362637FBBB313
:100790005FF0000342EA0352A37B42EA43526369DB
:1007A0001A43237F42EAC312A37F42EA8312236AD9
:1007B0001A4394F8243042EA830202438A6128688B
:1007C00000F580508669012000F060FE286800F581
:1007D00080508661A169A06822790843216941EAB5
:1007E0004261084394F8251040EAC110A16A40EA2A
:1007F00081002168084340F40001286801E00FE00F
:1008000010E000F580500160286800F58050046811
:10081000012000F03BFE286800F58050046070BDA8
:100820000122AFE70123B5E7233FDEF870B5026888
:1008300005460C4610683C49A37B0840A16841EA84
:100840004361237C002B64D00023667CDB05002EF3
:1008500061D0002643EA86531943E37F41EA03410E
:1008600063691943A37FEBB35FF0000341EA4331AF
:10087000237F41EA0331A3691943237941EA8321A4
:1008800094F820307BB3002341EA4321E37B41EA23
:10089000C311636A194394F8283041EA03110143F4
:1008A000116028680668012000F0F0FD28680660E5
:1008B0002A6890694FF641710840A36C216D41EAA6
:1008C000034194F84C3063B3002394F85560DB0186
:1008D000012E00D0002643EAC603194394F856308F
:1008E000012B01E019E01AE000D0002341EA830166
:1008F00094F85430012B00D0002341EA4301014316
:10090000916128688469012000F0C0FD2868846135
:1009100070BD012399E701269CE70123A6E7012387
:10092000B2E70123D1E700000F8120FD2DE9F84354
:10093000044600200090A56E4FF0010804EB8500EE
:10094000E76E866C1EE0306A30B9684600F0E4FF5E
:10095000009880B33062B060B8F1000F12D0A06D83
:10096000002860692BD040F480407060306840F00F
:10097000004030606D1C042D00D32D1F04EB85005A
:100980007F1E866C17B1B8F1000FDCD1E06EB84263
:100990000FD0E81C00F00300BFF35F8F216900EB6C
:1009A000800001EBC001206800F580508160C4E93F
:1009B0001A57BDE8F883FFE74FF00008E2E7014966
:1009C0000843D2E70040008072B6FEE730B5B3F5C9
:1009D000804F05D06FF0704140F82210002030BDEC
:1009E0008C690B688D6823434C688989240144EA2B
:1009F0000524234343EA014150F82230014C2340AF
:100A00001943E9E70000F0CF10B50A6850F822302A
:100A100023F0010340F822308C68082C23D00023F7
:100A20004A682243CC681C430B6922431A434B6932
:100A30000E4C1A43CB691A430B6A1A434B6A1A438A
:100A40008B6A1A43CB6A1A430B6B1A438B691343A5
:100A5000CA6B09681A4350F82130A343134340F886
:100A60002130002010BD4023DAE700007FFF0F0097
:100A700030B5D1E9003443EA04138C688D8924022F
:100A800044EA054423430C8A074D00EB820005EB42
:100A9000045423430C7D6D0105EB046489692343F1
:100AA0000B434360002030BD0000F0FF704770B57D
:100AB00090F82040012C05D0022C03D0416A41F46B
:100AC000802128E0046809B32469A40720D04FF4EA
:100AD000D874056804EB01142D5915F004059560D0
:100AE00005682D591AD0ED08556005682C5904F099
:100AF0000204D4604FF4DA74056804EB01142E5933
:100B000006F00F06082E0CD308250DE0E468DCE79C
:100B1000416A41F400114162012070BD6D0D156004
:100B2000E3E72D5905F00F05156105682D59C5F34B
:100B30000725956105682C59240C54614FF4DC722B
:100B4000046802EB0112A4581C700468A458240A1B
:100B50005C700468A458240C9C700468A258120E9F
:100B6000DA704FF4DE72046802EB0112A4581C71B3
:100B70000468A458240A5C710468A458240C9C716D
:100B80000468A258120EDA71006829B1016941F0B7
:100B900020010161002070BDC16841F02001C160E9
:100BA000F8E72DE9F05F0546006800244669D0F8B3
:100BB00004908768D0F80CB0D0F810A0D0F8188056
:100BC000F10748D0F90714D001218160B80703D597
:100BD000284600F065FA0CE0780702D54FF400646F
:100BE00007E0380702D54FF4805402E0284600F0B1
:100BF00056FAF80516D529684FF480708860B80554
:100C000003D5284600F071FA0CE0780502D544F4CB
:100C1000005407E0380502D544F4804402E0284639
:100C200000F062FAF80316D529684FF48030886026
:100C3000B80303D5284600F05AFA0CE0780302D531
:100C400044F4004407E0380302D544F4803402E061
:100C5000284600F04BFA300707D55FEACB6004D591
:100C60002968102044F40074C86070074FF008072A
:100C700007D55FEA0B7004D52868C760284600F0E6
:100C80009FF9B00706D52868C068800702D02846BB
:100C900000F098F9700607D55FEACA6004D52968A4
:100CA000102044F480640861B00607D55FEA0A703A
:100CB00004D528680761284600F0EEF9F00606D54D
:100CC00028680069800702D0284600F0E6F9B003E2
:100CD00008D55FEAC96005D5296810204860284614
:100CE00000F0DCF9F00307D55FEA097004D5286845
:100CF0004760284600F0FCF9300446D55FEA4970A9
:100D000040D5F00504D55FEAC87001D044F0010475
:100D1000B00504D55FEA887001D544F0020470057F
:100D200004D55FEA487001D544F00404300529D5A4
:100D300018F0700F26D008F07000402815D006DC9F
:100D4000102809D020280AD0302816D10AE05028CF
:100D50000ED0602811D10EE044F008040DE044F0FC
:100D600010040AE044F0200407E044F0400404E0EA
:100D700044F0800401E044F480742868816921F023
:100D800070018161296804204860002C05D0686AE0
:100D9000204368622846FFF789FEBDE8F09F70B5E2
:100DA000040003D094F8200010B104E0012070BDCD
:100DB000204600F081F82068016841F001010160DF
:100DC00001F076F80546052604E001F071F8401BB5
:100DD0000A2811D820684068C007F6D0206801684A
:100DE00021F00201016001F063F805460BE001F01B
:100DF0005FF8401B0A2806D9606A40F40030606240
:100E000084F82060D2E7206840688007EFD4207E15
:100E10000128206801683DD021F080010160607EDA
:100E200001282068016838D021F040010160A07ECF
:100E300001282068016833D021F020010160E07EA4
:100E40000128206801682ED041F010010160207F48
:100E500001282068016829D021F008010160607F25
:100E600001282068016824D021F004010160D4E940
:100E700002010843D4E90412114308436168491E82
:100E800008432168C86100206062012084F82000C6
:100E9000002070BD41F08001C0E741F04001C5E78E
:100EA00041F02001CAE721F01001CFE741F008012D
:100EB000D4E741F00401D9E72DE9F04387B00446B7
:100EC00014216846FFF7E8F9394B3A48DFF8DC802F
:100ED0001968D4F800C0374A022503260927DFF82D
:100EE000D89010300024491CC44530D11960012924
:100EF00007D1016841F000710160006800F00070E6
:100F00000590106840F002001060106802AB00F01D
:100F1000020005904FF44070CDE9000583E8D00051
:100F20006946484600F0BAFE00221146132001F03F
:100F300025F9132001F014F900221146142001F0C4
:100F40001DF9142001F00CF907B0BDE8F083DFF8BB
:100F50006C80C445F8D1D0F800C04CF0806CC0F86B
:100F600000C0D0F800C001290CF0806CCDF814C08E
:100F7000196007D1016841F000710160006800F05C
:100F800000700590106840F002001060106802AB1D
:100F900000F0020005904FF44050CDE9000583E8D1
:100FA000D0006946484600F079FECDE70064004075
:100FB0000000002030380240000402400068004079
:100FC000704700007CB522496D46A1F11C0488429F
:100FD0001DD12B4622460021FFF769FD002815D1BF
:100FE0001CA006F045FB20A0216806F041FB20A0D4
:100FF00006F03EFB002420A0295D06F039FB641CAE
:10100000E4B2082CF7D31EA006F032FB7CBD1049D9
:1010100028318842FAD1A1F144022B460021FFF782
:1010200046FD0028F2D117A006F022FB0EA0216891
:1010300006F01EFB0EA006F01BFB00240EA0295D8F
:1010400006F016FB641CE4B2082CF7D3DBE70000C3
:101050007002002043414E31205265636569766518
:1010600064200D0A0000000049443A2523780A0054
:10107000446174613A0000003078253032782000F5
:101080000A00000043414E3220526563656976656F
:1010900064200D0A000000007047704770477047D9
:1010A0000649884201D106A004E00449283188425B
:1010B00002D108A006F0DCBA7047000070020020E0
:1010C00043414E312053656E642064617461206F2A
:1010D0006B0D0A0043414E322053656E64206461FB
:1010E0007461206F6B0D0A0070477047704770473E
:1010F00070472DE9F0410446876D00F0D9FE0646A1
:1011000094F835000025022806D08020606584F818
:1011100034500120BDE8F0812068016821F01601FB
:1011200001602068416921F080014161206C08B9AB
:10113000A06C20B12068016821F0080101602068DE
:10114000016821F0010101600CE000F0B1FE801B9C
:10115000052807D920206065032084F8350084F82D
:101160003450D7E720680068C007EED194F85C10CF
:101170003F208840B860012084F8350084F834505E
:101180000020C7E790F83510022903D0802141657F
:1011900001207047052180F835100068016821F0B2
:1011A00001010160002070472DE9F84304464FF02B
:1011B0000009CDF8009063484FF41651A56D006802
:1011C000B0FBF1F72E6894F85C10082000FA01F1EA
:1011D00031420FD021680A6852070BD50A6822F005
:1011E00004020A6094F85C108840A860606D40F0CA
:1011F0000100606594F85C104FF0010808FA01F0F6
:10120000304208D021684969090604D5A860606D9C
:1012100040F00200606594F85C1004208840304281
:1012200008D021680968890704D5A860606D40F07E
:101230000400606594F85C1010208840304218D09B
:1012400021680968090714D5A86020680168490366
:1012500004D50068000308D5A16C07E00168C90542
:1012600003D4016821F008010160216C09B1204616
:10127000884794F85C1020208840304231D02168A3
:101280000968C9062DD5A86094F83500052820689E
:10129000016806D0490347D5006800031DD4616C7E
:1012A0001CE021F0160101602068416921F08001F5
:1012B0004161206C08B9A06C20B12068016821F060
:1012C0000801016094F85C103F208840A86084F811
:1012D000358084F83490216D1FE0E16B09B1204620
:1012E0008847606D00282BD0606DC00714D00520A2
:1012F00084F835002068016821F001010160009840
:10130000401C0090B84203D820680068C007F6D19E
:1013100084F8358084F83490E16C002910D001B055
:101320002046BDE8F04308470168C905D5D40168E7
:1013300021F01001016084F8358084F83490CCE706
:10134000BDE8F883C40000202DE9F041044600F018
:10135000AFFD06465CB1022084F83500002584F814
:1013600034502068016821F0010101600DE0012086
:10137000BDE8F08100F09CFD801B052805D92020E8
:101380006065032084F83500F2E720680068C00734
:10139000F0D12268116820480140D4E901031843C4
:1013A000D4E903363343184363691843A3691843E8
:1013B000E3691843236A18430843616A042903D187
:1013C000D4E90B1319430843106020684069666A2A
:1013D00020F0070130460E43012704280CD1A06AF3
:1013E0000643E06A40B12046FEF7FEFF20B14020F0
:1013F000606584F83570BAE7206846612046FEF7DC
:10140000DFFF94F85C203F2191408160656584F89E
:1014100035700020ACE700003F8010F02DE9F0416E
:101420000446866D90F83400002501280DD0012077
:1014300084F8340094F835700020012F07D084F828
:10144000340002252846BDE8F0810220FBE7022790
:1014500084F8357060652046FEF7F0FF94F85C1064
:101460003F208840B0602068016841F016010160AB
:10147000206C20B12068016841F0080101602068FB
:10148000016841F001010160DCE7000070B504462D
:1014900000F00EFD0546601C02D0044800780444AC
:1014A00000F006FD401BA042FAD370BDB80000203A
:1014B000002970D002681268C2F3001281F8282057
:1014C0000268126802F060024A620268126842F31F
:1014D0004022521C81F8202002681268C2F30042A8
:1014E000CA770268126842F34032521C8A77026857
:1014F0001268C2F300320A770268126802F40062CE
:101500008A610268126802F480424A6102681268C5
:1015100042F38052521C4A740268126842F3C0526D
:10152000521C0A7402681268C2F3C012CA730268BD
:10153000126802F460228A6002681268C2F3802294
:101540000A7102681268C2F340628A730268926983
:10155000C2F3400281F854200268926942F3C0123B
:10156000521C81F84C200268926902F030020A6530
:1015700002689269120C8A6402689269C2F380025E
:1015800081F8562000688069C0F3C00081F85500DA
:1015900000207047FFE70120FBE70000F8B50400DA
:1015A00003D0D4F8840010B107E00120F8BD20205A
:1015B000C4F88400204600F08DF8424800250168F8
:1015C00041F480410160006800F4804000903E4892
:1015D000016821F4000101600168A2681143016003
:1015E0000068206800F58050016841F00101016049
:1015F00000F05EFC06464FF4FA770BE000F058FC72
:10160000801BB84206D90420C4F88800E020C4F842
:101610008400CAE7206800F580500068C007EDD15B
:101620002046FEF76DFF0021E06801EB810200EB30
:10163000C200056045608560C56004EB8103986168
:10164000036843F480130360032905D22826E36866
:1016500006EBC2021A4400E0E268C260026842F48B
:1016600040020260491C0429DED3A5622068E168BB
:1016700000F5805001612046FEF7F6FE60681349D0
:1016800082880A640278D0F8010042EA00204864A7
:101690002068C16B41F40271C1632068D0F80C115D
:1016A0000B4A1143C0F80C112068D0F8101141F416
:1016B0000311C0F81011C4F888501020C4F8840039
:1016C0000020F8BD44380240043801400080024048
:1016D00060000200F0B587B0044614216846FEF7AA
:1016E000DBFD35492068884264D134480024016814
:1016F00041F000710160016801F00071059101681D
:1017000041F080610160016801F08061059101682C
:1017100041F000610160016801F00061059101681C
:1017200041F004010160016801F0040105910168C4
:1017300041F001010160016801F0010105910168BA
:1017400041F002010160016801F0020105910168A8
:1017500041F0400101600068022500F04000059062
:101760003220CDE9000502AA03260B2782E8D0002B
:101770006946134800F092FA8620CDE9000502AAD6
:10178000694682E8D0000F4800F088FAA802CDE947
:10179000000502AA694682E8D0000B4800F07EFAF4
:1017A0007003CDE9000502AA694682E8D000074827
:1017B00000F074FA07B0F0BD0080024030380240FB
:1017C00000080240000002400004024000180240ED
:1017D0002DE9F84F4FF000075FEA01090446B846CB
:1017E00004D0D4F8840040285AD105E054F8880F7A
:1017F00040F00100206053E0E66D4FF0000B04EB79
:101800008600856CE06EC0F1040A36E02868C005E9
:1018100003D5E869A067A86960672868800501D4D6
:10182000E06F10B32868800503D5C4F860B0C4F831
:1018300064B02868C0F30D4000902868C00503D547
:1018400028684FF001082067AA682A6204F1800125
:10185000081F009B00F084F8206E401C2066616E1B
:10186000009808446066C5F820B0761C042E00D3AA
:10187000361F04EB86007F1C856C2868002804DB7B
:10188000574502D2B8F1000FC0D0E06EC019E06633
:1018900002D02046FFF74AF8E665B8F1010F02D002
:1018A0000120BDE8F88FE16FC9F800100020C4F8EE
:1018B0007CB0F6E72DE9F0419846036805461869C3
:1018C00000F01C044FF6FF7000EAC1204FF4F861ED
:1018D000204301EA8211014321F0020040F001049B
:1018E0001C6100F0E5FA06464FF480370AE000BFBD
:1018F00000F0DEFA801BB84202D30120BDE8F0817F
:1019000028680469E007F3D12868406981B20020A3
:10191000C8F80010F2E700001CB504460D4809F0B5
:1019200025F803000FD003F1200020600A48186159
:101930004FF4C0612068CDE9000100214122084632
:1019400009F0AEFD1CBD0549012008700020206093
:101950001CBD00007821010805BB000880000020A4
:1019600010B5002442F8204D1481538104681CB145
:101970000C6822600A6004E00260FBE701891944F8
:10198000018100680028F9D110BD10B519B1D0F857
:101990008420102A01D0012010BDFEF747FF00204F
:1019A00010BD000070B505460068006920F01C04F9
:1019B00001F060FA0C49884202D244F0080410E0B9
:1019C0000A49884202D244F00C040AE008498842DD
:1019D00007D30849884202D244F0040401E044F0ED
:1019E00010042868046170BDC00E160200879303BE
:1019F00000E1F50580D1F00870B50446D0F8840008
:101A0000102801D0012070BD2020C4F884000420DB
:101A1000E0662046FEF78AFF2068016841F0080171
:101A20000160206805680120FFF730FD206805602F
:101A30002068016841F00401016020680568012008
:101A4000FFF724FD206805602046FEF742FD206870
:101A500000F58050816941F400518161206800F5F2
:101A60008050816941F0020181614020C4F8840006
:101A7000002070BD70B50446D0F88400402801D025
:101A8000012070BD2020C4F88400206800F580503B
:101A9000816921F400518161206800F580508169DD
:101AA00021F0020181612068016821F004010160D8
:101AB000206805680120FFF7E9FC206805602046E2
:101AC000FEF707FD2068016821F008010160206829
:101AD00005680120FFF7DAFC206805601020C4F8D3
:101AE0008400002070BD2DE9F0411546044621B167
:101AF000D4F88400402805D04EE054F8880F40F018
:101B0000010008E000222046FEF772FD28B154F8DB
:101B1000880F40F0020020603EE0BFF34F8FA06AC4
:101B200004EB8001401C8E69A062042801D3001FD1
:101B3000A06204EB80008169206800F5805041605C
:101B400000F0B6F9074619E0206800F580504069BA
:101B500080040BD554F8880F40F00800206054F83A
:101B6000880C00F580504069606015E0681C05D065
:101B700000F09EF9C01BA84206D82DB1306800289D
:101B8000E2DB0020BDE8F08154F8880F40F004004B
:101B900020604FF0405030600120F3E72DE9F04124
:101BA00006680546306900F01C044FF6FF7000EA35
:101BB000C1204FF4F861204301EA8211014398B239
:101BC00041F0030470612868046100F071F9064671
:101BD0004FF480370AE000BF00F06AF9801BB8427A
:101BE00002D30120BDE8F08128680469E007F3D141
:101BF000F8E70000F0B587B014216846FEF74CFB0B
:101C00002048016800293AD1012101601E480024C2
:101C1000016841F0010101600068022500F0010047
:101C200005904FF23F00CDE9000502AA03260C27DC
:101C300082E8D0006946154800F030F841F23F4094
:101C4000CDE9000502AA694682E8D000104800F0FC
:101C500025F84FF68370CDE9000502AA694682E8AF
:101C6000D0000C4800F01AF84FF63370CDE90005AB
:101C700002AA694682E8D000074800F00FF807B0D2
:101C8000F0BD000008000020383802400014024077
:101C90000018024000100240000C02402DE9F84FED
:101CA000DFF8BCA10022012503264FF00F090AF13D
:101CB000040BAAF1040E00BF0B6805FA02F42340DE
:101CC000A34270D10F7907F00307012F01D0022F33
:101CD00016D187684FEA420806FA08FC27EA0C0783
:101CE000D1F80CC00CFA08FC4CEA070CC0F808C08C
:101CF0004768A7430C79C4F3001494403C43446004
:101D00000C79E443A4070AD0C4684FEA420C06FAEF
:101D10000CF7BC438F6807FA0CF72743C7600C79B0
:101D200004F00304022C12D1D40800EB840CDCF87C
:101D300020405707FF0E09FA07F824EA0804D1F8F3
:101D4000108008FA07F848EA0408CCF820800468F4
:101D50004FEA420C06FA0CF7BC430F7907F0030771
:101D600007FA0CF7274307604C6814F4403F70D023
:101D70003C4C276847F480472760246822F003071B
:101D800004F480440094384C07EB040CDCF8084859
:101D900097074FEA177809FA08F7BC43334FB84260
:101DA00002D1002724E054E0314FB84201D101278D
:101DB0001EE0304FB84201D1022719E02E4FB84241
:101DC00001D1032714E02D4FB84201D104270FE0C1
:101DD0002B4FB84201D105270AE02A4FB84201D162
:101DE000062705E0284FB84201D1072700E0082761
:101DF00007FA08F72743CCF80878DAF80040574686
:101E0000D1F804C09C435FEACC2C00D51C433C6055
:101E1000DBF800405F46D1F804C09C435FEA8C2C9D
:101E200000D51C433C60DEF800407746D1F804C082
:101E30009C435FEA8C3C00D51C433C60084F083F44
:101E40003C68D1F804C09C435FEACC3C00D51C43FD
:101E50003C60521C102AFFF42FAFBDE8F88F000041
:101E6000083C01404438024000300140000002407C
:101E70000004024000080240000C02400010024032
:101E80000014024000180240001C02400069084093
:101E900000D001207047426921EA02030A4043EA68
:101EA0000241816170470AB1816170470904FBE713
:101EB0000148806870470000B800002070B5040039
:101EC00025D094F83D00002520B984F83C502046E8
:101ED00000F0B8F8242084F83D002068016821F063
:101EE000010101602068016841F40041016020683F
:101EF000016821F40041016000F0C2FF4D4A6168B1
:101F0000914201D84C4900E04C49884201D201205D
:101F100070BD4B492368B0FBF1F15E6826F03F06C7
:101F20000E435E606368934206D94FF4967359433B
:101F30004FF47A73B1FBF3F12368491C1E6A26F053
:101F40003F06314319626168914210D84900401E32
:101F5000B0FBF1F2521CC2F30B02042A01D204209E
:101F600022E0B0FBF1F0401CC0F30B001CE0A268C3
:101F7000F2B301EBC10303EB0116431EB3FBF6F30F
:101F80005B1C43F480431B0549D092B301EBC102B3
:101F900002EB0111401EB0FBF1F0401CC0F30B003E
:101FA00040F4804040F400402168CA694CF6FF7359
:101FB0009A431043C861D4E90710014320680268BE
:101FC00022F0C00211430160D4E9030101432068FB
:101FD000826848F2FF339A4311438160D4E90501D6
:101FE00008432168CA6822F0FF021043C86001E07C
:101FF0000EE016E02068016841F0010101602564EF
:10200000202084F83D00256384F83E50002070BDF8
:1020100001EB4106431EB3FBF6F35B1CB3E7012063
:10202000C2E701EB4101401EB0FBF1F0401CC0F3E0
:102030000B00B7E7A086010080841E0000093D0068
:1020400040420F0010B586B0044614216846FEF7E2
:1020500023F913492068884220D1124800210268E0
:1020600042F002020260006800F002000590C02009
:1020700000901220CDE90101032003900420049078
:1020800069460948FFF70AFE06481030016841F426
:1020900000110160006800F40010059006B010BD4A
:1020A0000054004030380240000402400248816879
:1020B0000278114481607047B80000200B4810B5C9
:1020C000016841F400710160016841F480610160C0
:1020D000016841F480710160032000F06FF80F2067
:1020E00000F006F800F024F8002010BD003C02408B
:1020F00070B50D4D04464FF47A712878B1FBF0F0BD
:102100000A490968B1FBF0F001F0A2FD48B9102CB2
:1021100007D200222146501E00F030F800206C60EB
:1021200070BD012070BD0000B8000020C400002078
:102130000A4808B5016841F480410160006800F474
:10214000804000900548001F016841F08051016007
:10215000006800F08050009008BD00004438024044
:10216000002809DB00F01F02012191404009800096
:1021700000F1E020C0F8001170470000F0B40E4BF1
:102180001B680C46C3F30223C3F10705042D00D9D5
:102190000425191D072901D2002300E0DB1E0126BA
:1021A00006FA05F1491E214099409E40761E1640D0
:1021B0003143F0BC05F06CBA0CED00E0064900F0CC
:1021C000070208684FF6FF03184040EA0220034A5E
:1021D00010430860704700000CED00E00000FA05B5
:1021E00070470068416200207047F0B50368586A84
:1021F00039B19C6A4FF4827600EB144400204D1EE6
:102200000AE040EA024098620FE006EB8007DF59DF
:10221000401C04EB1744C0B2A842F6D344EA024083
:102220004FF4807202EB810158500020F0BDD0F8CD
:10223000E00404F054B901EBC10200EB8202D0F8D3
:10224000E004126A04F0A5B801EBC10200EB8202BF
:10225000D0F8E004D2F8602204F0F7B8D0F8E00437
:1022600004F03FB90A0601F00F0101EBC10100EBD8
:10227000810101D5143101E001F51571006805F007
:1022800021B870B504460B0601F00F0000EBC00149
:1022900004EB81014FF001024FF0000502D54A75B1
:1022A000143103E081F8555201F51571087094F866
:1022B0009404012808D084F89424206804F01CFDBC
:1022C00084F89454002070BD022070BD70B504469F
:1022D00001F00F002279904201D9012070BD0B0658
:1022E00001F00F0101EBC10104EB81014FF001028C
:1022F0004FF0000502D54A75143103E081F85552BC
:1023000001F515718D70087094F89404012808D0B7
:1023100084F89424206804F061FE84F8945400202A
:1023200070BD022070BD2DE9F04104460F0601F09A
:102330000F0000EBC00104EB81014FF001064FF0EC
:10234000000502D54E75143103E081F8555201F5B0
:102350001571C2F30A0208708A600B714A7802B1E3
:102360004883022B00D14D7194F89404012809D0C0
:1023700084F89464206804F00DFC284684F8945492
:10238000BDE8F0810220FBE710B501F00F0404EB7B
:10239000C40100EB8101C1E998230023C1F8683230
:1023A00081F8553281F85442837901F51571012B7A
:1023B00000D1CA618279006804F068FE002010BD77
:1023C00070B504460D4601F00F002179884201D90D
:1023D000012070BD29064FF000064FF0010206D51E
:1023E00000EBC00104EB81014A75143107E005EBF5
:1023F000C50104EB810181F8556201F515718A7000
:10240000087094F89404012807D084F89424206874
:1024100004F010FE280702D007E0022070BDA17969
:1024200004F29C42206804F0ADFD84F8946400201E
:1024300070BD10B501F00F0404EBC40100EB810185
:10244000C1E9082300238B6201234B7501F8144F67
:102450008379012B00D1CA618279006804F016FEED
:10246000002010BD2DE9FC5F05680446284604F0F5
:10247000C5FF00287DD1206804F0ECFF002878D04B
:10248000D5F80808C0F30D20C4F8D404206804F07F
:10249000E1FF800704D52068416901F00201416134
:1024A000206804F0D7FFC10604F29C40009034D5A8
:1024B0002068816921F0100181612F6A07F00F0007
:1024C00000EBC00004EB8006C7F3434006F5157629
:1024D000022802D0062811D01AE047F6F070074211
:1024E00016D0C7F30A1217462846F16804F0B6FF63
:1024F000F0683844F0607069384408E008222846E3
:10250000009904F0ABFF7069C7F30A1108447061C9
:102510002068816941F010018161206804F09AFF10
:1025200000034FF0080B4FF0000A4FF001097CD573
:102530000026206804F06DFF074674E0F80770D0AD
:10254000F1B2206804F07EFF8046C00707D005EB9B
:102550004611C1F8089B3146204602F02FFC5FEA85
:10256000087024D505EB4611C1F808BB2068016C42
:1025700000E023E200EB46100191D0F8082BFB4B62
:10258000994205D9110403D54FF40041C0F8081B46
:10259000204600F0F6FAF5490198884207D9A0795B
:1025A000012804D120680121009A04F0EBFC5FEAC5
:1025B000C86004D505EB46111020C1F8080B5FEA8E
:1025C00088701DD56869000605D5D5F8040840F463
:1025D0008061C5F8041806EBC60004EB800090F893
:1025E000571200F51570012905D180F803A0F1B24A
:1025F000204600F0E9F905EB46110220C1F8080B6E
:102600005FEA886004D505EB46102021C0F8081B5E
:102610005FEA884005D505EB46104FF40051C0F83D
:10262000081B7F08761C002F88D1206804F012FF59
:1026300040036ED5206804F0E5FE0746002666E0FC
:10264000F80762D0F1B2206804F0EAFE8046C007C5
:1026500023D006F00F01D5F8342809FA01F18A4396
:10266000C5F8342805EB4611C1F80899A07901286E
:102670000FD106EBC60004EB8000D0E9072111441E
:10268000016236B9606A20B920680121009A04F01D
:1026900079FCF1B22046FFF7CEFD5FEA087003D562
:1026A00005EB4611C1F808B95FEAC86004D505EB2F
:1026B00046111020C1F808095FEA486004D505EB0F
:1026C00046104021C0F808195FEA887016D53146D7
:1026D000284604F068FE06EBC60004EB8000C17DCE
:1026E0001430012905D180F803A0F1B2204600F092
:1026F00067F905EB46110220C1F808095FEA086096
:1027000003D53146204602F0BFFB7F08761C002F20
:1027100096D1206804F09EFE002811DAD5F804084E
:1027200020F00101C5F8041894F8CC0401282BD03E
:10273000204600F00BFA2068416901F00041416138
:10274000206804F087FE00050BD5D5F80808C007FF
:1027500002D0204600F03EFA2068416901F4006191
:102760004161206804F076FEC00467D5D5F80408FE
:1027700020F00100C5F804081021206804F013FEC1
:1027800000214FF67F3220E084F8CCA400212046BF
:10279000FFF726FDCFE700BF05EB4110C0F8082981
:1027A000D0F8003923F40013C0F80039C0F8082B22
:1027B000D0F8003B23F40013C0F8003BD0F8003BF6
:1027C00043F00063C0F8003B491C20798842E3D8FD
:1027D000D5F81C0840F00111C5F81C18E07B002852
:1027E00028460DD0D0F8840840F00B01C5F88418B5
:1027F000D5F8440840F00B012846C5F844180DE010
:10280000D0F8140842F22B010843C5F81408D5F893
:10281000100840F00B012846C5F81018D0F8000841
:1028200020F4FE61C5F80018A1792068009A04F030
:10283000A9FB2068416901F480514161206804F0DE
:1028400009FE800415D5206804F0E4F9206804F03E
:10285000C8FDE07100F00EFB0146E279206804F04B
:102860005BFE204600F05CF92068416901F40051EC
:102870004161206804F0EEFD000707D5204600F016
:1028800069F92068416901F008014161206804F09C
:10289000E1FD000616D5A86920F08001A961012696
:1028A0000DE000BF06EBC60004EB800090F8570275
:1028B000012803D1F1B22046FFF7D4FC761C207921
:1028C000B042EFD8206804F0C5FDC0021FD5012634
:1028D0004F4614E005EB4610D0F8000906EBC601A0
:1028E00004EB81010A7E012A08D1002806DACF759F
:1028F000F0B240F080012046FFF7B4FC761C20794E
:10290000B042E7D82068416901F480114161206834
:1029100004F0A0FD800234D501204A4629E000BF22
:1029200005EB4011D1F8001B00EBC00304EB83035F
:1029300093F85862012E1BD1002919DA94F8D46457
:10294000C1F3004106F001068E4211D183F85722EF
:10295000A96941F08003AB616969090608D4D5F81B
:10296000040840F40070C5F8040805E00A30544F2C
:10297000401C21798142D3D82068416901F40011BB
:102980004161206804F066FD400007D52046FFF74E
:102990004EFC2068416901F080414161206804F0EB
:1029A00059FD40070AD520684568680702D52046CA
:1029B000FFF754FC2068416829434160BDE8FC9F53
:1029C000D0F8E00403F0DBBDD0F8E00403F0EBBD89
:1029D000F8B5040005D094F895042668002510B1D8
:1029E00006E00120F8BD84F89454204600F056F823
:1029F000032084F89504B6F1A04F00D1A57120689A
:102A000004F0BAFA207C8DF8000094E80F0004F07E
:102A10000FF90226B8BB0021206804F03EFD90BBF0
:102A2000002001270DE000BF00EBC00104EB810195
:102A30004F750875C8850D76CD610D62401CC0B21A
:102A40004D6221798142EFD8002011E000EBC001F6
:102A500004EB810181F8555281F8540281F85852F3
:102A6000C1F85C52C1F86052401CC0B2C1F8645257
:102A700021798142EAD8207C8DF8000094E80F008B
:102A800004F0BCF910B184F89564AAE7657484F881
:102A90009574206804F0A4F90020F8BD10B586B044
:102AA000044614216846FDF7F7FB2068B0F1A04FFB
:102AB0002FD119480021026842F00102026000682B
:102AC00000F0010005904FF4C05000900220CDE9C5
:102AD0000101032003900A20049069460F48FFF784
:102AE000DDF80D48001D016841F0800101600A48D1
:102AF0001430016841F4804101600068002200F454
:102B00008040059011464320FFF738FB4320FFF734
:102B100027FB06B010BD0000303802400000024024
:102B200070B50446C079012570B1022801D0FDF7C7
:102B30004BFF2946D4F8E00403F0A4FDD4F8E004E8
:102B4000BDE8704003F058BD0025F2E7D0F8E0047E
:102B500003F081BDD0F8E00403F087BD10B5044652
:102B600090F8940401280AD0012084F89404617438
:102B7000206804F0C0FC002084F8940410BD0220FA
:102B800010BDD0F8E02400F29C41104603F086BD51
:102B900010B50446006894F89414012909D0012165
:102BA00084F89414C168490609D5617B012902D0D3
:102BB00005E0022010BD816B41F480318163206803
:102BC00004F0CFFB206804F0FDF8002084F89404A2
:102BD00010BD000010B50446D0F8E00403F0A0FDDD
:102BE0002068D0F8001E41F00101C0F8001EE07A14
:102BF000002804D00248016841F00601016010BDC0
:102C000010ED00E02DE9F843054600684FF001099A
:102C1000C1074FF0000601D1400727D5DFF80C812E
:102C2000C8F86860FFF744F90746414C05E000BF6B
:102C3000FFF73EF9C01B022857D820680001F7D4DF
:102C400068688101287A41EA007039498431086056
:102C5000C8F86890FFF72CF9074604E0FFF728F959
:102C6000C01B022841D820680001F7D528788007CA
:102C700052D52F484030016841F080510160006812
:102C80002C4C00F080500090206840F48070206050
:102C9000FFF70EF9074604E0FFF70AF9C01B022808
:102CA00023D82068C005F7D5214C7034206810F473
:102CB000407020D0A98901F4407181421BD0206866
:102CC0001D4920F44070C1F800900E60206020681B
:102CD000C00710D0FFF7ECF8064641F2883707E04E
:102CE000FFF7E6F8801BB84202D90320BDE8F8835D
:102CF00020688007F4D5E9680D48C1F30122083047
:102D0000032A0BD0016821F4F81101602068A98919
:102D1000C1F30B01084320600020E7E70268074B7E
:102D200022F4F81219400A430260EFE7000047421C
:102D30000038024000700040400E4742FFFCFF0F89
:102D40002DE9F0470E46050065D0DFF81481D8F86C
:102D50000000F7B200F00700B04207D288F8007018
:102D6000D8F8000000F00700B04254D128683D4C6C
:102D7000810712D5400703D5206840F4E050206059
:102D80002878000703D5206840F460402060206860
:102D9000A96820F0F000084320602878C0072DD0F3
:102DA000304968680839012812D0022813D0032856
:102DB00011D00968890700292DDA216821F0030163
:102DC00001432160FFF774F8814641F2883A0EE032
:102DD00009688903EFE709688901ECE7FFF768F8FC
:102DE000A0EB0901514502D90320BDE8F087206816
:102DF000696800F00C00B0EB810FEFD1D8F800103B
:102E0000404601F00701B14207D90770006800F0A1
:102E10000700B04201D00120E7E72878400705D538
:102E20002068E96820F4E050084320602878000713
:102E300006D52068296920F4604040EAC10020607E
:102E400000F03EF82168084AC1F30311515CC84004
:102E50000649086006480068FFF74AF90020C4E701
:102E6000003C0240083802408C210108C4000020C8
:102E7000BC0000200148006870470000C40000202A
:102E80000448054900680968044AC1F38221515C7D
:102E9000C8407047C4000020083802409C21010847
:102EA0000448054900680968044AC1F34231515C8D
:102EB000C8407047C4000020083802409C21010827
:102EC000154810B5006810F00C02144813D04110DA
:102ED000042A0FD0082A0ED10F4C241F2268236821
:102EE00002F03F025B0207D52068C0F38810A0FB08
:102EF000010106E0084610BD2168C1F38811A1FB5D
:102F000000010023FDF75CF92168C1F30141491C70
:102F10004900B0FBF1F010BD083802400024F40075
:102F20002DE9F84F04006ED02078DFF84C93C007ED
:102F3000A9F104054AD009F104000168C1F3810137
:102F4000012908D00068C0F3810002280AD1D9F80D
:102F50000000400206D52868800337D56068002845
:102F6000E1D033E06068B0F5803F10D0B0F5A02F1D
:102F7000286810D020F480302860286820F4802051
:102F800028606068A8B1FEF793FF06460DE0286848
:102F900040F48030F4E740F480202860F7E700BF79
:102FA000FEF786FF801B642873D828688003F7D556
:102FB0000CE0FEF77DFF064605E000BFFEF778FF58
:102FC000801B6428F0D828688003F7D42078DFF8C5
:102FD000AC8280074FF0000A3ED5A748001D01686B
:102FE00011F00C0F08D00068C0F3810002280BD14B
:102FF000D9F80000400207D42868800716D5E06899
:10300000012800D112E033E1E068B8B10120C8F82E
:103010000000FEF74DFF064605E000BFFEF748FF43
:10302000801B0228C0D828688007F7D52868216946
:1030300020F0F80040EAC10028600DE0C8F800A0C8
:10304000FEF736FF064604E0FEF732FF801B02283B
:103050001FD828688007F7D42078000722D5864F2C
:1030600087486169703771B101210160FEF720FF67
:10307000064604E0FEF71CFF801B022809D83868CA
:103080008007F7D50EE0C0F800A0FEF711FF064656
:1030900005E082E0FEF70CFF801B02287DD838682F
:1030A0008007F7D42078400768D5DFF8CCB1002737
:1030B0000BF13C0BDBF80000C0000BD4DBF8001078
:1030C00041F08051CBF80010DBF80000012700F040
:1030D000805000906B4E3068C00510D4306840F4CA
:1030E00080703060FEF7E4FE009005E0FEF7E0FE41
:1030F0000099401A022850D83068C005F6D55E4EB7
:10310000A0686C3601280FD00528306810D020F058
:1031100001003060306820F004003060A068B8B171
:10312000FEF7C6FE00900FE0306840F00100F4E7C3
:1031300040F004003060F7E7FEF7BAFE0099411A4C
:1031400041F28830814266D830688007F4D50EE0BD
:10315000FEF7AEFE009007E0FEF7AAFE0099411AC6
:1031600041F28830814256D830688007F4D42FB1BC
:10317000DBF8001021F08051CBF80010A069C8B333
:103180003D49091D0968C1F3810102294AD002287D
:10319000504607D0C8F8600000E03CE0FEF788FE2B
:1031A00004463BE04746C8F86000FEF781FE06464D
:1031B00005E000BFFEF77CFE801B02282BD82868A4
:1031C0008001F7D4D4E907010843A16A2E4A4908CF
:1031D00002EB0141626A41EA8211084394F82C1023
:1031E00040EA0161C9F8001001203866FEF760FE70
:1031F000044606E03EE000BFFEF75AFE001B022830
:1032000009D828688001F7D534E000BFFEF750FEEA
:10321000001B022802D90320BDE8F88F286880012E
:10322000F4D427E00128F7D0D9F80000E26900F4CF
:10323000800191421CD1226A00F03F01914217D1D6
:1032400047F6C071626A0140B1EB821F10D1A26AD9
:103250004FF0FF3300F4403103EB5202B1EB024F69
:1032600006D194F82C1000F07060B0EB016F01D023
:103270000120D1E70020CFE7043802400000474298
:10328000800E4742007000400000FFFF0068503091
:1032900050F8210070470068503040F821207047F6
:1032A00010B5040002D0607F10B106E0012010BD0F
:1032B00000202077204600F041F802206077206847
:1032C000C168C943C90632D5CA2141622168532069
:1032D0004862204601F036FE20BB20688168164A0D
:1032E000114081602168886862681043D4E9042332
:1032F0001A43104388602168E0680861206801690A
:10330000228941EA02410161204601F03FFE48B9AD
:1033100021680A6C22F480220A6421680A6CA3697D
:103320001A430A642268FF21516208B110BD0020CF
:103330000121617710BD0000BFFF8FFF1FB5002185
:1033400000910191029103910068084988420CD1D3
:1033500002200090C00103906846FFF753FC08B1BB
:10336000FDF732FB0249012008601FBD0028004024
:103370003C0E474270B50446007F0B46012819D029
:103380000126267702206077B2B19878D97840EA92
:10339000014558781978000240EA41300543216818
:1033A000CA204862216853204862204601F0CAFDC5
:1033B000D0B122E0022070BD5878C10603D500F0DC
:1033C000EF000A305870D87801F0B0FD0204587848
:1033D00001F0ACFD42EA0022987801F0A7FD02431B
:1033E000187842EA4035DAE707480540206845602A
:1033F000204601F0CBFD00B966772268FF215162BB
:103400000021217770BD00003FFFFF002DE9F04152
:103410000446007F0D46012823D04FF0010884F8B0
:103420001C80022060772068002780684FEA406097
:10343000D2B1002800DBEF70A878297840EA014675
:103440006878E978000240EA815006432168CA2082
:103450004862216853204862204601F073FDB8B1EC
:103460002CE00220BDE8F081002800DBEF70287816
:1034700001F05CFD0204687801F058FD42EA002288
:10348000A87801F053FD0243E87842EA8056DDE770
:103490000D480640206806602068816821F480217C
:1034A0008160D5E90301084321688A681043886078
:1034B000204601F06BFD08B984F81D802268FF21C9
:1034C00051622777CEE700007F7F7F0070B504460A
:1034D0000B482168C860FEF7EBFC05464FF47A768E
:1034E00007E000BFFEF7E4FC401BB04201D9032017
:1034F00070BD2068C0688006F4D5002070BD000053
:103500005F7F010070477047F0B5426E920F0A70FE
:10351000426EC2F383624A70426EC2F301628A70E5
:10352000426E120CCA70B0F86420120A0A7190F848
:1035300064204A71826E120DCA80826EC2F3034209
:103540000A72B0F86820C2F3C0324A72B0F868203C
:10355000C2F380328A72B0F86820C2F34032CA7275
:10356000B0F86820C2F300320A7300264E73426C32
:103570004FF40075012462B1012A3AD0026847492C
:103580009163816B41F08051816380F83440012068
:10359000F0BDB0F86820C36E9205120D42EA937236
:1035A0000A61C26EC2F3C2620A75C26EC2F30262DF
:1035B0004A75C26EC2F342528A75C26EC2F382422B
:1035C000CA75C26EC2F3C2320A760A69521C4265DB
:1035D0000B7E03F007039B1C9A4042650B7A03F0B5
:1035E0000F0704FA07F383655B0A5A43C0E91725FE
:1035F0000EE090F86820C36E9206920A42EA1342E7
:103600000A610A69521C92024265C0E916520566B7
:1036100030F86C2FC2F3803201F8192F0288C2F300
:10362000C6124A70027802F07F028A704268D20F96
:10363000CA704268C2F341720A714268C2F3826280
:103640004A714268C2F383528A714268C2F340529F
:10365000CA710E724268C2F300424A728288C2F393
:10366000C0328A728288C2F38032CA728288C2F300
:1036700040320A738288C2F300324A738288C2F3EE
:1036800081228A738288C2F30122CA730079C0F34F
:10369000460008744C740020F0BD0000FF05400097
:1036A00070B50446B0F8500000250104206801F010
:1036B00090FD18B1A16B0143A16304E000212068D3
:1036C00001F07DFC0546C5F3432070BDF8B5056BE0
:1036D00004460068416B09041BD5290719D5D4E9B4
:1036E0000A56002E14D00027206801F087FC05F848
:1036F000010B010A05F8011B010C05F8021B000E65
:10370000361F7F1C05F8010C082FEDD3C4E90A56BB
:10371000F8BD416B4FF00006C9054FF0010744D5D5
:10372000390281632068C16B4CF23A329143C16324
:103730002068C16A21F00101C16228071DD515F07A
:10374000220F09D0206801F075FD28B1A16B01435B
:10375000A1632046FFF7D7FE216840F23A50886304
:1037600084F834702663A80703D0204600F0ACF933
:10377000F8BD204600F0A9F9F8BD2806FCD5A8063A
:1037800009D5206801F056FD28B1A16B0143A16362
:103790002046FFF7B8FEA807EED12068C16A21F0E5
:1037A0000801C16284F83470E3E7416B490424D511
:1037B000290722D5D4E90856002EDDD05FF0000796
:1037C00015F8010B009015F8011B361F40EA012087
:1037D000009015F8021B40EA0140009015F8011C0A
:1037E00040EA016000906946206801F01AFC7F1CE5
:1037F000082FE5D3C4E90856F8BD416B40F23A22E0
:103800001142F9D0416B890703D5A16B41F0020148
:10381000A163416B090703D5A16B41F00801A163C6
:10382000416B890603D5A16B41F02001A163416B77
:10383000C90603D5A16B41F01001A163416B890555
:1038400003D5A16B41F00801A16340F23A71816395
:103850002068C16B40F23A329143C163206801F0A5
:10386000E9FCA16B0843A063280706D584F83470EF
:1038700026632046FFF747FEF8BD2806FCD515F065
:10388000300F0CD0E16B11480865E06BFDF77AFC56
:103890000028F1D0E06BBDE8F84001F051BEA80768
:1038A0000CD0216C0A480865206CFDF76BFC0028E1
:1038B000E2D0206CBDE8F84001F020BEA66384F899
:1038C000347026632046FFF71DFEF8BD4155000801
:1038D000FD54000870B504000ED094F834000025A3
:1038E00018B92577204600F04DF8032084F83400FD
:1038F000204600F00BF808B1012070BDA5632563D8
:10390000012084F83400002070BD0000FEB50025C1
:10391000044676200095CDE901502B462A462946DB
:10392000206801F055FB154E46F8A05F206801F0B5
:1039300061FB012535600220FDF7A8FD204601F05E
:1039400099FE28B184F83450A16B0143A16313E0C0
:10395000204601F017FE0028F4D14FF400712068D2
:1039600001F098FB002808D0226805499163A16BFB
:103970000143A16384F834500120FEBD008025423C
:10398000FF0540002DE9F04F87B005461421684639
:10399000FCF782FC4649286888427DD1454800688A
:1039A000444940F400600860086800F40060059035
:1039B0004048143800683F4940F00400143908605A
:1039C000086800F004000590086840F008000860EE
:1039D0000868022400F0080005904FF48850CDE9F3
:1039E000000402AA002003264FF00C0882E84101DF
:1039F00069463148FEF752F902AA002082E84101E7
:103A00000427CDE9007469462C48FEF747F92D4C90
:103A10002B484FF00068C4E9000800204FF480698B
:103A2000A060C4E90309B8024FF4804BC4E9050B58
:103A3000C4E909764FF0200A0020C4E907A07E05FA
:103A4000B7102046C4E90B67FDF77EFC08B1FCF710
:103A5000BBFF2C64A5631B4C194860344830C4E993
:103A600000084020A0600020C4E90309C4E907A0C1
:103A70000420606204F12802032082E8C1004FF4B0
:103A80008051C4E9051B2046FDF75EFC08B1FCF738
:103A90009BFFEC63002200E007E011463120A563A4
:103AA000FEF76CFB3120FEF75BFB07B0BDE8F08F43
:103AB000002C01404438024000080240000C024043
:103AC00058640240580400207047704770B50400E5
:103AD00009D0606A002540B125616561A56294F84E
:103AE000510040B10CE0012070BD6068B0F5827FEC
:103AF000F4D0E561F2E784F85050204600F044F835
:103B0000022084F851002068016821F04001016022
:103B1000A088218900F4827001F404410843A1893E
:103B200001F400610843217C01F002010843217D7A
:103B300001F001010843218B01F400710843217F4A
:103B400001F03801084394F8201001F08001084387
:103B5000218D01F40051084321680860A069042107
:103B600001EA104094F8241001F010010843216884
:103B700048602068C16921F40061C1616565012068
:103B800084F85100002070BD10B586B004461421A1
:103B90006846FCF781FB13492068884220D112480F
:103BA0000021026842F480520260006800F48050F4
:103BB00005900D481438026842F002020260006865
:103BC00000F002000590382000900220CDE90101AC
:103BD000032003900520049069460448FEF75EF830
:103BE00006B010BD003001404438024000040240DD
:103BF00070B515460E46040003D094F8490010B184
:103C000007E0012070BD002084F84800204600F045
:103C10001DF804F108012068FCF7F6FE3146A268A1
:103C20002068FCF725FFD4E901022946236BFCF745
:103C3000CDFE2168A06851F8202042F0010241F831
:103C40002020012084F84900002070BDFDF7D2BF7C
:103C500010B5401EB0F1807F01D3012010BD4FF0A0
:103C6000E02460610F21601703F012FD0020A061C5
:103C700007202061002010BD7047704770B590F894
:103C80003C20012A32D0012480F83C40022280F8F6
:103C90003D2003685A689D6822F070060A68324326
:103CA0005A60134B02689A4214D0B2F1804F11D07F
:103CB000104B9A420ED0104B9A420BD00F4B9A42A7
:103CC00008D00F4B9A4205D00E4B9A4202D00E4BB1
:103CD0009A4204D1496825F080031943916080F825
:103CE0003D40002180F83C10084670BD022070BDA8
:103CF000000001400004004000080040000C0040AB
:103D000000040140004001400018004010B50400CC
:103D100003D094F83D0010B107E0012010BD002051
:103D200084F83C00204600F01FF8022084F83D0093
:103D3000211D206801F072FD012084F8460084F8FE
:103D40003E0084F83F0084F8400084F8410084F885
:103D5000420084F8430084F8440084F8450084F865
:103D60003D00002010BD000008B50068B0F1804F94
:103D700012D10A48016841F0010101600068002287
:103D800000F00100009011461C20FEF7F7F9BDE895
:103D900008401C20FEF7E4B908BD0000403802408E
:103DA00090F83D10012901D001207047022180F8D0
:103DB0003D100168CA6842F00102CA6000681149FA
:103DC000884214D0B0F1804F11D00F4988420ED0F4
:103DD0000E4988420BD00E49884208D00D498842CE
:103DE00005D00D49884202D00C49884204D181682F
:103DF00001F00701062903D0016841F001010160CB
:103E0000002070470000014000040040000800400E
:103E1000000C004000040140004001400018004038
:103E200070B5044690F83C000025012817D0012603
:103E300084F83C60022084F83D002068826822F00B
:103E4000770222F47F4282600868502838D00DDC67
:103E500020284FD005DC90B3102811D14AE0022071
:103E600070BD302846D040280AD13BE060282FD0D2
:103E700070280DD0B0F5805F03D0B0F5005F12D090
:103E8000012584F83D60002084F83C00284670BD80
:103E9000CB68D1E90121206801F028FD2068816804
:103EA00041F0770109E0CB68D1E90121206801F0F8
:103EB0001DFD2068816841F480418160E1E719E0DF
:103EC000CA684968206801F023FD5021206806E097
:103ED000CA684968206801F02CFD6021206801F063
:103EE0000FFDCEE7CA684968206801F011FD402146
:103EF0002068F4E7226801461046F0E770472DE994
:103F0000F04104460068C66805694FF00007A9073C
:103F100013D5B10711D5F91E016101202077206862
:103F200080698007204602D0FFF7E8FF04E000F038
:103F30007EF8204600F07CF82777680716D57007D2
:103F400014D521686FF004000861022020772068F2
:103F5000806910F4407F204602D0FFF7CFFF04E0D5
:103F600000F065F8204600F063F82777280715D59C
:103F7000300713D521686FF008000861042020770E
:103F80002068C0698007204602D0FFF7B7FF04E031
:103F900000F04DF8204600F04BF82777E80616D5DC
:103FA000F00614D521686FF0100008610820207712
:103FB0002068C06910F4407F204602D0FFF79EFFC2
:103FC00004E000F034F8204600F032F82777E807E4
:103FD00008D0F00706D021686FF001000861204684
:103FE00000F028F8280608D5300606D521686FF0BD
:103FF000800008612046FFF73FFE680608D570067E
:1040000006D521686FF040000861204600F02EF8C8
:10401000A8060AD5B00608D521686FF0200008610F
:104020002046BDE8F041FFF728BEBDE8F0817047AB
:104030007047000070B50B4CA5680B4802F0B6F84D
:10404000691CA160A8420BD104F10C0000F08EFAAB
:10405000082204F10C01044802F0E8F80020A060F6
:1040600070BD0000140000206027002070477047DA
:1040700070470000F8B5016804460868CA684B69D3
:1040800010F00F0F4FF0000559D003F0010602F4B5
:104090009077374365D0C10705D0D10503D5616C52
:1040A00041F001016164410705D5D90703D0616C76
:1040B00041F002016164810705D5D90703D0616C25
:1040C00041F004016164010707D502F0200131438A
:1040D00003D0616C41F008016164616C00293AD041
:1040E000800604D5900602D5204601F0E7FC206842
:1040F0004069616CC0F38010090700D460B32046AA
:1041000001F0A7FC20684069400621D520681430E2
:1041100050E8001F21F0400140E80012002AF5D1CC
:10412000E06BA8B172490165E06BFDF72BF8002840
:1041300011D0E06B016D01B0BDE8F0400847830687
:104140000FD593060DD52046BDE8F84001F0B6BC6A
:104150002046FFF78DFFF8BD2046FFF789FF656415
:10416000F8BD266B2023012E7ED1C6067CD5D6064F
:104170007AD508684868009048694FF00206400602
:104180004DD5E26B106840684FF480770004000C56
:104190003AD0A18D814237D9E085D069B8422DD07F
:1041A00020680C3050E8001F21F4807140E80012B4
:1041B000002AF5D12068143050E8001F21F00101D9
:1041C00040E80012002AF5D12068143050E8001FA2
:1041D00021F0400140E80012002AF5D184F8423075
:1041E000256320680C3050E8001F21F0100140E8E2
:1041F0000012002AF5D1E06BFCF77BFF6663A08D0F
:10420000E18D401A81B206E0A18D8142A8D1D0692A
:10421000B842A5D166632046FFF729FFF8BDA08DFF
:10422000E18D401A81B2E08D0028F7D00029F5D049
:1042300020680C3050E8002F22F4907240E80027EC
:10424000002FF5D12068143050E8002F22F0010231
:1042500040E80027002FF5D184F84230256320681C
:104260000C3050E8002F00E006E022F0100240E899
:104270000023002BF3D1CDE705062BD5150629D554
:1042800094F841002128C9D1A068B0F5805F01D120
:104290002069B0B1206A411C216221680078486021
:1042A000E08C401E0004000CE084B7D12068C16897
:1042B00021F08001C1602068C16841F04001C16007
:1042C000F8BD206A0088C0F308004860206A801C9E
:1042D0002062E5E74006F3D55006F1D5CA682046CE
:1042E00022F04002CA6084F8413000F021F9F8BDA4
:1042F0005759000870B5040004D094F84100002517
:1043000010B106E0012070BD84F84050204600F056
:1043100023F8242084F841002068C16821F400516A
:10432000C160204601F02CFC2068016921F4904115
:1043300001612068416921F02A0141612068C1685A
:1043400041F40051C1606564202084F8410084F884
:1043500042006563002070BD70B586B0064614212A
:104360006846FBF799FF24493068884242D12348C8
:104370000025016841F010010160006800F01000A4
:1043800005901E481438016841F001010160006881
:10439000694600F0010005904FF4C06000900220D3
:1043A00001900120029003200390072004901448FC
:1043B000FDF774FC144C134820604FF00060C4E912
:1043C00001054014C4E9035080106561C4E906503A
:1043D000256220466562FCF7B7FF08B1FCF7F4FAE6
:1043E000F463002211462520A663FDF7C7FE2520B1
:1043F000FDF7B6FE06B070BD001001404438024023
:1044000000000240406402400007002090F8423063
:10441000202B01D00220704721B11AB10023036381
:1044200001F034BC0120704710B5084A0168914280
:104430000BD1074C074B21784A421944D2B24FF0B6
:10444000FF3300F025F80020207010BD001001405F
:1044500010000020B805002070B50A4A016891429A
:104460000ED1094C4FF0FF332178C1F18002D5B253
:10447000064A11442A4600F00BF8207828442070A0
:1044800070BD00000010014010000020B8050020A1
:104490002DE9F843044690F84100984616460D462B
:1044A000202802D00220BDE8F88385B17EB100202B
:1044B0006064212084F84100FDF7FAFCA68481465F
:1044C000E684A0682027B0F5805F02D003E00120D9
:1044D000E9E7206910B12E4600250EE000260CE029
:1044E0008021204601F022FCA8B9C6B116F8010BC4
:1044F00021684860E08C401EE084E08C4B464FF021
:104500000002CDF800800028EAD14FF0400120469B
:1045100001F00CFC40B184F841700320C3E735F88A
:10452000020BC0F30800E3E784F841700020BAE70B
:104530007047FEE7F0B500230A24302537261F46D2
:1045400011E000BFB4EB107F02D905EB107C01E055
:1045500006EB107C01F813C001EB430C00015B1C5F
:104560008CF80170DBB29342ECD3F0BD2DE9F04141
:104570001A4F06464FF48074002521463846FDF751
:1045800085FC58B921463846FDF780FC30B91E2518
:1045900021463846FDF77AFC0028F9D0104F214615
:1045A0003846FDF773FC58B921463846FDF76EFCD6
:1045B00030B91F2521463846FDF768FC0028F9D0A0
:1045C0000020014601E0022806D03154401CC0B250
:1045D0000828F8D3BDE8F081B570F7E7001802406D
:1045E0000000024038B504460020009063696A4626
:1045F0000121206898476FF00405002825DB6369D6
:104600006A4601212068984700281EDB0098400771
:1046100001D4012038BD63696A46002120689847AB
:10462000002812DB0098C10408D44FF404518143E0
:104630001CD081041CD4C0051CD415E063696A46F3
:104640001F2120689847002801DA284638BD0098C5
:10465000C10401D4062038BDC0F38200062805D06D
:10466000022805D0052805D0052038BD022038BD18
:10467000032038BD042038BDF8B5054600200446A7
:1046800006460090686808BBA86800B180472020F3
:104690006FF0040728606B696A461221204698472C
:1046A000002801DA3E4609E0009800F01F00A04211
:1046B00004D100262C601F2C06D809E0641C1F2C96
:1046C000E9D92C681F2C02D96FF0020602E00EB95E
:1046D000012068603046F8BD88B1CA687AB18A683E
:1046E0006AB10A695AB10A6882604A68C260CA68D7
:1046F00042618A68026109698161002070474FF058
:10470000FF3070470E4810B50C490160152141601B
:1047100000214FF480328160C0E9031241610176CB
:1047200041768176C17601774177FCF738FB002826
:1047300003D0BDE81040FCF747B910BD006400404D
:10474000700200200E4810B50C490160152141602F
:1047500000214FF480328160C0E90312416101768B
:1047600041768176C17601774177FCF718FB002806
:1047700003D0BDE81040FCF727B910BD0068004029
:1047800098020020114808B5016841F480010160D9
:104790000068002200F48000009011463A20FDF7E6
:1047A000EDFC3A20FDF7DCFC002211463B20FDF732
:1047B000E5FC3B20FDF7D4FC002211464520FDF727
:1047C000DDFCBDE808404520FDF7CABC303802409A
:1047D0002DE9F04F8FB01C216846FBF75DFD1C21D1
:1047E00007A8FBF759FD2E484FF0040B0024C0E941
:1047F00002B41025C0E904458461C4614FF4805AB5
:104800000462C0E9094AC46204634463DFF8949017
:1048100084634FF020484464C0E900890F26CDE945
:10482000004602A90A20112781E8B100002269464A
:104830001B480694FFF7DCF908B1FCF7C5F81848E7
:104840000621503007AAC0E90214C0E9044584617A
:10485000C4610462C0E9094A4FF48041C0E90B41D8
:10486000446384634464C0E900898DE85008059777
:10487000CDE90365FF20CDE90646CDE9086008488B
:10488000CDE90C74CDE90A6569465030FFF7B0F9FF
:10489000002801D0FCF798F80FB0BDE8F08F0000B9
:1048A000C0020020040100A02DE9F04F87B01421C0
:1048B0006846FBF7F1FC5F480024016841F01001F5
:1048C0000160016801F010010591016841F00401E7
:1048D0000160016801F004010591016841F02001C7
:1048E0000160016801F020010591016841F080013B
:1048F0000160016801F080010591016841F001014A
:104900000160016801F001010591016841F00201B7
:104910000160016801F002010591016841F0400168
:104920000160016801F040010591016841F0080152
:1049300001600068DFF800A100F008000590012286
:1049400004215046FDF7AFFA4FF48068012241463A
:104950003A48FDF7A8FA002201213948FDF7A3FAE9
:10496000012278213648FDF79EFADFF8D8B00122FF
:1049700003215846FDF797FA4FF4004901224946B2
:104980003148FDF790FA0427032601250097039686
:10499000CDE9015469465046FDF780F9CDF8008015
:1049A0000396CDE9015469462448FDF777F959206B
:1049B0000090CDE90154694621480394FDF76EF952
:1049C0002020CDE90005CDE9024669461C48FDF7E7
:1049D00065F9CDE90065CDE9024669465846FDF71F
:1049E0005DF9009769465846CDE90145FDF756F94E
:1049F000E8028DE8310069461048FDF74FF92F02B3
:104A0000009769461048CDE90145FDF747F9009741
:104A100069460B48CDE90145FDF740F9CDF8009016
:104A20000396CDE9015469460748FDF737F907B009
:104A3000BDE8F08F30380240001002400014024000
:104A40000000024000040240001802400D4810B56A
:104A50000B4901600C49416000214FF480428160A4
:104A6000C0E9031241618161C1610162FDF726FA6B
:104A7000002803D0BDE81040FBF7A6BF10BD000022
:104A80000054004060030020A0860100FEB5364CB3
:104A90004FF0C00CA82184F800C061702022A270E1
:104AA0000123251DE370FF2028706870A87000277F
:104AB0002E1DEF7086F800C07170B270F37005F0B3
:104AC000C5FA2068E17803BA0A0603F47F4342EA94
:104AD000032203BA00BA03F47F03084342EA132215
:104AE000A4F10C0142EA106008602868E97803BA72
:104AF0000A0603F47F4342EA032203BA00BA03F42E
:104B00007F03084342EA1322A4F1080142EA10603D
:104B100008603068F17803BA0A0603F47F4342EA7A
:104B2000032203BA03F47F0300BA42EA13220843C4
:104B300042EA1060211F231F08600C480C490097AF
:104B4000CDE901101A1F111F0A4805F055FF094849
:104B500006F06CF9074806F07DFA03B00649BDE897
:104B6000F040044806F0BCB9AC000020B58800084D
:104B7000E98A0008007D0020ED89000870B50B4827
:104B800003F0FAFF07F052FA084DFDF791F9084CCF
:104B90002168401A642807D3FDF78AF92060284667
:104BA000BDE8704003F0D8BE70BD0000007D00205D
:104BB0009C00002070B586B014216846FBF76CFBA2
:104BC0002348002421490594C0E900147F21816015
:104BD000FF21C0E9031444618461FEF761FB08B161
:104BE000FBF7F2FE00211A48FEF750FB46F266661C
:104BF000B04228D009258DF8005035208DF80100ED
:104C00008DF8024003940122694611480494FEF78E
:104C1000FDFB08B1FBF7D8FE06208DF814008DF8D7
:104C2000155026208DF816008DF81740012205A991
:104C30000748FEF79FFB08B1FBF7C6FE324601218D
:104C40000348FEF728FB06B070BD000000280040B6
:104C5000B40300200B4810B50949016000214160F0
:104C60008160C1600161416104218161FEF732FE12
:104C7000002803D0BDE81040FBF7A6BE10BD000021
:104C8000002C0140D40300200F4810B50D490160ED
:104C90004FF48271416000218160C1604FF4007265
:104CA0000161C0E90512C1610162416281620A21AC
:104CB000C162FEF70BFF002803D0BDE81040FBF7F0
:104CC00083BE10BD003001401805002010B586B02D
:104CD00000241748009401940294039404944FF024
:104CE0008041059401605321C0E901144FF47A71A9
:104CF000C0E9031480218161FFF708F808B1FBF7D0
:104D000063FE4FF48050009069460948FFF788F829
:104D100008B1FBF759FE049404A905480594FEF771
:104D2000ADFF002801D0FBF74FFE06B010BD00001C
:104D3000700500200C4810B50A4901604FF4E131BC
:104D40004160002181600C22C160C0E904128161D0
:104D5000C161FFF7CFFA002803D0BDE81040FBF790
:104D600033BE10BD00100140B806002010B500226F
:104D70000B490C4801F0E8FA08B1FBF725FE0A4997
:104D8000084801F0F9FC08B1FBF71EFE054801F0E8
:104D900077FD002803D0BDE81040FBF715BE10BD1D
:104DA000300000206027002070010020FEE7FEE7B1
:104DB0000148FDF757BB0000502C00202DE9F041C1
:104DC00003680D4604461E6C03EB4511D1F8080B31
:104DD00094F806E04FF400474FF0200C04F29C4298
:104DE000BEF1010F09D0DFF898E0764539D1020411
:104DF00032D500BFC1F8087B3FE0224B5FEA007E5E
:104E000004D59E4239D90004F4D436E05FEA806EBE
:104E100002D5C1F808CB30E010F0280F2DD19E420A
:104E200001D90004E6D405EBC50004EB8000D1F8FD
:104E3000101BD0F87432C1F31201591AC0F868126D
:104E400000F51570ADB903691BB1C2681144C160AA
:104E50000FE0012120680AE080060AD5C1F808CBDE
:104E600007E035B9D4F8640218B90021184602F0F9
:104E700089F8E9B22046FDF7E7F90020BDE8F081A6
:104E80000A31544F0A30544F2DE9F84F0E4601EBCA
:104E9000C60100EB810481460568D4E90910143489
:104EA000884202D90120BDE8F88F081AA168814222
:104EB00000D20846C01C870805EB46181BE000BF5F
:104EC000A0EB010AA068504500D282460AF1030017
:104ED000870899F8060000901FFA8AF3F2B2284674
:104EE000E16802F08DFBE16801EB0A00E0606169B6
:104EF00001EB0A006061D8F8180980B2B84205D306
:104F0000D4E90401814201D20028D9D1D4E90401B5
:104F1000884208D806F00F0101208840D5F83418DF
:104F20008143C5F834180020BDE77047002102E036
:104F30000A38C0B2491C0A28FAD2090740EA1160AF
:104F4000704700002DE9F041044600680025C16863
:104F5000490618D4C16841F08001C160FCF7A8FF80
:104F600006464FF47A78042707E000BFFCF7A0FF5D
:104F7000801B404501D9677701252068C06840063D
:104F800001D4002DF2D02846BDE8F08170B504466A
:104F900000680025C16821F08001C1602068806838
:104FA000800606D42046FEF791FA10B104206077FF
:104FB0000125284670BD006800F0030070470844D2
:104FC000406970470148FEF781BB0000D403002010
:104FD00070B50DF1100C11439CE870002343194388
:104FE00029434268314347F6FF639A430A434260CC
:104FF000002070BD0321016000207047D0F88000C0
:1050000070470A688260D1E901231A43D1E903316C
:105010000B43C1681A436FF30B011143C1600020B9
:1050200070470968C0F880100020704710B585B03F
:1050300004463720CDE90010402002900020039064
:105040004FF48060049069462046FFF7DAFF41F292
:1050500088323721204600F007F905B010BD000066
:1050600010B504460A4885B001432920CDE9001057
:1050700040200290002003904FF480600490694625
:105080002046FFF7BEFF204600F0A6F905B010BD90
:105090000000108010B585B004461020CDE9001046
:1050A00040200290002003904FF4806004906946F5
:1050B0002046FFF7A6FF41F288321021204600F07B
:1050C000D3F805B010BD000030B585B0002405460A
:1050D000009401944FF480600294CDE90340694646
:1050E0002846FFF78EFF0B484FF4FA510068B0FBDB
:1050F000F1F041F288314843401E03D24FF00040A6
:1051000005B030BD696B0906F6D5C520A8632046F9
:10511000F6E70000C400002010B585B004464FF447
:10512000D57000900820019040200290002003904C
:105130004FF48060049069462046FFF762FF2046E6
:1051400000F0B0F905B010BD10B585B004460720D9
:10515000CDE9002040200290002003904FF48060B1
:10516000049069462046FFF74CFF41F28832072140
:10517000204600F079F805B010BD10B585B00446A2
:1051800000210220CDE90010C020CDE902014FF43A
:105190008060049069462046FFF733FF204600F008
:1051A000F3F805B010BD10B585B004460920CDE96F
:1051B0000010C0200290002003904FF48060049003
:1051C00069462046FFF71DFF204600F0DDF805B0D8
:1051D00010BD10B585B004460D20CDE9001040206B
:1051E0000290002003904FF48060049069462046AE
:1051F000FFF707FF41F288320D21204600F034F816
:1052000005B010BD30B585B00C4605460021032021
:10521000CDE900104020CDE902010001049069466B
:105220002846FFF7EEFE22460321284600F0F6F856
:1052300005B030BD10B585B0044600210C20CDE985
:1052400000104020CDE9020100010490694620468B
:10525000FFF7D7FE034A0C21204600F005F805B001
:1052600010BD000000E1F505454B10B51B684FF47B
:10527000FA54B3FBF4F353435B1E02D24FF00040E9
:1052800010BD426B12F0450FF6D01205F4D4426BFC
:10529000520703D504218163084610BD426BD20733
:1052A00002D00121816305E0C52282630269D2B286
:1052B0008A4201D0012010BD0021FFF780FE314954
:1052C000084201D1002010BD002802DA4FF0007022
:1052D00010BD410001D5402010BD810001D58020C6
:1052E00010BDC10002D54FF4807010BD010102D580
:1052F0004FF4007010BD410102D54FF4806010BD25
:10530000C10102D54FF4006010BD010202D54FF477
:10531000805010BD410202D54FF4005010BD8102F3
:1053200002D54FF4804010BDC10202D54FF40040B9
:1053300010BD410302D54FF4003010BD810302D5EA
:105340004FF4802010BDC10302D54FF4002010BDE2
:10535000010402D54FF4801010BD410402D54FF472
:10536000001010BD810402D54FF4800010BD00076D
:1053700002D54FF4000010BD4FF4803010BD000086
:10538000C400002008E0FFFD12494FF4FA520968FA
:10539000B1FBF2F141F288325143491E02D24FF083
:1053A00000407047426B12F0450FF6D01205F4D45E
:1053B000416B490703D50421816308467047416B5F
:1053C000C90703D00121816308467047C521816365
:1053D00000207047C40000200F494FF4FA520968BA
:1053E000B1FBF2F141F288325143491E02D24FF033
:1053F00000407047426B12F0450FF6D01205F4D40E
:10540000416B490703D50421816308467047C521D4
:105410008163002070470000C400002030B5204B9D
:105420004FF4FA541B68B3FBF4F341F2883463433E
:105430005B1E02D24FF0004030BD446B14F0450FAC
:10544000F6D02405F4D4436B5B0703D504218163B4
:10545000084630BD436BDB0702D00121816303E0C6
:105460000369DBB28B4201D0012030BDC5218163CD
:105470000021FFF7A4FD10F4604F04D0410406D5CD
:105480004FF4005030BD000C1080002030BD0004EF
:1054900002D54FF4805030BD4FF4803030BD000055
:1054A000C400002014494FF4FA520968B1FBF2F12C
:1054B00041F288325143491E02D24FF000407047FA
:1054C000426B12F0450FF6D01205F4D4416B490738
:1054D00003D50421816308467047416BC90703D097
:1054E0000121816308467047416B490601D540217F
:1054F0008163002070470000C400002010B5846B59
:1055000040F23A50216888632046FEF7C9F801212D
:1055100084F8341000212163062801D0052805D124
:105520002068FFF787FEA16B0843A063A06B0028EB
:10553000204602D0FDF7E7FF10BDFDF7E3FF10BDE9
:1055400010B5846B40F23A50216888632046FEF71C
:10555000A7F8012184F8341000212163062801D026
:10556000052805D12068FFF765FEA16B0843A063FD
:10557000A06B0028204602D0FDF7C5FF10BDFDF747
:10558000C1FF10BD10B590B004460120ADF8380041
:105590002068FFF710FD002854D0606C032842D02B
:1055A0002068FFF7EAFD00284AD100212068FFF7B4
:1055B00006FD606704212068FFF701FDA067082150
:1055C0002068FFF7FCFCE0670C212068FFF7F7FC80
:1055D000C4F88000606C032825D00EA92068FFF76E
:1055E00011FE00282CD1606C03281CD0BDF83800B7
:1055F000206501042068FFF7D6FD002820D1002196
:105600002068FFF7DCFC606604212068FFF7D7FC08
:10561000A06608212068FFF7D2FCE0660C21206814
:10562000FFF7CDFC206704212068FFF7C8FC000DC0
:10563000E06403A92046FDF767FF30B14FF08050CA
:1056400010B010BD4FF08060FAE7B4F850000023AE
:1056500002042068FFF778FD0028F1D104F1100062
:1056600007C88DE8070094E80F00FFF7B1FC0020A1
:10567000E6E700002DE9F84F00260446009635467F
:10568000B0460068FFF720FD002827D12068FFF70B
:1056900043FD4FF0805B4FF001094FF6FF7748B1B3
:1056A000A6642068FFF710FD002817D1A06C012820
:1056B00002D020E0C4F8489000212068FFF7B6FC33
:1056C00058B918E000212068FFF7B0FC002805D188
:1056D00051462068FFF7C4FC10B15846BDE8F88F6A
:1056E00000212068FFF76BFC05464FEAD078009850
:1056F000401C009002E0DFF82CA00098B84202D2D3
:10570000B8F1000FDED00098B84202D34FF080709D
:10571000E4E7680002D5C4F8449000E06664002025
:10572000DCE70000000010C170470178407841EAD2
:105730000020704710B5FCF7B9FC08490868401C08
:105740000860B0F57A7F07D300200860BDE81040FC
:1057500008210348FCF79FBB10BD00001400002087
:105760000000024030B593B030216846FAF794FD4E
:1057700014210CA8FAF790FD1F480025016841F09C
:1057800080510160006800F0805011901B48016852
:1057900041F4804101600068022400F480401190CF
:1057A000052000904FF48030019001200290800588
:1057B000CDE9064004200890A820CDE9090407207F
:1057C0000B906846FDF7ACFB08B172B6FEE70CA97A
:1057D0000F2081E831004FF4A0500F904FF480501B
:1057E000109005210CA8FDF7ABFA002801D072B685
:1057F000FEE713B030BD00004038024000700040AA
:105800000248016841F470010160704788ED00E0D2
:105810000148FEF774BB000070050020F0B5026877
:10582000274B284D284E294F294C4FF0804C984249
:1058300009D0604507D0A84205D0B04203D0B84295
:1058400001D0A04204D122F0700E4A6842EA0E0252
:1058500098421BD0604519D0A84217D0B04215D04D
:10586000B84213D0A04211D01A4DA8420ED01A4D02
:10587000A8420BD0194DA84208D0194DA84205D016
:10588000184DA84202D0184DA84203D122F4407509
:10589000CA682A434D6922F080022A438D68C56296
:1058A0000D688562984201D0A04201D10969016367
:1058B000016841F004010160012141610260F0BD15
:1058C000000001400004004000080040000C0040BF
:1058D00000040140004001400044014000480140F4
:1058E00000180040001C00400020004010B58468F3
:1058F00042EA032224F47F440A432243826010BD1B
:10590000826822F070020A4342F00701816070470A
:1059100010B5036A046A24F001040462846924F067
:10592000F00444EA021423F00A020A43846102628A
:1059300010BD10B5036A046A24F01004046284697F
:1059400023F0A00324F4704444EA023243EA011134
:105950008261016210BD10B5806B0021C185FEF728
:1059600087FB10BD70B5846B2068406994F84110C6
:10597000C0F3C0100025212904D118B1E5842046C8
:1059800000F08EF82068406994F84210C0F380104F
:10599000222904D118B1E585204600F05AF8606C40
:1059A00040F0100060642046FEF762FB70BD10B549
:1059B0000146806B096809684FF00002C9052ED4C2
:1059C000C28501680C3151E8003F23F4807341E83F
:1059D0000034002CF5D10168143151E8003F23F068
:1059E000010341E80034002CF5D10168143151E87D
:1059F000003F23F0400341E80034002CF5D1202182
:105A000080F84210016B012909D101680C3151E87D
:105A1000003F23F0100341E80034002CF5D142632D
:105A2000016B012902D0FEF7FFFC10BD818DFEF74E
:105A30001EFB10BD10B5806B01214163016B012974
:105A400002D0FEF709FD10BD818D4908FEF70FFB5E
:105A500010BD01680C3151E8002F22F4907241E82A
:105A60000023002BF5D10168143151E8002F22F0FA
:105A7000010241E80023002BF5D1016B012909D176
:105A800001680C3151E8002F22F0100241E8002398
:105A9000002BF5D1202180F84210002101637047CE
:105AA00001680C3151E8002F22F0C00241E80023C8
:105AB000002BF5D1202180F84110704708B590F8EF
:105AC0004210222901D0022008BD82684FF4805381
:105AD0009A4201D1016921B1816A9A421BD04AB12F
